{
  "contractName": "EthereumDIDRegistry",
  "abi": [
    {
      "constant": true,
      "inputs": [
        {
          "name": "",
          "type": "address"
        }
      ],
      "name": "owners",
      "outputs": [
        {
          "name": "",
          "type": "address"
        }
      ],
      "payable": false,
      "stateMutability": "view",
      "type": "function"
    },
    {
      "constant": true,
      "inputs": [
        {
          "name": "",
          "type": "address"
        },
        {
          "name": "",
          "type": "bytes32"
        },
        {
          "name": "",
          "type": "address"
        }
      ],
      "name": "delegates",
      "outputs": [
        {
          "name": "",
          "type": "uint256"
        }
      ],
      "payable": false,
      "stateMutability": "view",
      "type": "function"
    },
    {
      "constant": true,
      "inputs": [
        {
          "name": "",
          "type": "address"
        }
      ],
      "name": "nonce",
      "outputs": [
        {
          "name": "",
          "type": "uint256"
        }
      ],
      "payable": false,
      "stateMutability": "view",
      "type": "function"
    },
    {
      "constant": true,
      "inputs": [
        {
          "name": "",
          "type": "address"
        }
      ],
      "name": "changed",
      "outputs": [
        {
          "name": "",
          "type": "uint256"
        }
      ],
      "payable": false,
      "stateMutability": "view",
      "type": "function"
    },
    {
      "anonymous": false,
      "inputs": [
        {
          "indexed": true,
          "name": "identity",
          "type": "address"
        },
        {
          "indexed": false,
          "name": "owner",
          "type": "address"
        },
        {
          "indexed": false,
          "name": "previousChange",
          "type": "uint256"
        }
      ],
      "name": "DIDOwnerChanged",
      "type": "event"
    },
    {
      "anonymous": false,
      "inputs": [
        {
          "indexed": true,
          "name": "identity",
          "type": "address"
        },
        {
          "indexed": false,
          "name": "delegateType",
          "type": "bytes32"
        },
        {
          "indexed": false,
          "name": "delegate",
          "type": "address"
        },
        {
          "indexed": false,
          "name": "validTo",
          "type": "uint256"
        },
        {
          "indexed": false,
          "name": "previousChange",
          "type": "uint256"
        }
      ],
      "name": "DIDDelegateChanged",
      "type": "event"
    },
    {
      "anonymous": false,
      "inputs": [
        {
          "indexed": true,
          "name": "identity",
          "type": "address"
        },
        {
          "indexed": false,
          "name": "name",
          "type": "bytes32"
        },
        {
          "indexed": false,
          "name": "value",
          "type": "bytes"
        },
        {
          "indexed": false,
          "name": "validTo",
          "type": "uint256"
        },
        {
          "indexed": false,
          "name": "previousChange",
          "type": "uint256"
        }
      ],
      "name": "DIDAttributeChanged",
      "type": "event"
    },
    {
      "constant": true,
      "inputs": [
        {
          "name": "identity",
          "type": "address"
        }
      ],
      "name": "identityOwner",
      "outputs": [
        {
          "name": "",
          "type": "address"
        }
      ],
      "payable": false,
      "stateMutability": "view",
      "type": "function"
    },
    {
      "constant": true,
      "inputs": [
        {
          "name": "identity",
          "type": "address"
        },
        {
          "name": "delegateType",
          "type": "bytes32"
        },
        {
          "name": "delegate",
          "type": "address"
        }
      ],
      "name": "validDelegate",
      "outputs": [
        {
          "name": "",
          "type": "bool"
        }
      ],
      "payable": false,
      "stateMutability": "view",
      "type": "function"
    },
    {
      "constant": false,
      "inputs": [
        {
          "name": "identity",
          "type": "address"
        },
        {
          "name": "newOwner",
          "type": "address"
        }
      ],
      "name": "changeOwner",
      "outputs": [],
      "payable": false,
      "stateMutability": "nonpayable",
      "type": "function"
    },
    {
      "constant": false,
      "inputs": [
        {
          "name": "identity",
          "type": "address"
        },
        {
          "name": "sigV",
          "type": "uint8"
        },
        {
          "name": "sigR",
          "type": "bytes32"
        },
        {
          "name": "sigS",
          "type": "bytes32"
        },
        {
          "name": "newOwner",
          "type": "address"
        }
      ],
      "name": "changeOwnerSigned",
      "outputs": [],
      "payable": false,
      "stateMutability": "nonpayable",
      "type": "function"
    },
    {
      "constant": false,
      "inputs": [
        {
          "name": "identity",
          "type": "address"
        },
        {
          "name": "delegateType",
          "type": "bytes32"
        },
        {
          "name": "delegate",
          "type": "address"
        },
        {
          "name": "validity",
          "type": "uint256"
        }
      ],
      "name": "addDelegate",
      "outputs": [],
      "payable": false,
      "stateMutability": "nonpayable",
      "type": "function"
    },
    {
      "constant": false,
      "inputs": [
        {
          "name": "identity",
          "type": "address"
        },
        {
          "name": "sigV",
          "type": "uint8"
        },
        {
          "name": "sigR",
          "type": "bytes32"
        },
        {
          "name": "sigS",
          "type": "bytes32"
        },
        {
          "name": "delegateType",
          "type": "bytes32"
        },
        {
          "name": "delegate",
          "type": "address"
        },
        {
          "name": "validity",
          "type": "uint256"
        }
      ],
      "name": "addDelegateSigned",
      "outputs": [],
      "payable": false,
      "stateMutability": "nonpayable",
      "type": "function"
    },
    {
      "constant": false,
      "inputs": [
        {
          "name": "identity",
          "type": "address"
        },
        {
          "name": "delegateType",
          "type": "bytes32"
        },
        {
          "name": "delegate",
          "type": "address"
        }
      ],
      "name": "revokeDelegate",
      "outputs": [],
      "payable": false,
      "stateMutability": "nonpayable",
      "type": "function"
    },
    {
      "constant": false,
      "inputs": [
        {
          "name": "identity",
          "type": "address"
        },
        {
          "name": "sigV",
          "type": "uint8"
        },
        {
          "name": "sigR",
          "type": "bytes32"
        },
        {
          "name": "sigS",
          "type": "bytes32"
        },
        {
          "name": "delegateType",
          "type": "bytes32"
        },
        {
          "name": "delegate",
          "type": "address"
        }
      ],
      "name": "revokeDelegateSigned",
      "outputs": [],
      "payable": false,
      "stateMutability": "nonpayable",
      "type": "function"
    },
    {
      "constant": false,
      "inputs": [
        {
          "name": "identity",
          "type": "address"
        },
        {
          "name": "name",
          "type": "bytes32"
        },
        {
          "name": "value",
          "type": "bytes"
        },
        {
          "name": "validity",
          "type": "uint256"
        }
      ],
      "name": "setAttribute",
      "outputs": [],
      "payable": false,
      "stateMutability": "nonpayable",
      "type": "function"
    },
    {
      "constant": false,
      "inputs": [
        {
          "name": "identity",
          "type": "address"
        },
        {
          "name": "sigV",
          "type": "uint8"
        },
        {
          "name": "sigR",
          "type": "bytes32"
        },
        {
          "name": "sigS",
          "type": "bytes32"
        },
        {
          "name": "name",
          "type": "bytes32"
        },
        {
          "name": "value",
          "type": "bytes"
        },
        {
          "name": "validity",
          "type": "uint256"
        }
      ],
      "name": "setAttributeSigned",
      "outputs": [],
      "payable": false,
      "stateMutability": "nonpayable",
      "type": "function"
    },
    {
      "constant": false,
      "inputs": [
        {
          "name": "identity",
          "type": "address"
        },
        {
          "name": "name",
          "type": "bytes32"
        },
        {
          "name": "value",
          "type": "bytes"
        }
      ],
      "name": "revokeAttribute",
      "outputs": [],
      "payable": false,
      "stateMutability": "nonpayable",
      "type": "function"
    },
    {
      "constant": false,
      "inputs": [
        {
          "name": "identity",
          "type": "address"
        },
        {
          "name": "sigV",
          "type": "uint8"
        },
        {
          "name": "sigR",
          "type": "bytes32"
        },
        {
          "name": "sigS",
          "type": "bytes32"
        },
        {
          "name": "name",
          "type": "bytes32"
        },
        {
          "name": "value",
          "type": "bytes"
        }
      ],
      "name": "revokeAttributeSigned",
      "outputs": [],
      "payable": false,
      "stateMutability": "nonpayable",
      "type": "function"
    }
  ],
  "bytecode": "0x608060405234801561001057600080fd5b5061154e806100206000396000f3fe608060405234801561001057600080fd5b50600436106100ff5760003560e01c806380b29f7c11610097578063a7068d6611610066578063a7068d6614610580578063e476af5c146105ba578063f00d4b5d14610689578063f96d0f9f146106b7576100ff565b806380b29f7c1461048a5780638733d4e8146104c057806393072684146104e65780639c2c1b2b1461052f576100ff565b8063240cf1fa116100d3578063240cf1fa1461031a578063622b2a3c1461035f57806370ae92d2146103a95780637ad4b0a4146103cf576100ff565b8062c023da14610104578063022914a7146101bf5780630d44625b14610201578063123b5e9814610249575b600080fd5b6101bd6004803603606081101561011a57600080fd5b6001600160a01b0382351691602081013591810190606081016040820135600160201b81111561014957600080fd5b82018360208201111561015b57600080fd5b803590602001918460018302840111600160201b8311171561017c57600080fd5b91908080601f0160208091040260200160405190810160405280939291908181526020018383808284376000920191909152509295506106dd945050505050565b005b6101e5600480360360208110156101d557600080fd5b50356001600160a01b03166106ee565b604080516001600160a01b039092168252519081900360200190f35b6102376004803603606081101561021757600080fd5b506001600160a01b03813581169160208101359160409091013516610709565b60408051918252519081900360200190f35b6101bd600480360360e081101561025f57600080fd5b6001600160a01b038235169160ff602082013516916040820135916060810135916080820135919081019060c0810160a0820135600160201b8111156102a457600080fd5b8201836020820111156102b657600080fd5b803590602001918460018302840111600160201b831117156102d757600080fd5b91908080601f016020809104026020016040519081016040528093929190818152602001838380828437600092019190915250929550509135925061072c915050565b6101bd600480360360a081101561033057600080fd5b506001600160a01b03813581169160ff60208201351691604082013591606081013591608090910135166108cc565b6103956004803603606081101561037557600080fd5b506001600160a01b038135811691602081013591604090910135166109a3565b604080519115158252519081900360200190f35b610237600480360360208110156103bf57600080fd5b50356001600160a01b03166109f5565b6101bd600480360360808110156103e557600080fd5b6001600160a01b0382351691602081013591810190606081016040820135600160201b81111561041457600080fd5b82018360208201111561042657600080fd5b803590602001918460018302840111600160201b8311171561044757600080fd5b91908080601f0160208091040260200160405190810160405280939291908181526020018383808284376000920191909152509295505091359250610a07915050565b6101bd600480360360608110156104a057600080fd5b506001600160a01b03813581169160208101359160409091013516610a1a565b6101e5600480360360208110156104d657600080fd5b50356001600160a01b0316610a26565b6101bd600480360360c08110156104fc57600080fd5b506001600160a01b03813581169160ff6020820135169160408201359160608101359160808201359160a0013516610a5a565b6101bd600480360360e081101561054557600080fd5b506001600160a01b03813581169160ff6020820135169160408201359160608101359160808201359160a08101359091169060c00135610b4a565b6101bd6004803603608081101561059657600080fd5b506001600160a01b0381358116916020810135916040820135169060600135610c28565b6101bd600480360360c08110156105d057600080fd5b6001600160a01b038235169160ff602082013516916040820135916060810135916080820135919081019060c0810160a0820135600160201b81111561061557600080fd5b82018360208201111561062757600080fd5b803590602001918460018302840111600160201b8311171561064857600080fd5b91908080601f016020809104026020016040519081016040528093929190818152602001838380828437600092019190915250929550610c35945050505050565b6101bd6004803603604081101561069f57600080fd5b506001600160a01b0381358116916020013516610dc2565b610237600480360360208110156106cd57600080fd5b50356001600160a01b0316610dd1565b6106e983338484610de3565b505050565b6000602081905290815260409020546001600160a01b031681565b600160209081526000938452604080852082529284528284209052825290205481565b6000600160f81b60190281306003826107448d610a26565b6001600160a01b03166001600160a01b03168152602001908152602001600020548b88888860405160200180896001600160f81b0319166001600160f81b0319168152602001886001600160f81b0319166001600160f81b0319168152602001876001600160a01b03166001600160a01b03168152602001868152602001856001600160a01b03166001600160a01b0316815260200180602001858152602001806020018481526020018381038352600c8152602001807f7365744174747269627574650000000000000000000000000000000000000000815250602001838103825285818151815260200191508051906020019080838360005b8381101561085757818101518382015260200161083f565b50505050905090810190601f1680156108845780820380516001836020036101000a031916815260200191505b509a50505050505050505050506040516020818303038152906040528051906020012090506108c2886108ba8a8a8a8a87610f44565b868686611034565b5050505050505050565b6000600160f81b60190281306003826108e48b610a26565b6001600160a01b03908116825260208083019390935260409182016000205482516001600160f81b03199788168186015295909616858301529283166060850152608084019490945289821660a084015290851660e08084019190915260c0830152600b610100830152600160a91b6a31b430b733b2a7bbb732b90261012080840191909152835180840390910181526101409092019092528051910120905061099b866109958188888887610f44565b84611197565b505050505050565b6001600160a01b03808416600090815260016020908152604080832081518084018890528251808203850181529083018352805190840120845282528083209385168352929052205442109392505050565b60036020526000908152604090205481565b610a148433858585611034565b50505050565b6106e983338484611283565b6001600160a01b038082166000908152602081905260408120549091168015610a50579050610a55565b829150505b919050565b6000600160f81b6019028130600382610a728c610a26565b6001600160a01b03908116825260208083019390935260409182016000205482516001600160f81b0319978816818601529590961685830152928316606085015260808401949094528a821660a084015260e083018790529085166101008084019190915260c0830152600e6101208301527f7265766f6b6544656c6567617465000000000000000000000000000000000000610140808401919091528351808403909101815261016090920190925280519101209050610b4187610b3a8189898987610f44565b8585611283565b50505050505050565b6000600160f81b6019028130600382610b628d610a26565b6001600160a01b03908116825260208083019390935260409182016000205482516001600160f81b0319978816818601529590961685830152928316606085015260808401949094528b821660a084015260e0830188905290861661010083015261012080830186905260c0830152600b610140830152600160a81b6a61646444656c6567617465026101608084019190915283518084039091018152610180909201909252805191012090506108c288610c20818a8a8a87610f44565b8686866113b0565b610a1484338585856113b0565b6000600160f81b6019028130600382610c4d8c610a26565b6001600160a01b03166001600160a01b03168152602001908152602001600020548a878760405160200180886001600160f81b0319166001600160f81b0319168152602001876001600160f81b0319166001600160f81b0319168152602001866001600160a01b03166001600160a01b03168152602001858152602001846001600160a01b03166001600160a01b0316815260200180602001848152602001806020018381038352600f8152602001807f7265766f6b654174747269627574650000000000000000000000000000000000815250602001838103825284818151815260200191508051906020019080838360005b83811015610d59578181015183820152602001610d41565b50505050905090810190601f168015610d865780820380516001836020036101000a031916815260200191505b509950505050505050505050604051602081830303815290604052805190602001209050610b4187610dbb8989898987610f44565b8585610de3565b610dcd823383611197565b5050565b60026020526000908152604090205481565b8383610dee82610a26565b6001600160a01b0316816001600160a01b031614610e4057604051600160e51b62461bcd0281526004018080602001828103825260218152602001806115026021913960400191505060405180910390fd5b856001600160a01b03167f18ab6b2ae3d64306c00ce663125f2bd680e441a098de1635bd7ad8b0d44965e485856000600260008c6001600160a01b03166001600160a01b03168152602001908152602001600020546040518085815260200180602001848152602001838152602001828103825285818151815260200191508051906020019080838360005b83811015610ee4578181015183820152602001610ecc565b50505050905090810190601f168015610f115780820380516001836020036101000a031916815260200191505b509550505050505060405180910390a25050506001600160a01b0390921660009081526002602052604090204390555050565b60008060018387878760405160008152602001604052604051808581526020018460ff1660ff1681526020018381526020018281526020019450505050506020604051602081039080840390855afa158015610fa4573d6000803e3d6000fd5b505050602060405103519050610fb987610a26565b6001600160a01b0316816001600160a01b03161461100b57604051600160e51b62461bcd0281526004018080602001828103825260218152602001806114e16021913960400191505060405180910390fd5b6001600160a01b0381166000908152600360205260409020805460010190559695505050505050565b848461103f82610a26565b6001600160a01b0316816001600160a01b03161461109157604051600160e51b62461bcd0281526004018080602001828103825260218152602001806115026021913960400191505060405180910390fd5b866001600160a01b03167f18ab6b2ae3d64306c00ce663125f2bd680e441a098de1635bd7ad8b0d44965e48686864201600260008d6001600160a01b03166001600160a01b03168152602001908152602001600020546040518085815260200180602001848152602001838152602001828103825285818151815260200191508051906020019080838360005b8381101561113657818101518382015260200161111e565b50505050905090810190601f1680156111635780820380516001836020036101000a031916815260200191505b509550505050505060405180910390a25050506001600160a01b039093166000908152600260205260409020439055505050565b82826111a282610a26565b6001600160a01b0316816001600160a01b0316146111f457604051600160e51b62461bcd0281526004018080602001828103825260218152602001806115026021913960400191505060405180910390fd5b6001600160a01b0385811660008181526020818152604080832080546001600160a01b0319169589169586179055600282529182902054825194855290840152805191927f38a5a6e68f30ed1ab45860a4afb34bcb2fc00f22ca462d249b8a8d40cda6f7a3929081900390910190a2505050506001600160a01b03166000908152600260205260409020439055565b838361128e82610a26565b6001600160a01b0316816001600160a01b0316146112e057604051600160e51b62461bcd0281526004018080602001828103825260218152602001806115026021913960400191505060405180910390fd5b6001600160a01b03808716600081815260016020908152604080832081518084018b90528251808203850181528184018085528151918601919091208652918452828520968a16808652968452828520429081905586865260029094529382902054908a90526060840195909552608083019190915260a0820193909352915190917f5a5084339536bcab65f20799fcc58724588145ca054bd2be626174b27ba156f7919081900360c00190a25050506001600160a01b0390921660009081526002602052604090204390555050565b84846113bb82610a26565b6001600160a01b0316816001600160a01b03161461140d57604051600160e51b62461bcd0281526004018080602001828103825260218152602001806115026021913960400191505060405180910390fd5b6001600160a01b03808816600081815260016020908152604080832081518084018c90528251808203850181528184018085528151918601919091208652918452828520968b16808652968452828520428b019081905586865260029094529382902054908b90526060840195909552608083019190915260a0820193909352915190917f5a5084339536bcab65f20799fcc58724588145ca054bd2be626174b27ba156f7919081900360c00190a25050506001600160a01b03909316600090815260026020526040902043905550505056fe5369676e6572206d75737420626520746865206964656e74697479206f776e657243616c6c6572206d75737420626520746865206964656e74697479206f776e6572a165627a7a72305820ca8aa3e0c10ebc0e13483e21181cf8074eb4749406f9cf5b7a9c0b80afa857070029",
  "source": "/*\nOriginal Author: https://github.com/uport-project/ethr-did-registry\n\nPragma has been changed for this document from what is deployed on mainnet.\nThis shouldn\"t pose a problem, but it means a lot of syntax has been changed.\n\nThis contract is only used for testing. On mainnet, we will use the existing\nDID registry: https://etherscan.io/address/0xdca7ef03e98e0dc2b855be647c39abe984fcf21b#code\n\nThis contract is also deployed on all testnets, which can be found here:\nhttps://github.com/uport-project/ethr-did-registry\n\nThis contract is included in this repository for testing purposes on ganache. For deploying\nto testnets or mainnet, it will never be included in the deploy script, since we will use the\ndeployed versions in the above link.\n*/\npragma solidity ^0.5.8;\n\ncontract EthereumDIDRegistry {\n    mapping(address => address) public owners;\n    mapping(address => mapping(bytes32 => mapping(address => uint256))) public delegates;\n    mapping(address => uint256) public changed;\n    mapping(address => uint256) public nonce;\n\n    modifier onlyOwner(address identity, address actor) {\n        require(actor == identityOwner(identity), \"Caller must be the identity owner\");\n        _;\n    }\n\n    event DIDOwnerChanged(address indexed identity, address owner, uint256 previousChange);\n\n    event DIDDelegateChanged(\n        address indexed identity,\n        bytes32 delegateType,\n        address delegate,\n        uint256 validTo,\n        uint256 previousChange\n    );\n\n    event DIDAttributeChanged(\n        address indexed identity,\n        bytes32 name,\n        bytes value,\n        uint256 validTo,\n        uint256 previousChange\n    );\n\n    function identityOwner(address identity) public view returns (address) {\n        address owner = owners[identity];\n        if (owner != address(0)) {\n            return owner;\n        }\n        return identity;\n    }\n\n    function checkSignature(address identity, uint8 sigV, bytes32 sigR, bytes32 sigS, bytes32 hash)\n        internal\n        returns (address)\n    {\n        address signer = ecrecover(hash, sigV, sigR, sigS);\n        require(signer == identityOwner(identity), \"Signer must be the identity owner\");\n        nonce[signer]++;\n        return signer;\n    }\n\n    function validDelegate(address identity, bytes32 delegateType, address delegate)\n        public\n        view\n        returns (bool)\n    {\n        uint256 validity = delegates[identity][keccak256(abi.encode(delegateType))][delegate];\n        /* solium-disable-next-line security/no-block-members*/\n        return (validity > now);\n    }\n\n    function changeOwner(address identity, address actor, address newOwner)\n        internal\n        onlyOwner(identity, actor)\n    {\n        owners[identity] = newOwner;\n        emit DIDOwnerChanged(identity, newOwner, changed[identity]);\n        changed[identity] = block.number;\n    }\n\n    function changeOwner(address identity, address newOwner) public {\n        changeOwner(identity, msg.sender, newOwner);\n    }\n\n    function changeOwnerSigned(\n        address identity,\n        uint8 sigV,\n        bytes32 sigR,\n        bytes32 sigS,\n        address newOwner\n    ) public {\n        bytes32 hash = keccak256(\n            abi.encode(\n                bytes1(0x19),\n                bytes1(0),\n                this,\n                nonce[identityOwner(identity)],\n                identity,\n                \"changeOwner\",\n                newOwner\n            )\n        );\n        changeOwner(identity, checkSignature(identity, sigV, sigR, sigS, hash), newOwner);\n    }\n\n    function addDelegate(\n        address identity,\n        address actor,\n        bytes32 delegateType,\n        address delegate,\n        uint256 validity\n    ) internal onlyOwner(identity, actor) {\n        /* solium-disable-next-line security/no-block-members*/\n        delegates[identity][keccak256(abi.encode(delegateType))][delegate] = now + validity;\n        emit DIDDelegateChanged(\n            identity,\n            delegateType,\n            delegate,\n            /* solium-disable-next-line security/no-block-members*/\n            now + validity,\n            changed[identity]\n        );\n        changed[identity] = block.number;\n    }\n\n    function addDelegate(address identity, bytes32 delegateType, address delegate, uint256 validity)\n        public\n    {\n        addDelegate(identity, msg.sender, delegateType, delegate, validity);\n    }\n\n    function addDelegateSigned(\n        address identity,\n        uint8 sigV,\n        bytes32 sigR,\n        bytes32 sigS,\n        bytes32 delegateType,\n        address delegate,\n        uint256 validity\n    ) public {\n        bytes32 hash = keccak256(\n            abi.encode(\n                bytes1(0x19),\n                bytes1(0),\n                this,\n                nonce[identityOwner(identity)],\n                identity,\n                \"addDelegate\",\n                delegateType,\n                delegate,\n                validity\n            )\n        );\n        addDelegate(\n            identity,\n            checkSignature(identity, sigV, sigR, sigS, hash),\n            delegateType,\n            delegate,\n            validity\n        );\n    }\n\n    function revokeDelegate(address identity, address actor, bytes32 delegateType, address delegate)\n        internal\n        onlyOwner(identity, actor)\n    {\n        /* solium-disable-next-line security/no-block-members*/\n        delegates[identity][keccak256(abi.encode(delegateType))][delegate] = now;\n        /* solium-disable-next-line security/no-block-members*/\n        emit DIDDelegateChanged(identity, delegateType, delegate, now, changed[identity]);\n        changed[identity] = block.number;\n    }\n\n    function revokeDelegate(address identity, bytes32 delegateType, address delegate) public {\n        revokeDelegate(identity, msg.sender, delegateType, delegate);\n    }\n\n    function revokeDelegateSigned(\n        address identity,\n        uint8 sigV,\n        bytes32 sigR,\n        bytes32 sigS,\n        bytes32 delegateType,\n        address delegate\n    ) public {\n        bytes32 hash = keccak256(\n            abi.encode(\n                bytes1(0x19),\n                bytes1(0),\n                this,\n                nonce[identityOwner(identity)],\n                identity,\n                \"revokeDelegate\",\n                delegateType,\n                delegate\n            )\n        );\n        revokeDelegate(\n            identity,\n            checkSignature(identity, sigV, sigR, sigS, hash),\n            delegateType,\n            delegate\n        );\n    }\n\n    function setAttribute(\n        address identity,\n        address actor,\n        bytes32 name,\n        bytes memory value,\n        uint256 validity\n    ) internal onlyOwner(identity, actor) {\n        /* solium-disable-next-line security/no-block-members*/\n        emit DIDAttributeChanged(identity, name, value, now + validity, changed[identity]);\n        changed[identity] = block.number;\n    }\n\n    function setAttribute(address identity, bytes32 name, bytes memory value, uint256 validity)\n        public\n    {\n        setAttribute(identity, msg.sender, name, value, validity);\n    }\n\n    function setAttributeSigned(\n        address identity,\n        uint8 sigV,\n        bytes32 sigR,\n        bytes32 sigS,\n        bytes32 name,\n        bytes memory value,\n        uint256 validity\n    ) public {\n        bytes32 hash = keccak256(\n            abi.encode(\n                bytes1(0x19),\n                bytes1(0),\n                this,\n                nonce[identityOwner(identity)],\n                identity,\n                \"setAttribute\",\n                name,\n                value,\n                validity\n            )\n        );\n        setAttribute(\n            identity,\n            checkSignature(identity, sigV, sigR, sigS, hash),\n            name,\n            value,\n            validity\n        );\n    }\n\n    function revokeAttribute(address identity, address actor, bytes32 name, bytes memory value)\n        internal\n        onlyOwner(identity, actor)\n    {\n        emit DIDAttributeChanged(identity, name, value, 0, changed[identity]);\n        changed[identity] = block.number;\n    }\n\n    function revokeAttribute(address identity, bytes32 name, bytes memory value) public {\n        revokeAttribute(identity, msg.sender, name, value);\n    }\n\n    function revokeAttributeSigned(\n        address identity,\n        uint8 sigV,\n        bytes32 sigR,\n        bytes32 sigS,\n        bytes32 name,\n        bytes memory value\n    ) public {\n        bytes32 hash = keccak256(\n            abi.encode(\n                bytes1(0x19),\n                bytes1(0),\n                this,\n                nonce[identityOwner(identity)],\n                identity,\n                \"revokeAttribute\",\n                name,\n                value\n            )\n        );\n        revokeAttribute(identity, checkSignature(identity, sigV, sigR, sigS, hash), name, value);\n    }\n\n}\n",
  "sourcePath": "/Users/davidkajpust/coding-no-icloud-backup/thegraph/dave/everest/contracts/contracts/EthereumDIDRegistry.sol",
  "compiler": {
    "name": "solc",
    "version": "0.5.8+commit.23d335f2.Emscripten.clang"
  },
  "schemaVersion": "3.0.17",
  "updatedAt": "2020-01-06T18:35:53.041Z",
  "devdoc": {
    "methods": {}
  },
  "userdoc": {
    "methods": {}
  }
}