{
  "contractName": "Everest",
  "abi": [
    {
      "constant": true,
      "inputs": [],
      "name": "reserveBank",
      "outputs": [
        {
          "name": "",
          "type": "address"
        }
      ],
      "payable": false,
      "stateMutability": "view",
      "type": "function"
    },
    {
      "constant": true,
      "inputs": [],
      "name": "applicationFee",
      "outputs": [
        {
          "name": "",
          "type": "uint256"
        }
      ],
      "payable": false,
      "stateMutability": "view",
      "type": "function"
    },
    {
      "constant": true,
      "inputs": [],
      "name": "challengeDeposit",
      "outputs": [
        {
          "name": "",
          "type": "uint256"
        }
      ],
      "payable": false,
      "stateMutability": "view",
      "type": "function"
    },
    {
      "constant": true,
      "inputs": [],
      "name": "erc1056Registry",
      "outputs": [
        {
          "name": "",
          "type": "address"
        }
      ],
      "payable": false,
      "stateMutability": "view",
      "type": "function"
    },
    {
      "constant": false,
      "inputs": [],
      "name": "renounceOwnership",
      "outputs": [],
      "payable": false,
      "stateMutability": "nonpayable",
      "type": "function"
    },
    {
      "constant": true,
      "inputs": [],
      "name": "owner",
      "outputs": [
        {
          "name": "",
          "type": "address"
        }
      ],
      "payable": false,
      "stateMutability": "view",
      "type": "function"
    },
    {
      "constant": true,
      "inputs": [],
      "name": "isOwner",
      "outputs": [
        {
          "name": "",
          "type": "bool"
        }
      ],
      "payable": false,
      "stateMutability": "view",
      "type": "function"
    },
    {
      "constant": true,
      "inputs": [],
      "name": "memberRegistry",
      "outputs": [
        {
          "name": "",
          "type": "address"
        }
      ],
      "payable": false,
      "stateMutability": "view",
      "type": "function"
    },
    {
      "constant": true,
      "inputs": [],
      "name": "votingPeriodDuration",
      "outputs": [
        {
          "name": "",
          "type": "uint256"
        }
      ],
      "payable": false,
      "stateMutability": "view",
      "type": "function"
    },
    {
      "constant": true,
      "inputs": [],
      "name": "approvedToken",
      "outputs": [
        {
          "name": "",
          "type": "address"
        }
      ],
      "payable": false,
      "stateMutability": "view",
      "type": "function"
    },
    {
      "constant": false,
      "inputs": [
        {
          "name": "newOwner",
          "type": "address"
        }
      ],
      "name": "transferOwnership",
      "outputs": [],
      "payable": false,
      "stateMutability": "nonpayable",
      "type": "function"
    },
    {
      "inputs": [
        {
          "name": "_owner",
          "type": "address"
        },
        {
          "name": "_approvedToken",
          "type": "address"
        },
        {
          "name": "_votingPeriodDuration",
          "type": "uint256"
        },
        {
          "name": "_challengeDeposit",
          "type": "uint256"
        },
        {
          "name": "_applicationFee",
          "type": "uint256"
        },
        {
          "name": "_charter",
          "type": "bytes32"
        }
      ],
      "payable": false,
      "stateMutability": "nonpayable",
      "type": "constructor"
    },
    {
      "anonymous": false,
      "inputs": [
        {
          "indexed": false,
          "name": "member",
          "type": "address"
        },
        {
          "indexed": false,
          "name": "applicationTime",
          "type": "uint256"
        }
      ],
      "name": "ApplicationMade",
      "type": "event"
    },
    {
      "anonymous": false,
      "inputs": [
        {
          "indexed": true,
          "name": "member",
          "type": "address"
        }
      ],
      "name": "MemberExited",
      "type": "event"
    },
    {
      "anonymous": false,
      "inputs": [
        {
          "indexed": true,
          "name": "data",
          "type": "bytes32"
        }
      ],
      "name": "CharterUpdated",
      "type": "event"
    },
    {
      "anonymous": false,
      "inputs": [
        {
          "indexed": true,
          "name": "receiver",
          "type": "address"
        },
        {
          "indexed": false,
          "name": "amount",
          "type": "uint256"
        }
      ],
      "name": "Withdrawal",
      "type": "event"
    },
    {
      "anonymous": false,
      "inputs": [
        {
          "indexed": false,
          "name": "owner",
          "type": "address"
        },
        {
          "indexed": false,
          "name": "approvedToken",
          "type": "address"
        },
        {
          "indexed": false,
          "name": "votingPeriodDuration",
          "type": "uint256"
        },
        {
          "indexed": false,
          "name": "challengeDeposit",
          "type": "uint256"
        },
        {
          "indexed": false,
          "name": "applicationFee",
          "type": "uint256"
        },
        {
          "indexed": false,
          "name": "reserveBank",
          "type": "address"
        },
        {
          "indexed": false,
          "name": "registry",
          "type": "address"
        },
        {
          "indexed": false,
          "name": "charter",
          "type": "bytes32"
        }
      ],
      "name": "EverestDeployed",
      "type": "event"
    },
    {
      "anonymous": false,
      "inputs": [
        {
          "indexed": true,
          "name": "member",
          "type": "address"
        },
        {
          "indexed": true,
          "name": "challengeID",
          "type": "uint256"
        },
        {
          "indexed": true,
          "name": "challenger",
          "type": "address"
        },
        {
          "indexed": false,
          "name": "challengeEndTime",
          "type": "uint256"
        },
        {
          "indexed": false,
          "name": "details",
          "type": "bytes32"
        }
      ],
      "name": "MemberChallenged",
      "type": "event"
    },
    {
      "anonymous": false,
      "inputs": [
        {
          "indexed": true,
          "name": "challengeID",
          "type": "uint256"
        },
        {
          "indexed": true,
          "name": "submitter",
          "type": "address"
        },
        {
          "indexed": true,
          "name": "memberOwner",
          "type": "address"
        },
        {
          "indexed": false,
          "name": "voteChoice",
          "type": "uint8"
        },
        {
          "indexed": false,
          "name": "voteWeight",
          "type": "uint256"
        }
      ],
      "name": "SubmitVote",
      "type": "event"
    },
    {
      "anonymous": false,
      "inputs": [
        {
          "indexed": true,
          "name": "member",
          "type": "address"
        },
        {
          "indexed": true,
          "name": "challengeID",
          "type": "uint256"
        },
        {
          "indexed": false,
          "name": "yesVotes",
          "type": "uint256"
        },
        {
          "indexed": false,
          "name": "noVotes",
          "type": "uint256"
        }
      ],
      "name": "ChallengeFailed",
      "type": "event"
    },
    {
      "anonymous": false,
      "inputs": [
        {
          "indexed": true,
          "name": "member",
          "type": "address"
        },
        {
          "indexed": true,
          "name": "challengeID",
          "type": "uint256"
        },
        {
          "indexed": false,
          "name": "yesVotes",
          "type": "uint256"
        },
        {
          "indexed": false,
          "name": "noVotes",
          "type": "uint256"
        }
      ],
      "name": "ChallengeSucceeded",
      "type": "event"
    },
    {
      "anonymous": false,
      "inputs": [
        {
          "indexed": true,
          "name": "previousOwner",
          "type": "address"
        },
        {
          "indexed": true,
          "name": "newOwner",
          "type": "address"
        }
      ],
      "name": "OwnershipTransferred",
      "type": "event"
    },
    {
      "constant": false,
      "inputs": [
        {
          "name": "_newMember",
          "type": "address"
        },
        {
          "name": "_sigV",
          "type": "uint8"
        },
        {
          "name": "_sigR",
          "type": "bytes32"
        },
        {
          "name": "_sigS",
          "type": "bytes32"
        },
        {
          "name": "_owner",
          "type": "address"
        }
      ],
      "name": "applySigned",
      "outputs": [],
      "payable": false,
      "stateMutability": "nonpayable",
      "type": "function"
    },
    {
      "constant": false,
      "inputs": [
        {
          "name": "_newMember",
          "type": "address"
        },
        {
          "name": "_applySigV",
          "type": "uint8"
        },
        {
          "name": "_applySigR",
          "type": "bytes32"
        },
        {
          "name": "_applySigS",
          "type": "bytes32"
        },
        {
          "name": "_owner",
          "type": "address"
        },
        {
          "name": "_delegateSigV",
          "type": "uint8"
        },
        {
          "name": "_delegateSigR",
          "type": "bytes32"
        },
        {
          "name": "_delegateSigS",
          "type": "bytes32"
        },
        {
          "name": "_delegate",
          "type": "address"
        },
        {
          "name": "_delegateValidity",
          "type": "uint256"
        }
      ],
      "name": "applySignedWithDelegate",
      "outputs": [],
      "payable": false,
      "stateMutability": "nonpayable",
      "type": "function"
    },
    {
      "constant": false,
      "inputs": [
        {
          "name": "_newMember",
          "type": "address"
        },
        {
          "name": "_applySigV",
          "type": "uint8"
        },
        {
          "name": "_applySigR",
          "type": "bytes32"
        },
        {
          "name": "_applySigS",
          "type": "bytes32"
        },
        {
          "name": "_owner",
          "type": "address"
        },
        {
          "name": "_attributeSigV",
          "type": "uint8"
        },
        {
          "name": "_attributeSigR",
          "type": "bytes32"
        },
        {
          "name": "_attributeSigS",
          "type": "bytes32"
        },
        {
          "name": "_offChainDataName",
          "type": "bytes32"
        },
        {
          "name": "_offChainDataValue",
          "type": "bytes"
        },
        {
          "name": "_offChainDataValidity",
          "type": "uint256"
        }
      ],
      "name": "applySignedWithAttribute",
      "outputs": [],
      "payable": false,
      "stateMutability": "nonpayable",
      "type": "function"
    },
    {
      "constant": false,
      "inputs": [
        {
          "name": "_member",
          "type": "address"
        }
      ],
      "name": "memberExit",
      "outputs": [],
      "payable": false,
      "stateMutability": "nonpayable",
      "type": "function"
    },
    {
      "constant": false,
      "inputs": [
        {
          "name": "_member",
          "type": "address"
        },
        {
          "name": "_sigV",
          "type": "uint8"
        },
        {
          "name": "_sigR",
          "type": "bytes32"
        },
        {
          "name": "_sigS",
          "type": "bytes32"
        },
        {
          "name": "_newOwner",
          "type": "address"
        }
      ],
      "name": "changeOwnerSigned",
      "outputs": [],
      "payable": false,
      "stateMutability": "nonpayable",
      "type": "function"
    },
    {
      "constant": false,
      "inputs": [
        {
          "name": "_member",
          "type": "address"
        },
        {
          "name": "_sigV",
          "type": "uint8"
        },
        {
          "name": "_sigR",
          "type": "bytes32"
        },
        {
          "name": "_sigS",
          "type": "bytes32"
        },
        {
          "name": "_offChainDataName",
          "type": "bytes32"
        },
        {
          "name": "_offChainDataValue",
          "type": "bytes"
        },
        {
          "name": "_offChainDataValidity",
          "type": "uint256"
        }
      ],
      "name": "editOffChainDataSigned",
      "outputs": [],
      "payable": false,
      "stateMutability": "nonpayable",
      "type": "function"
    },
    {
      "constant": false,
      "inputs": [
        {
          "name": "_member",
          "type": "address"
        },
        {
          "name": "_sigV",
          "type": "uint8"
        },
        {
          "name": "_sigR",
          "type": "bytes32"
        },
        {
          "name": "_sigS",
          "type": "bytes32"
        },
        {
          "name": "_newDelegate",
          "type": "address"
        },
        {
          "name": "_delegateValidity",
          "type": "uint256"
        }
      ],
      "name": "addDelegateSigned",
      "outputs": [],
      "payable": false,
      "stateMutability": "nonpayable",
      "type": "function"
    },
    {
      "constant": false,
      "inputs": [
        {
          "name": "_delegate",
          "type": "address"
        },
        {
          "name": "_member",
          "type": "address"
        },
        {
          "name": "_sigV",
          "type": "uint8"
        },
        {
          "name": "_sigR",
          "type": "bytes32"
        },
        {
          "name": "_sigS",
          "type": "bytes32"
        }
      ],
      "name": "revokeDelegateSigned",
      "outputs": [],
      "payable": false,
      "stateMutability": "nonpayable",
      "type": "function"
    },
    {
      "constant": false,
      "inputs": [
        {
          "name": "_challengingMember",
          "type": "address"
        },
        {
          "name": "_challengedMember",
          "type": "address"
        },
        {
          "name": "_details",
          "type": "bytes32"
        }
      ],
      "name": "challenge",
      "outputs": [
        {
          "name": "challengeID",
          "type": "uint256"
        }
      ],
      "payable": false,
      "stateMutability": "nonpayable",
      "type": "function"
    },
    {
      "constant": false,
      "inputs": [
        {
          "name": "_challengeID",
          "type": "uint256"
        },
        {
          "name": "_voteChoice",
          "type": "uint8"
        },
        {
          "name": "_voter",
          "type": "address"
        }
      ],
      "name": "submitVote",
      "outputs": [],
      "payable": false,
      "stateMutability": "nonpayable",
      "type": "function"
    },
    {
      "constant": false,
      "inputs": [
        {
          "name": "_challengeID",
          "type": "uint256"
        }
      ],
      "name": "resolveChallenge",
      "outputs": [],
      "payable": false,
      "stateMutability": "nonpayable",
      "type": "function"
    },
    {
      "constant": false,
      "inputs": [
        {
          "name": "_newCharter",
          "type": "bytes32"
        }
      ],
      "name": "updateCharter",
      "outputs": [
        {
          "name": "",
          "type": "bool"
        }
      ],
      "payable": false,
      "stateMutability": "nonpayable",
      "type": "function"
    },
    {
      "constant": false,
      "inputs": [
        {
          "name": "_receiver",
          "type": "address"
        },
        {
          "name": "_amount",
          "type": "uint256"
        }
      ],
      "name": "withdraw",
      "outputs": [
        {
          "name": "",
          "type": "bool"
        }
      ],
      "payable": false,
      "stateMutability": "nonpayable",
      "type": "function"
    },
    {
      "constant": true,
      "inputs": [
        {
          "name": "_endTime",
          "type": "uint256"
        }
      ],
      "name": "hasVotingPeriodExpired",
      "outputs": [
        {
          "name": "",
          "type": "bool"
        }
      ],
      "payable": false,
      "stateMutability": "view",
      "type": "function"
    },
    {
      "constant": true,
      "inputs": [
        {
          "name": "_member",
          "type": "address"
        }
      ],
      "name": "isMember",
      "outputs": [
        {
          "name": "",
          "type": "bool"
        }
      ],
      "payable": false,
      "stateMutability": "view",
      "type": "function"
    },
    {
      "constant": true,
      "inputs": [
        {
          "name": "_member",
          "type": "address"
        }
      ],
      "name": "memberChallengeExists",
      "outputs": [
        {
          "name": "",
          "type": "bool"
        }
      ],
      "payable": false,
      "stateMutability": "view",
      "type": "function"
    },
    {
      "constant": true,
      "inputs": [
        {
          "name": "_challengeID",
          "type": "uint256"
        }
      ],
      "name": "challengeCanBeResolved",
      "outputs": [
        {
          "name": "",
          "type": "bool"
        }
      ],
      "payable": false,
      "stateMutability": "view",
      "type": "function"
    }
  ],
  "bytecode": "0x60806040527f65766572657374000000000000000000000000000000000000000000000000006008556001600a553480156200003a57600080fd5b5060405160c08062003c20833981018060405260c08110156200005c57600080fd5b50805160208083015160408401516060850151608086015160a09096015194959294919390929190620000939062000361811b901c565b600080546001600160a01b0319166001600160a01b03928316178082556040519216917f8be0079c531659141344cd1fd0a4f28419497f9722a3daafe3b4186f6b6457e0908290a36001600160a01b0386166200013c576040517f08c379a000000000000000000000000000000000000000000000000000000000815260040180806020018281038252602881526020018062003b916028913960400191505060405180910390fd5b6001600160a01b0385166200019d576040517f08c379a000000000000000000000000000000000000000000000000000000000815260040180806020018281038252603181526020018062003bef6031913960400191505060405180910390fd5b60008411620001f8576040517f08c379a000000000000000000000000000000000000000000000000000000000815260040180806020018281038252603681526020018062003bb96036913960400191505060405180910390fd5b600480546001600160a01b0319166001600160a01b0387161790556040518590620002239062000365565b6001600160a01b03909116815260405190819003602001906000f08015801562000251573d6000803e3d6000fd5b50600560006101000a8154816001600160a01b0302191690836001600160a01b031602179055503081604051620002889062000373565b6001600160a01b0390921682526020820152604080519182900301906000f080158015620002ba573d6000803e3d6000fd5b50600680546001600160a01b0319166001600160a01b039283161790819055600186905560028590556003849055600554604080518a851681528985166020820152808201899052606081018890526080810187905291841660a08301529190921660c083015260e08201839052517fe0d7fd1b516abdeef7525ae836bf9e90669153b30000d2953430e3369903c97c91610100908290030190a150505050505062000381565b3390565b6104ff8062002e3583390190565b61085d806200333483390190565b612aa480620003916000396000f3fe608060405234801561001057600080fd5b50600436106101c45760003560e01c80638a97d4d2116100f9578063b5fdb88e11610097578063c77b5b2d11610071578063c77b5b2d14610611578063ecfefa7914610656578063f2fde38b146106c2578063f3fef3a3146106e8576101c4565b8063b5fdb88e146105db578063ba881ea5146105e3578063bab4625914610609576101c4565b80639425a476116100d35780639425a476146104d3578063a230c524146104f0578063a416a99f14610516578063a74d4772146105d3576101c4565b80638a97d4d21461048e5780638da5cb5b146104c35780638f32d59b146104cb576101c4565b806341af318c11610166578063715018a611610140578063715018a614610416578063761c7cfe1461041e5780637f3adce51461043b5780638a58e38b14610471576101c4565b806341af318c146102d8578063431e979c146102fe578063711d5c9314610343576101c4565b80630d13fd7b116101a25780630d13fd7b14610238578063240cf1fa14610240578063262ee4271461028757806340b8d4e01461028f576101c4565b80630240a7cd146101c957806302946804146101fa57806304cbb47f1461021e575b600080fd5b6101e6600480360360208110156101df57600080fd5b5035610714565b604080519115158252519081900360200190f35b6102026107fd565b604080516001600160a01b039092168252519081900360200190f35b61022661080c565b60408051918252519081900360200190f35b610226610812565b610285600480360360a081101561025657600080fd5b506001600160a01b03813581169160ff6020820135169160408201359160608101359160809091013516610818565b005b610202610973565b610285600480360360c08110156102a557600080fd5b506001600160a01b03813581169160ff602082013516916040820135916060810135916080820135169060a00135610982565b6101e6600480360360208110156102ee57600080fd5b50356001600160a01b0316610af0565b610285600480360360a081101561031457600080fd5b506001600160a01b03813581169160208101359091169060ff6040820135169060608101359060800135610b77565b610285600480360360e081101561035957600080fd5b6001600160a01b038235169160ff602082013516916040820135916060810135916080820135919081019060c0810160a082013564010000000081111561039f57600080fd5b8201836020820111156103b157600080fd5b803590602001918460018302840111640100000000831117156103d357600080fd5b91908080601f0160208091040260200160405190810160405280939291908181526020018383808284376000920191909152509295505091359250610cbc915050565b610285610eae565b6102856004803603602081101561043457600080fd5b5035610f42565b6102266004803603606081101561045157600080fd5b506001600160a01b03813581169160208101359091169060400135611207565b6101e66004803603602081101561048757600080fd5b5035611788565b610285600480360360608110156104a457600080fd5b50803590602081013560ff1690604001356001600160a01b031661182d565b610202611d0f565b6101e6611d1e565b6101e6600480360360208110156104e957600080fd5b5035611d42565b6101e66004803603602081101561050657600080fd5b50356001600160a01b0316611d48565b610285600480360361016081101561052d57600080fd5b6001600160a01b03823581169260ff602082013581169360408301359360608401359360808101359091169260a0820135169160c08201359160e0810135916101008201359190810190610140810161012082013564010000000081111561059457600080fd5b8201836020820111156105a657600080fd5b803590602001918460018302840111640100000000831117156105c857600080fd5b919350915035611de1565b610202611e34565b610226611e43565b610285600480360360208110156105f957600080fd5b50356001600160a01b0316611e49565b610202611ffd565b610285600480360360a081101561062757600080fd5b506001600160a01b03813581169160ff602082013516916040820135916060810135916080909101351661200c565b610285600480360361014081101561066d57600080fd5b506001600160a01b03813581169160ff6020820135811692604083013592606081013592608082013583169260a08301359091169160c08101359160e082013591610100810135909116906101200135612020565b610285600480360360208110156106d857600080fd5b50356001600160a01b0316612047565b6101e6600480360360408110156106fe57600080fd5b506001600160a01b03813516906020013561209d565b600061071e611d1e565b6107605760408051600160e51b62461bcd0281526020600482018190526024820152600080516020612847833981519152604482015290519081900360640190fd5b60405182907fb15fb48110a440fe2c3d7bef86e06683757886eda0b8a8a36de9a66fb1c4e1b890600090a260065460408051600160e01b630240a7cd0281526004810185905290516001600160a01b0390921691630240a7cd9160248082019260009290919082900301818387803b1580156107db57600080fd5b505af11580156107ef573d6000803e3d6000fd5b50505050600190505b919050565b6005546001600160a01b031681565b60035481565b60025481565b60075460408051600160e31b6310e67a9d0281526001600160a01b038089166004830152915188936000931691638733d4e8916024808301926020929190829003018186803b15801561086a57600080fd5b505afa15801561087e573d6000803e3d6000fd5b505050506040513d602081101561089457600080fd5b505190506001600160a01b03811633146108e257604051600160e51b62461bcd02815260040180806020018281038252603f815260200180612867603f913960400191505060405180910390fd5b60075460408051600160e11b63120678fd0281526001600160a01b038a8116600483015260ff8a166024830152604482018990526064820188905286811660848301529151919092169163240cf1fa9160a480830192600092919082900301818387803b15801561095257600080fd5b505af1158015610966573d6000803e3d6000fd5b5050505050505050505050565b6007546001600160a01b031681565b60075460408051600160e31b6310e67a9d0281526001600160a01b03808a166004830152915189936000931691638733d4e8916024808301926020929190829003018186803b1580156109d457600080fd5b505afa1580156109e8573d6000803e3d6000fd5b505050506040513d60208110156109fe57600080fd5b505190506001600160a01b0381163314610a4c57604051600160e51b62461bcd02815260040180806020018281038252603f815260200180612867603f913960400191505060405180910390fd5b60075460085460408051600160e01b639c2c1b2b0281526001600160a01b038c8116600483015260ff8c166024830152604482018b9052606482018a9052608482019390935287831660a482015260c4810187905290519190921691639c2c1b2b9160e480830192600092919082900301818387803b158015610ace57600080fd5b505af1158015610ae2573d6000803e3d6000fd5b505050505050505050505050565b60065460408051600160e01b632b94ea970281526001600160a01b038481166004830152915160009384931691632b94ea97916024808301926020929190829003018186803b158015610b4257600080fd5b505afa158015610b56573d6000803e3d6000fd5b505050506040513d6020811015610b6c57600080fd5b505115159392505050565b60075460408051600160e31b6310e67a9d0281526001600160a01b038088166004830152915187936000931691638733d4e8916024808301926020929190829003018186803b158015610bc957600080fd5b505afa158015610bdd573d6000803e3d6000fd5b505050506040513d6020811015610bf357600080fd5b505190506001600160a01b0381163314610c4157604051600160e51b62461bcd02815260040180806020018281038252603f815260200180612867603f913960400191505060405180910390fd5b60075460085460408051600160e21b6324c1c9a10281526001600160a01b038a8116600483015260ff8a166024830152604482018990526064820188905260848201939093528a831660a48201529051919092169163930726849160c480830192600092919082900301818387803b15801561095257600080fd5b60075460408051600160e31b6310e67a9d0281526001600160a01b03808b16600483015291518a936000931691638733d4e8916024808301926020929190829003018186803b158015610d0e57600080fd5b505afa158015610d22573d6000803e3d6000fd5b505050506040513d6020811015610d3857600080fd5b505190506001600160a01b0381163314610d8657604051600160e51b62461bcd02815260040180806020018281038252603f815260200180612867603f913960400191505060405180910390fd5b600760009054906101000a90046001600160a01b03166001600160a01b031663123b5e988a8a8a8a8a8a8a6040518863ffffffff1660e01b815260040180886001600160a01b03166001600160a01b031681526020018760ff1660ff16815260200186815260200185815260200184815260200180602001838152602001828103825284818151815260200191508051906020019080838360005b83811015610e39578181015183820152602001610e21565b50505050905090810190601f168015610e665780820380516001836020036101000a031916815260200191505b5098505050505050505050600060405180830381600087803b158015610e8b57600080fd5b505af1158015610e9f573d6000803e3d6000fd5b50505050505050505050505050565b610eb6611d1e565b610ef85760408051600160e51b62461bcd0281526020600482018190526024820152600080516020612847833981519152604482015290519081900360640190fd5b600080546040516001600160a01b03909116907f8be0079c531659141344cd1fd0a4f28419497f9722a3daafe3b4186f6b6457e0908390a3600080546001600160a01b0319169055565b610f4b81611788565b506000818152600960205260409020600381015460028201546004830154911090600110818015610f795750805b1561109c578254600254610f96916001600160a01b03169061209d565b610fd457604051600160e51b62461bcd0281526004018080602001828103825260378152602001806129166037913960400191505060405180910390fd5b600654600184015460408051600160e21b63047fec750281526001600160a01b039283166004820152905191909216916311ffb1d491602480830192600092919082900301818387803b15801561102a57600080fd5b505af115801561103e573d6000803e3d6000fd5b50505050600183015460028401546003850154604080519283526020830191909152805187936001600160a01b0316927f1cdc27c07836abfa214c6639687f35add251f02fdccf87407de20da7c67f866492908290030190a36111b9565b82546002546110b4916001600160a01b03169061209d565b6110f257604051600160e51b62461bcd0281526004018080602001828103825260378152602001806129166037913960400191505060405180910390fd5b600654600184015460408051600160e21b623499330281526001600160a01b0392831660048201526000602482018190529151929093169262d264cc926044808301939282900301818387803b15801561114b57600080fd5b505af115801561115f573d6000803e3d6000fd5b50505050600183015460028401546003850154604080519283526020830191909152805187936001600160a01b0316927f4570e2d8548628e82fedf5e5b40d3c54f16bacfd147b99065202f63dd789158992908290030190a35b505050600090815260096020526040812080546001600160a01b0319908116825560018201805490911690556002810182905560038101829055600481018290556005810182905560060155565b60008361121381611d48565b61125157604051600160e51b62461bcd02815260040180806020018281038252604281526020018061279e6042913960600191505060405180910390fd5b60075460408051600160e31b6310e67a9d0281526001600160a01b03848116600483015291516000939290921691638733d4e891602480820192602092909190829003018186803b1580156112a557600080fd5b505afa1580156112b9573d6000803e3d6000fd5b505050506040513d60208110156112cf57600080fd5b505190506001600160a01b038116331461131d57604051600160e51b62461bcd02815260040180806020018281038252603f815260200180612867603f913960400191505060405180910390fd5b60065460408051600160e21b632ddc11930281526001600160a01b0388811660048301529151600093929092169163b770464c91602480820192602092909190829003018186803b15801561137157600080fd5b505afa158015611385573d6000803e3d6000fd5b505050506040513d602081101561139b57600080fd5b50519050806113de57604051600160e51b62461bcd02815260040180806020018281038252602a8152602001806129cb602a913960400191505060405180910390fd5b60065460408051600160e21b632ddc11930281526001600160a01b038a811660048301529151600093929092169163b770464c91602480820192602092909190829003018186803b15801561143257600080fd5b505afa158015611446573d6000803e3d6000fd5b505050506040513d602081101561145c57600080fd5b5051905061146987610af0565b156114a857604051600160e51b62461bcd0281526004018080602001828103825260468152602001806128a66046913960600191505060405180910390fd5b600a546114b36125f0565b6040518060e001604052808b6001600160a01b031681526020018b6001600160a01b031681526020018442038152602001600081526020016001815260200160015442018152602001898152509050600a60008154809291906001019190505550806009600084815260200190815260200160002060008201518160000160006101000a8154816001600160a01b0302191690836001600160a01b0316021790555060208201518160010160006101000a8154816001600160a01b0302191690836001600160a01b0316021790555060408201518160020155606082015181600301556080820151816004015560a0820151816005015560c08201518160060155905050600660009054906101000a90046001600160a01b03166001600160a01b031662d264cc8a846040518363ffffffff1660e01b815260040180836001600160a01b03166001600160a01b0316815260200182815260200192505050600060405180830381600087803b15801561162b57600080fd5b505af115801561163f573d6000803e3d6000fd5b50506004805460055460025460408051600160e01b6323b872dd02815233958101959095526001600160a01b039283166024860152604485019190915251911693506323b872dd925060648083019260209291908290030181600087803b1580156116a957600080fd5b505af11580156116bd573d6000803e3d6000fd5b505050506040513d60208110156116d357600080fd5b505161171357604051600160e51b62461bcd02815260040180806020018281038252602a8152602001806128ec602a913960400191505060405180910390fd5b896001600160a01b0316828a6001600160a01b03167fba98649ec7aa37c452be0ac230ba3460ee36dddc59a25ca8c0aa2d4a133144cd60015442018560c00151604051808381526020018281526020019250505060405180910390a461177b8760018c61182d565b5050505050509392505050565b600081815260096020526040812060058101546117d957604051600160e51b62461bcd02815260040180806020018281038252604b8152602001806129f5604b913960600191505060405180910390fd5b6117e68160050154611d42565b61182457604051600160e51b62461bcd02815260040180806020018281038252604781526020018061271e6047913960600191505060405180910390fd5b50600192915050565b8061183781611d48565b61187557604051600160e51b62461bcd0281526004018080602001828103825260478152602001806126a96047913960600191505060405180910390fd5b60075460408051600160e31b6310e67a9d0281526001600160a01b03848116600483015291516000939290921691638733d4e891602480820192602092909190829003018186803b1580156118c957600080fd5b505afa1580156118dd573d6000803e3d6000fd5b505050506040513d60208110156118f357600080fd5b505160075460085460408051600160e21b63188aca8f0281526001600160a01b03878116600483015260248201939093523360448201529051939450600093919092169163622b2a3c916064808301926020929190829003018186803b15801561195c57600080fd5b505afa158015611970573d6000803e3d6000fd5b505050506040513d602081101561198657600080fd5b50519050808061199e57506001600160a01b03821633145b6119dc57604051600160e51b62461bcd02815260040180806020018281038252604581526020018061294d6045913960600191505060405180910390fd5b60018560028111156119ea57fe5b1480611a01575060028560028111156119ff57fe5b145b611a3f57604051600160e51b62461bcd0281526004018080602001828103825260338152602001806128146033913960400191505060405180910390fd5b60008681526009602052604090206005810154611a9057604051600160e51b62461bcd02815260040180806020018281038252602e8152602001806126f0602e913960400191505060405180910390fd5b611a9d8160050154611d42565b15611adc57604051600160e51b62461bcd0281526004018080602001828103825260398152602001806127656039913960400191505060405180910390fd5b6001600160a01b038516600090815260078201602052604081205460ff166002811115611b0557fe5b14611b4457604051600160e51b62461bcd0281526004018080602001828103825260408152602001806126696040913960400191505060405180910390fd5b60065460408051600160e21b632ddc11930281526001600160a01b0388811660048301529151600093929092169163b770464c91602480820192602092909190829003018186803b158015611b9857600080fd5b505afa158015611bac573d6000803e3d6000fd5b505050506040513d6020811015611bc257600080fd5b50516005830154909150600090611bdf908363ffffffff6121b416565b6001600160a01b038816600090815260078501602052604090208054919250899160ff19166001836002811115611c1257fe5b02179055506001600160a01b038716600090815260088401602052604090208190556004830180546001908101909155886002811115611c4e57fe5b1415611c73576002830154611c69908263ffffffff6121fd16565b6002840155611ca2565b6002886002811115611c8157fe5b1415611ca2576003830154611c9c908263ffffffff6121fd16565b60038401555b866001600160a01b0316336001600160a01b03168a7f6e6ad7483e696b6dbe007c68057486e91f7f38a5be38c5d3d55893c9800debfc8b8560405180836002811115611cea57fe5b60ff1681526020018281526020019250505060405180910390a4505050505050505050565b6000546001600160a01b031690565b600080546001600160a01b0316611d3361225a565b6001600160a01b031614905090565b42101590565b60065460408051600160e21b632ddc11930281526001600160a01b03848116600483015291516000938493169163b770464c916024808301926020929190829003018186803b158015611d9a57600080fd5b505afa158015611dae573d6000803e3d6000fd5b505050506040513d6020811015611dc457600080fd5b505190508015611dd85760019150506107f8565b50600092915050565b611dee8c8c8c8c8c61225e565b610ae28c8888888888888080601f0160208091040260200160405190810160405280939291908181526020018383808284376000920191909152508a9250610cbc915050565b6006546001600160a01b031681565b60015481565b60075460408051600160e31b6310e67a9d0281526001600160a01b038085166004830152915184936000931691638733d4e8916024808301926020929190829003018186803b158015611e9b57600080fd5b505afa158015611eaf573d6000803e3d6000fd5b505050506040513d6020811015611ec557600080fd5b505190506001600160a01b0381163314611f1357604051600160e51b62461bcd02815260040180806020018281038252603f815260200180612867603f913960400191505060405180910390fd5b611f1c83610af0565b15611f5b57604051600160e51b62461bcd0281526004018080602001828103825260398152602001806129926039913960400191505060405180910390fd5b60065460408051600160e21b63047fec750281526001600160a01b038681166004830152915191909216916311ffb1d491602480830192600092919082900301818387803b158015611fac57600080fd5b505af1158015611fc0573d6000803e3d6000fd5b50506040516001600160a01b03861692507f81df7148ed3a9aa51bafe04f44371e89b96f47294267fbf6ab28b7aa8c87b3869150600090a2505050565b6004546001600160a01b031681565b612019858585858561225e565b5050505050565b61202d8a8a8a8a8a61225e565b61203b8a8686868686610982565b50505050505050505050565b61204f611d1e565b6120915760408051600160e51b62461bcd0281526020600482018190526024820152600080516020612847833981519152604482015290519081900360640190fd5b61209a816124b3565b50565b60006120a7611d1e565b6120e95760408051600160e51b62461bcd0281526020600482018190526024820152600080516020612847833981519152604482015290519081900360640190fd5b6040805183815290516001600160a01b038516917f7fcf532c15f0a6db0bd6d0e038bea71d30d808c7d98cb3bf7268a95bf5081b65919081900360200190a260055460408051600160e01b63f3fef3a30281526001600160a01b038681166004830152602482018690529151919092169163f3fef3a39160448083019260209291908290030181600087803b15801561218157600080fd5b505af1158015612195573d6000803e3d6000fd5b505050506040513d60208110156121ab57600080fd5b50519392505050565b60006121f683836040518060400160405280601e81526020017f536166654d6174683a207375627472616374696f6e206f766572666c6f770000815250612556565b9392505050565b6000828201838110156121f65760408051600160e51b62461bcd02815260206004820152601b60248201527f536166654d6174683a206164646974696f6e206f766572666c6f770000000000604482015290519081900360640190fd5b3390565b60065460408051600160e21b632ddc11930281526001600160a01b0388811660048301529151919092169163b770464c916024808301926020929190829003018186803b1580156122ae57600080fd5b505afa1580156122c2573d6000803e3d6000fd5b505050506040513d60208110156122d857600080fd5b50511561231957604051600160e51b62461bcd028152600401808060200182810382526039815260200180612a406039913960400191505060405180910390fd5b60065460408051600160e01b6333e6a54b0281526001600160a01b03888116600483015242602483018190529251929316916333e6a54b9160448082019260009290919082900301818387803b15801561237257600080fd5b505af1158015612386573d6000803e3d6000fd5b5050604080516001600160a01b038a1681526020810185905281517f01f33dfb55d746b1d6426e9920f20e1c956ceb30f7922cadd0607c473ab82cdc9450908190039091019150a16123db8686868686610818565b6004805460055460035460408051600160e01b6323b872dd02815233958101959095526001600160a01b0392831660248601526044850191909152519116916323b872dd9160648083019260209291908290030181600087803b15801561244157600080fd5b505af1158015612455573d6000803e3d6000fd5b505050506040513d602081101561246b57600080fd5b50516124ab57604051600160e51b62461bcd0281526004018080602001828103825260348152602001806127e06034913960400191505060405180910390fd5b505050505050565b6001600160a01b0381166124fb57604051600160e51b62461bcd0281526004018080602001828103825260268152602001806126436026913960400191505060405180910390fd5b600080546040516001600160a01b03808516939216917f8be0079c531659141344cd1fd0a4f28419497f9722a3daafe3b4186f6b6457e091a3600080546001600160a01b0319166001600160a01b0392909216919091179055565b600081848411156125e857604051600160e51b62461bcd0281526004018080602001828103825283818151815260200191508051906020019080838360005b838110156125ad578181015183820152602001612595565b50505050905090810190601f1680156125da5780820380516001836020036101000a031916815260200191505b509250505060405180910390fd5b505050900390565b6040518060e0016040528060006001600160a01b0316815260200160006001600160a01b031681526020016000815260200160008152602001600081526020016000815260200160008019168152509056fe4f776e61626c653a206e6577206f776e657220697320746865207a65726f2061646472657373457665726573743a3a7375626d6974566f7465202d204d656d6265722068617320616c726561647920766f746564206f6e2074686973206368616c6c656e6765457665726573743a3a6f6e6c794d656d6265724f776e65724f7244656c6567617465202d204d656d626572206861736e277420706173736564206170706c696564207068617365457665726573743a3a7375626d6974566f7465202d204368616c6c656e676520646f6573206e6f74206578697374457665726573743a3a6368616c6c656e676543616e42655265736f6c766564202d204368616c6c656e6765206973206e6f7420726561647920746f206265207265736f6c766564457665726573743a3a7375626d6974566f7465202d204368616c6c656e676520766f74696e6720706572696f64206861732065787069726564457665726573743a3a6f6e6c794d656d6265724f776e6572202d204d656d62657220686173206e6f742070617373656420746865206170706c696564207068617365457665726573743a3a6170706c795369676e6564496e7465726e616c202d20546f6b656e207472616e73666572206661696c6564457665726573743a3a7375626d6974566f7465202d20566f7465206d7573742062652065697468657220596573206f72204e6f4f776e61626c653a2063616c6c6572206973206e6f7420746865206f776e6572457665726573743a3a6f6e6c794d656d6265724f776e6572202d2043616c6c6572206d757374206265207468652064656c6567617465206f72206f776e6572457665726573743a3a6368616c6c656e6765202d204d656d6265722063616e2774206265206368616c6c656e676564206d756c7469706c652074696d6573206174206f6e6365457665726573743a3a6368616c6c656e6765202d20546f6b656e207472616e73666572206661696c6564457665726573743a3a7265736f6c76654368616c6c656e6765202d20526577617264696e67206368616c6c656e676572206661696c6564457665726573743a3a6f6e6c794d656d6265724f776e65724f7244656c6567617465202d2043616c6c6572206d7573742062652064656c6567617465206f72206f776e6572457665726573743a3a6d656d62657245786974202d2043616e2774206578697420647572696e67206f6e676f696e67206368616c6c656e6765457665726573743a3a6368616c6c656e6765202d204368616c6c656e676565206d757374206578697374457665726573743a3a6368616c6c656e676543616e42655265736f6c766564202d204368616c6c656e676520646f6573206e6f74206578697374206f722077617320636f6d706c65746564457665726573743a3a6170706c795369676e6564496e7465726e616c202d2054686973206d656d62657220616c726561647920657869737473a165627a7a72305820b558b9961331c604378be1c5d07ceeeaa578099500494d421160aaa920ac14400029608060405234801561001057600080fd5b506040516020806104ff8339810180604052602081101561003057600080fd5b50516100416100ae602090811b901c565b600080546001600160a01b0319166001600160a01b03928316178082556040519216917f8be0079c531659141344cd1fd0a4f28419497f9722a3daafe3b4186f6b6457e0908290a3600180546001600160a01b0319166001600160a01b03929092169190911790556100b2565b3390565b61043e806100c16000396000f3fe608060405234801561001057600080fd5b50600436106100625760003560e01c8063715018a6146100675780638da5cb5b146100715780638f32d59b14610095578063bab46259146100b1578063f2fde38b146100b9578063f3fef3a3146100df575b600080fd5b61006f61010b565b005b6100796101b1565b604080516001600160a01b039092168252519081900360200190f35b61009d6101c0565b604080519115158252519081900360200190f35b6100796101e4565b61006f600480360360208110156100cf57600080fd5b50356001600160a01b03166101f3565b61009d600480360360408110156100f557600080fd5b506001600160a01b03813516906020013561025b565b6101136101c0565b6101675760408051600160e51b62461bcd02815260206004820181905260248201527f4f776e61626c653a2063616c6c6572206973206e6f7420746865206f776e6572604482015290519081900360640190fd5b600080546040516001600160a01b03909116907f8be0079c531659141344cd1fd0a4f28419497f9722a3daafe3b4186f6b6457e0908390a3600080546001600160a01b0319169055565b6000546001600160a01b031690565b600080546001600160a01b03166101d5610345565b6001600160a01b031614905090565b6001546001600160a01b031681565b6101fb6101c0565b61024f5760408051600160e51b62461bcd02815260206004820181905260248201527f4f776e61626c653a2063616c6c6572206973206e6f7420746865206f776e6572604482015290519081900360640190fd5b61025881610349565b50565b60006102656101c0565b6102b95760408051600160e51b62461bcd02815260206004820181905260248201527f4f776e61626c653a2063616c6c6572206973206e6f7420746865206f776e6572604482015290519081900360640190fd5b60015460408051600160e01b63a9059cbb0281526001600160a01b038681166004830152602482018690529151919092169163a9059cbb9160448083019260209291908290030181600087803b15801561031257600080fd5b505af1158015610326573d6000803e3d6000fd5b505050506040513d602081101561033c57600080fd5b50519392505050565b3390565b6001600160a01b03811661039157604051600160e51b62461bcd0281526004018080602001828103825260268152602001806103ed6026913960400191505060405180910390fd5b600080546040516001600160a01b03808516939216917f8be0079c531659141344cd1fd0a4f28419497f9722a3daafe3b4186f6b6457e091a3600080546001600160a01b0319166001600160a01b039290921691909117905556fe4f776e61626c653a206e6577206f776e657220697320746865207a65726f2061646472657373a165627a7a72305820b075dd204ebd88fe9e01840e5de4f7899c2c34cced6299c2366e9cc2e5cc452e0029608060405234801561001057600080fd5b5060405160408061085d8339810180604052604081101561003057600080fd5b508051602091820151909161004890610099811b901c565b600080546001600160a01b0319166001600160a01b03928316178082556040519216917f8be0079c531659141344cd1fd0a4f28419497f9722a3daafe3b4186f6b6457e0908290a36002555061009d565b3390565b6107b1806100ac6000396000f3fe608060405234801561001057600080fd5b50600436106100ce5760003560e01c8063422d17a91161008c5780638f32d59b116100665780638f32d59b1461023f578063b770464c1461025b578063c1aadb4d14610281578063f2fde38b14610289576100ce565b8063422d17a9146101e7578063715018a6146102135780638da5cb5b1461021b576100ce565b8062d264cc146100d35780630240a7cd1461010157806308ae4b0c1461011e57806311ffb1d41461015d5780632b94ea971461018357806333e6a54b146101bb575b600080fd5b6100ff600480360360408110156100e957600080fd5b506001600160a01b0381351690602001356102af565b005b6100ff6004803603602081101561011757600080fd5b5035610315565b6101446004803603602081101561013457600080fd5b50356001600160a01b0316610364565b6040805192835260208301919091528051918290030190f35b6100ff6004803603602081101561017357600080fd5b50356001600160a01b031661037d565b6101a96004803603602081101561019957600080fd5b50356001600160a01b03166103e7565b60408051918252519081900360200190f35b6100ff600480360360408110156101d157600080fd5b506001600160a01b038135169060200135610427565b6100ff600480360360408110156101fd57600080fd5b506001600160a01b0381351690602001356104b2565b6100ff61051c565b6102236105b0565b604080516001600160a01b039092168252519081900360200190f35b6102476105bf565b604080519115158252519081900360200190f35b6101a96004803603602081101561027157600080fd5b50356001600160a01b03166105e3565b6101a9610622565b6100ff6004803603602081101561029f57600080fd5b50356001600160a01b0316610628565b6102b76105bf565b6102f95760408051600160e51b62461bcd0281526020600482018190526024820152600080516020610766833981519152604482015290519081900360640190fd5b6001600160a01b03909116600090815260016020526040902055565b61031d6105bf565b61035f5760408051600160e51b62461bcd0281526020600482018190526024820152600080516020610766833981519152604482015290519081900360640190fd5b600255565b6001602081905260009182526040909120805491015482565b6103856105bf565b6103c75760408051600160e51b62461bcd0281526020600482018190526024820152600080516020610766833981519152604482015290519081900360640190fd5b6001600160a01b0316600090815260016020819052604082208281550155565b60006103f1610725565b50506001600160a01b03166000908152600160208181526040928390208351808501909452805480855292015492019190915290565b61042f6105bf565b6104715760408051600160e51b62461bcd0281526020600482018190526024820152600080516020610766833981519152604482015290519081900360640190fd5b610479610725565b50604080518082018252600080825260208083019485526001600160a01b03909516815260019485905291909120905181559051910155565b6104ba6105bf565b6104fc5760408051600160e51b62461bcd0281526020600482018190526024820152600080516020610766833981519152604482015290519081900360640190fd5b6001600160a01b0390911660009081526001602081905260409091200155565b6105246105bf565b6105665760408051600160e51b62461bcd0281526020600482018190526024820152600080516020610766833981519152604482015290519081900360640190fd5b600080546040516001600160a01b03909116907f8be0079c531659141344cd1fd0a4f28419497f9722a3daafe3b4186f6b6457e0908390a3600080546001600160a01b0319169055565b6000546001600160a01b031690565b600080546001600160a01b03166105d461067e565b6001600160a01b031614905090565b60006105ed610725565b50506001600160a01b031660009081526001602081815260409283902083518085019094528054845290910154910181905290565b60025481565b6106306105bf565b6106725760408051600160e51b62461bcd0281526020600482018190526024820152600080516020610766833981519152604482015290519081900360640190fd5b61067b81610682565b50565b3390565b6001600160a01b0381166106ca57604051600160e51b62461bcd0281526004018080602001828103825260268152602001806107406026913960400191505060405180910390fd5b600080546040516001600160a01b03808516939216917f8be0079c531659141344cd1fd0a4f28419497f9722a3daafe3b4186f6b6457e091a3600080546001600160a01b0319166001600160a01b0392909216919091179055565b60405180604001604052806000815260200160008152509056fe4f776e61626c653a206e6577206f776e657220697320746865207a65726f20616464726573734f776e61626c653a2063616c6c6572206973206e6f7420746865206f776e6572a165627a7a72305820abe7477b6beec5911b4140f706e5f8c2965fa464ac8d480be37b740318c7826d0029457665726573743a3a636f6e7374727563746f72202d206f776e65722063616e6e6f742062652030457665726573743a3a636f6e7374727563746f72202d205f766f74696e67506572696f644475726174696f6e2063616e742062652030457665726573743a3a636f6e7374727563746f72202d205f617070726f766564546f6b656e2063616e6e6f742062652030",
  "source": "/*\n Everest is a DAO that is designed to curate a Registry of members. Specifically\n it is a list of crypto projects.\n\n This storage of the list is in Registry.sol and in the EthereumDIDRegistry (created by uport).\n\n The DAO is inspired by the Moloch DAO smart contracts https://github.com/MolochVentures/moloch\n The DAO allows anoyone to apply to the list.\n It also has reputation based voting for challenges based on how long a project has been a member.\n*/\npragma solidity ^0.5.8;\n\nimport \"./ReserveBank.sol\";\nimport \"./Registry.sol\";\nimport \"./MemberStruct.sol\";\nimport \"./EthereumDIDRegistry.sol\";\n\ncontract Everest is MemberStruct, Ownable {\n    using SafeMath for uint256;\n\n    /***************\n    GLOBAL CONSTANTS\n    ***************/\n    // Voting period length for a challenge (in unix seconds)\n    uint256 public votingPeriodDuration;\n    // Deposit that must be made in order to submit a challenge. Returned if challenge is won\n    uint256 public challengeDeposit;\n    // Application fee to become a member\n    uint256 public applicationFee;\n\n    // Approved token contract reference (this version = DAI)\n    IERC20 public approvedToken;\n    // Guild bank contract reference\n    ReserveBank public reserveBank;\n    // Member Registry contract reference\n    Registry public memberRegistry;\n    // ERC-1056 contract reference\n    EthereumDIDRegistry public erc1056Registry;\n\n    // We pass in the bytes representation of the string 'everest'\n    // bytes(\"everest\") = 0x65766572657374. Then add 50 zeros to the end. The bytes32 value\n    // is passed to the ERC-1056 registry, and hashed within the delegate functions\n    bytes32 delegateType = 0x6576657265737400000000000000000000000000000000000000000000000000;\n\n    /******\n    EVENTS\n    ******/\n    // Event data on delegates, owner, and offChainData are emitted from the ERC-1056 registry\n    // We rely on ApplicationMade and MemberExited to distingushing between identities on\n    // ERC-1056 that are part of everest and aren't\n    event ApplicationMade(address member, uint256 applicationTime);\n    event MemberExited(address indexed member);\n    event CharterUpdated(bytes32 indexed data);\n    event Withdrawal(address indexed receiver, uint256 amount);\n\n    event EverestDeployed(\n        address owner,\n        address approvedToken,\n        uint256 votingPeriodDuration,\n        uint256 challengeDeposit,\n        uint256 applicationFee,\n        address reserveBank,\n        address registry,\n        bytes32 charter\n    );\n\n    event MemberChallenged(\n        address indexed member,\n        uint256 indexed challengeID,\n        address indexed challenger,\n        uint256 challengeEndTime,\n        bytes32 details\n    );\n\n    event SubmitVote(\n        uint256 indexed challengeID,\n        address indexed submitter, // Same as memberAddress if member voted themselves\n        address indexed memberOwner,\n        VoteChoice voteChoice,\n        uint256 voteWeight\n    );\n\n    event ChallengeFailed(\n        address indexed member,\n        uint256 indexed challengeID,\n        uint256 yesVotes,\n        uint256 noVotes\n    );\n    event ChallengeSucceeded(\n        address indexed member,\n        uint256 indexed challengeID,\n        uint256 yesVotes,\n        uint256 noVotes\n    );\n\n    /****\n    STATE\n    *****/\n\n    enum VoteChoice {\n        Null, // Same as not voting at all (i.e. 0 value)\n        Yes,\n        No\n    }\n\n    // Note that challenge deposit and token held constant in global variable\n    struct Challenge {\n        address challenger;         // The member who submitted the challenge\n        address member;             // The member\n        uint256 yesVotes;           // The total number of YES votes for this challenge\n        uint256 noVotes;            // The total number of NO votes for this challenge\n        uint256 voterCount;         // Total count of voters participating in the challenge\n        uint256 endTime;            // Ending time of the challenge\n        bytes32 details;            // Challenge details - an IPFS hash, without Qm\n        mapping (address => VoteChoice) voteChoiceByMember;     // The choice by each member\n        mapping (address => uint256) voteWeightByMember;        // The vote weight of each member\n    }\n\n    mapping (uint256 => Challenge) challenges;\n    // Challenge counter for challenge IDs. Starts at 1 to prevent confusion with zeroed values\n    uint256 challengeCounter = 1;\n\n    /********\n    MODIFIERS\n    ********/\n\n    /**\n    @dev                Modifer that allows a function to be called by a real member.\n                        Either the member or a delegate can call\n    @param _member      Member interacting with everest\n    */\n    modifier onlyMemberOwnerOrDelegate(address _member) {\n        require(\n            isMember(_member),\n            \"Everest::onlyMemberOwnerOrDelegate - Member hasn't passed applied phase\"\n        );\n        address owner = erc1056Registry.identityOwner(_member);\n        bool validDelegate = erc1056Registry.validDelegate(_member, delegateType, msg.sender);\n        require(\n            validDelegate || owner == msg.sender,\n            \"Everest::onlyMemberOwnerOrDelegate - Caller must be delegate or owner\"\n        );\n        _;\n    }\n\n    /**\n    @dev                Modifer that allows a function to be called by a real member.\n                        Only the member can call (no delegate permissions)\n    @param _member      Member interacting with everest\n    */\n    modifier onlyMemberOwner(address _member) {\n        require(\n            isMember(_member),\n            \"Everest::onlyMemberOwner - Member has not passed the applied phase\"\n        );\n        address owner = erc1056Registry.identityOwner(_member);\n        require(\n            owner == msg.sender,\n            \"Everest::onlyMemberOwner - Caller must be the delegate or owner\"\n        );\n        _;\n    }\n\n    /**\n    @dev                Modifer that allows a function to be called by an applicant that hasn't\n                        been accepted as a member yet\n    @param _member      Member interacting with everest\n    */\n    modifier onlyAppliedMemberOwner(address _member) {\n        address owner = erc1056Registry.identityOwner(_member);\n        require(\n            owner == msg.sender,\n            \"Everest::onlyMemberOwner - Caller must be the delegate or owner\"\n        );\n        _;\n    }\n\n    /********\n    FUNCTIONS\n    ********/\n    constructor(\n        address _owner,\n        address _approvedToken,\n        uint256 _votingPeriodDuration,\n        uint256 _challengeDeposit,\n        uint256 _applicationFee,\n        bytes32 _charter\n    ) public {\n        require(_owner != address(0), \"Everest::constructor - owner cannot be 0\");\n        require(_approvedToken != address(0), \"Everest::constructor - _approvedToken cannot be 0\");\n        require(\n            _votingPeriodDuration > 0,\n            \"Everest::constructor - _votingPeriodDuration cant be 0\"\n        );\n\n        approvedToken = IERC20(_approvedToken);\n        // These contracts get created, but are not recorded in ganache or truffle\n        // They can be found on internal transactions on etherscan for any testnet or mainnet launch\n        reserveBank = new ReserveBank(_approvedToken);\n        memberRegistry = new Registry(address(this), _charter);\n\n        votingPeriodDuration = _votingPeriodDuration;\n        challengeDeposit = _challengeDeposit;\n        applicationFee = _applicationFee;\n\n        emit EverestDeployed(\n            _owner,\n            _approvedToken,\n            _votingPeriodDuration,\n            _challengeDeposit,\n            _applicationFee,\n            address(reserveBank),\n            address(memberRegistry),\n            _charter\n        );\n    }\n\n    /*******************\n    ADD MEMBER FUNCTIONS\n    *******************/\n\n    /**\n    @dev                            Allows a user to apply to add a member to the Registry\n    @param _newMember               The address of the new member\n    @param _sigV                    V piece of the member signature\n    @param _sigR                    R piece of the member signature\n    @param _sigS                    S piece of the member signature\n    @param _owner                   Owner of the member application\n    */\n    function applySignedInternal(\n        address _newMember,\n        uint8 _sigV,\n        bytes32 _sigR,\n        bytes32 _sigS,\n        address _owner\n    ) internal {\n        require(\n            memberRegistry.getMembershipStartTime(_newMember) == 0,\n            \"Everest::applySignedInternal - This member already exists\"\n        );\n        /* solium-disable-next-line security/no-block-members*/\n        uint256 membershipTime = now;\n        memberRegistry.setMember(_newMember, membershipTime);\n\n        // This event must be emitted before changeOwnerSigned() is called. This creates an identity\n        // in Everest, and from that point on, ethereumDIDRegistry events are relevant to this\n        // identity\n        emit ApplicationMade(\n            _newMember,\n            membershipTime\n        );\n\n        changeOwnerSigned(_newMember, _sigV, _sigR, _sigS, _owner);\n\n        // Transfers tokens from user to the Reserve Bank\n        require(\n            approvedToken.transferFrom(msg.sender, address(reserveBank), applicationFee),\n            \"Everest::applySignedInternal - Token transfer failed\"\n        );\n\n\n    }\n\n    /**\n    @dev                            Allows a user to apply to add a member to the Registry\n    @param _newMember               The address of the new member\n    @param _sigV                    V piece of the member signature\n    @param _sigR                    R piece of the member signature\n    @param _sigS                    S piece of the member signature\n    @param _owner                   Owner of the member application\n    */\n    function applySigned(\n        address _newMember,\n        uint8 _sigV,\n        bytes32 _sigR,\n        bytes32 _sigS,\n        address _owner\n    ) external {\n        applySignedInternal(_newMember, _sigV, _sigR, _sigS, _owner);\n    }\n\n    /**\n    @dev                            Allows a user to apply to add a member to the Registry and add\n                                    a delegate to the DID registry\n    @param _newMember               The address of the new member\n    @param _applySigV               V piece of the apply signature\n    @param _applySigR               R piece of the apply signature\n    @param _applySigS               S piece of the apply signature\n    @param _owner                   Owner of the member application\n    @param _delegateSigV            V piece of the delegate signature\n    @param _delegateSigR            R piece of the delegate signature\n    @param _delegateSigS            S piece of the delegate signature\n    @param _delegate                Delegate designated for the member\n    @param _delegateValidity        Time delegate is valid\n    */\n    function applySignedWithDelegate(\n        address _newMember,\n        uint8 _applySigV,\n        bytes32 _applySigR,\n        bytes32 _applySigS,\n        address _owner,\n        uint8 _delegateSigV,\n        bytes32 _delegateSigR,\n        bytes32 _delegateSigS,\n        address _delegate,\n        uint256 _delegateValidity\n    ) external {\n        applySignedInternal(_newMember, _applySigV, _applySigR, _applySigS, _owner);\n        addDelegateSigned(\n            _newMember,\n            _delegateSigV,\n            _delegateSigR,\n            _delegateSigS,\n            _delegate,\n            _delegateValidity\n        );\n    }\n\n    /**\n    @dev                            Allows a user to apply to add a member to the Registry and\n                                    add off chain data to the DID registry\n    @param _newMember               The address of the new member\n    @param _applySigV               V piece of the apply signature\n    @param _applySigR               R piece of the apply signature\n    @param _applySigS               S piece of the apply signature\n    @param _owner                   Owner of the member application\n    @param _attributeSigV           V piece of the attribute signature\n    @param _attributeSigR           R piece of the attribute signature\n    @param _attributeSigS           S piece of the attribute signature\n    @param _offChainDataName        Attribute name. Should be a string less than 32 bytes, converted\n                                    to bytes32. example: 'ProjectData' = 0x50726f6a65637444617461,\n                                    with zeros appended to make it 32 bytes. (add 42 zeros)\n    @param _offChainDataValue       Attribute data stored offchain (such as IPFS)\n    @param _offChainDataValidity    Length of time attribute data is valid\n    */\n    function applySignedWithAttribute(\n        address _newMember,\n        uint8 _applySigV,\n        bytes32 _applySigR,\n        bytes32 _applySigS,\n        address _owner,\n        uint8 _attributeSigV,\n        bytes32 _attributeSigR,\n        bytes32 _attributeSigS,\n        bytes32 _offChainDataName,\n        bytes calldata _offChainDataValue,\n        uint256 _offChainDataValidity\n    ) external {\n        applySignedInternal(_newMember, _applySigV, _applySigR, _applySigS, _owner);\n        editOffChainDataSigned(\n            _newMember,\n            _attributeSigV,\n            _attributeSigR,\n            _attributeSigS,\n            _offChainDataName,\n            _offChainDataValue,\n            _offChainDataValidity\n        );\n    }\n\n    /**\n    @dev                Allow a member to voluntarily leave. Note that this does not\n                        reset ownership or delegates in the ERC-1056 registry. This must be done by\n                        calling the respective functions in the registry that handle those resets.\n    @param _member      Member exiting the list\n    */\n    function memberExit(\n        address _member\n    ) external onlyAppliedMemberOwner(_member) {\n        require(\n            !memberChallengeExists(_member),\n            \"Everest::memberExit - Can't exit during ongoing challenge\"\n        );\n        memberRegistry.deleteMember(_member);\n        emit MemberExited(_member);\n    }\n\n    /******************\n    EDIT MEMBER FUNCTIONS\n    ******************/\n\n    /**\n    @dev                Allows a member owner to be edited. Only owner can call\n    @param _newOwner    The new owner of the membership\n    @param _member      The address of the member\n    @param _sigV        V piece of the member signature\n    @param _sigR        R piece of the member signature\n    @param _sigS        S piece of the member signature\n     */\n    function changeOwnerSigned(\n        address _member,\n        uint8 _sigV,\n        bytes32 _sigR,\n        bytes32 _sigS,\n        address _newOwner\n    ) public onlyAppliedMemberOwner(_member) {\n        erc1056Registry.changeOwnerSigned(_member, _sigV, _sigR, _sigS, _newOwner);\n    }\n\n    /**\n    @dev                            Allows offChainData to be edited by the owner or delegate.\n                                    To revoke an attribute, just pass a validity of 0. There is no\n                                    need to wrap the revokeAttribute function in ERC-1056.\n    @param _member                  The address of the member\n    @param _sigV                    V piece of the member signature\n    @param _sigR                    R piece of the member signature\n    @param _sigS                    S piece of the member signature\n    @param _offChainDataName        Attribute name. Should be a string less than 32 bytes, converted\n                                    to bytes32. example: 'ProjectData' = 0x50726f6a65637444617461\n                                    with zeros appended to make it 32 bytes\n    @param _offChainDataValue       Attribute data stored offchain (such as IPFS)\n    @param _offChainDataValidity    Length of time attribute data is valid\n     */\n    function editOffChainDataSigned(\n        address _member,\n        uint8 _sigV,\n        bytes32 _sigR,\n        bytes32 _sigS,\n        bytes32 _offChainDataName,\n        bytes memory _offChainDataValue,\n        uint256 _offChainDataValidity\n    ) public onlyAppliedMemberOwner(_member) {\n        erc1056Registry.setAttributeSigned(\n            _member,\n            _sigV,\n            _sigR,\n            _sigS,\n            _offChainDataName,\n            _offChainDataValue,\n            _offChainDataValidity\n        );\n    }\n\n    /**\n    @dev                        Allows a delegate to be added (there can be multiple delegates)\n    @param _member              The address of the member\n    @param _sigV                V piece of the member signature\n    @param _sigR                R piece of the member signature\n    @param _sigS                S piece of the member signature\n    @param _newDelegate         The new delegate\n    @param _delegateValidity    The time the new delegate is valid\n     */\n    function addDelegateSigned(\n        address _member,\n        uint8 _sigV,\n        bytes32 _sigR,\n        bytes32 _sigS,\n        address _newDelegate,\n        uint256 _delegateValidity\n    ) public onlyAppliedMemberOwner(_member) {\n        erc1056Registry.addDelegateSigned(\n            _member,\n            _sigV,\n            _sigR,\n            _sigS,\n            delegateType,\n            _newDelegate,\n            _delegateValidity\n        );\n    }\n\n    /**\n    @dev                Allows a member delegate to be revoked\n    @param _member      The address of the member\n    @param _sigV        V piece of the member signature\n    @param _sigR        R piece of the member signature\n    @param _sigS        S piece of the member signature\n    @param _delegate    The delegate being removed\n     */\n    function revokeDelegateSigned(\n        address _delegate,\n        address _member,\n        uint8 _sigV,\n        bytes32 _sigR,\n        bytes32 _sigS\n    ) external onlyAppliedMemberOwner(_member) {\n        erc1056Registry.revokeDelegateSigned(\n            _member,\n            _sigV,\n            _sigR,\n            _sigS,\n            delegateType,\n            _delegate\n        );\n    }\n\n    /******************\n    CHALLENGE FUNCTIONS\n    ******************/\n\n    /**\n    @dev                        Starts a challenge on a member. Challenger deposits a fee.\n    @param _challengingMember   The memberName of the member who is challenging another member\n    @param _challengedMember    The memberName of the member being challenged\n    @param _details             Extra details relevant to the challenge. (IPFS hash without Qm)\n    */\n    function challenge(\n        address _challengingMember,\n        address _challengedMember,\n        bytes32 _details\n    ) external onlyMemberOwner(_challengingMember) returns (uint256 challengeID) {\n        uint256 challengeeMemberTime = memberRegistry.getMembershipStartTime(_challengedMember);\n        require (challengeeMemberTime > 0, \"Everest::challenge - Challengee must exist\");\n        uint256 challengerMemberTime = memberRegistry.getMembershipStartTime(_challengingMember);\n        require(\n            !memberChallengeExists(_challengedMember),\n            \"Everest::challenge - Member can't be challenged multiple times at once\"\n        );\n\n        uint256 newChallengeID = challengeCounter;\n        Challenge memory newChallenge = Challenge({\n            challenger: _challengingMember,\n            member: _challengingMember,\n            /* solium-disable-next-line security/no-block-members*/\n            yesVotes: now - challengerMemberTime,\n            noVotes: 0,\n            voterCount: 1,\n            /* solium-disable-next-line security/no-block-members*/\n            endTime: now + votingPeriodDuration,\n            details: _details\n        });\n        challengeCounter++;\n\n        challenges[newChallengeID] = newChallenge;\n\n        // Updates member to store most recent challenge\n        memberRegistry.editChallengeID(_challengedMember, newChallengeID);\n\n        // Takes tokens from challenger\n        require(\n            approvedToken.transferFrom(msg.sender, address(reserveBank), challengeDeposit),\n            \"Everest::challenge - Token transfer failed\"\n        );\n\n        emit MemberChallenged(\n            _challengedMember,\n            newChallengeID,\n            _challengingMember,\n            /* solium-disable-next-line security/no-block-members*/\n            now + votingPeriodDuration,\n            newChallenge.details\n        );\n\n        // Insert challengers vote into the challenge\n        submitVote(challengeID, VoteChoice.Yes, _challengingMember);\n        return challengeID;\n    }\n\n    /**\n    @dev                    Submit a vote. Owner or delegate can submit\n    @param _challengeID     The challenge ID\n    @param _voteChoice      The vote choice (yes or no)\n    @param _voter           The member who is voting\n    */\n    function submitVote(\n        uint256 _challengeID,\n        VoteChoice _voteChoice,\n        address _voter\n    ) public onlyMemberOwnerOrDelegate(_voter) {\n        require(\n            _voteChoice == VoteChoice.Yes || _voteChoice == VoteChoice.No,\n            \"Everest::submitVote - Vote must be either Yes or No\"\n        );\n\n        Challenge storage storedChallenge = challenges[_challengeID];\n        require(\n            storedChallenge.endTime > 0,\n            \"Everest::submitVote - Challenge does not exist\"\n        );\n        require(\n            !hasVotingPeriodExpired(storedChallenge.endTime),\n            \"Everest::submitVote - Challenge voting period has expired\"\n        );\n        require(\n            storedChallenge.voteChoiceByMember[_voter] == VoteChoice.Null,\n            \"Everest::submitVote - Member has already voted on this challenge\"\n        );\n        uint256 memberStartTime = memberRegistry.getMembershipStartTime(_voter);\n        // The lower the member start time (i.e. the older the member) the more vote weight\n        uint256 voteWeight = storedChallenge.endTime.sub(memberStartTime);\n\n        // Store vote (can't be msg.sender because delegate can be voting)\n        storedChallenge.voteChoiceByMember[_voter] = _voteChoice;\n        storedChallenge.voteWeightByMember[_voter] = voteWeight;\n        storedChallenge.voterCount += 1;\n\n        // Count vote\n        if (_voteChoice == VoteChoice.Yes) {\n            storedChallenge.yesVotes = storedChallenge.yesVotes.add(voteWeight);\n        } else if (_voteChoice == VoteChoice.No) {\n            storedChallenge.noVotes = storedChallenge.noVotes.add(voteWeight);\n        }\n\n        emit SubmitVote(_challengeID, msg.sender, _voter, _voteChoice, voteWeight);\n    }\n\n    /**\n    @dev                    Resolve a challenge. Anyone can call this function. A successful\n                            challenge means the member is removed.\n    @param _challengeID     The challenge ID\n    */\n    function resolveChallenge(uint256 _challengeID) public {\n        challengeCanBeResolved(_challengeID);\n        Challenge storage storedChallenge = challenges[_challengeID];\n\n        bool didPass = storedChallenge.yesVotes > storedChallenge.noVotes;\n        bool moreThanOneVote = storedChallenge.voterCount > 1;\n        if (didPass && moreThanOneVote) {\n\n            // Transfer challenge deposit to challenger for winning challenge\n            require(\n                withdraw(storedChallenge.challenger, challengeDeposit),\n                \"Everest::resolveChallenge - Rewarding challenger failed\"\n            );\n            memberRegistry.deleteMember(storedChallenge.member);\n            emit ChallengeSucceeded(\n                storedChallenge.member,\n                _challengeID,\n                storedChallenge.yesVotes,\n                storedChallenge.noVotes\n            );\n        } else {\n            // Transfer challenge deposit to challengee. This keeps the token balance the same\n            // whether or not the challenge fails.\n            require(\n                withdraw(storedChallenge.challenger, challengeDeposit),\n                \"Everest::resolveChallenge - Rewarding challenger failed\"\n            );\n            // Remove challenge ID from registry\n            memberRegistry.editChallengeID(storedChallenge.member, 0);\n            emit ChallengeFailed(\n                storedChallenge.member,\n                _challengeID,\n                storedChallenge.yesVotes,\n                storedChallenge.noVotes\n            );\n        }\n\n        // Delete challenge from Everest in either case\n        delete challenges[_challengeID];\n    }\n\n    /***************\n    EVEREST OWNER FUNCTIONS\n    ***************/\n\n    /**\n    @dev                Allows the owner of Everest to update the charter in the memberRegistry\n    @param _newCharter  The data that links to the new charter offchain\n    */\n    function updateCharter(bytes32 _newCharter) external onlyOwner returns (bool) {\n        emit CharterUpdated(_newCharter);\n        memberRegistry.updateCharter(_newCharter);\n        return true;\n    }\n\n    /**\n    @dev                Allows the owner of everest to withdraw funds from the reserve bank\n                        in the case of an emergency, or an upgrade from V1. With plans\n                        to decentralize this functionality in the future.\n    @param _receiver    The address receiving funds\n    @param _amount      The amount of funds being withdrawn\n    */\n    function withdraw(address _receiver, uint256 _amount) public onlyOwner returns (bool) {\n        emit Withdrawal(_receiver, _amount);\n        return reserveBank.withdraw(_receiver, _amount);\n    }\n\n    /***************\n    GETTER FUNCTIONS\n    ***************/\n\n    /**\n    @dev                    Returns true if a challenge vote period has finished\n    @param _endTime  The starting period of the challenge\n    */\n    function hasVotingPeriodExpired(uint256 _endTime) public view returns (bool) {\n        /* solium-disable-next-line security/no-block-members*/\n        return now >= _endTime;\n    }\n\n    /**\n    @dev            Returns true if the address is a member\n    @param _member  The member name of the member whose status is to be examined\n    */\n    function isMember(address _member) public view returns (bool){\n        uint256 startTime = memberRegistry.getMembershipStartTime(_member);\n        /* solium-disable-next-line security/no-block-members*/\n        if (startTime > 0){\n            return true;\n        }\n        return false;\n    }\n\n    /**\n    @dev            Returns true if the member has an unresolved challenge. False if the challenge\n                    does not exist.\n    @param _member  The member that is being checked for a challenge.\n    */\n    function memberChallengeExists(address _member) public view returns (bool) {\n        uint256 challengeID = memberRegistry.getChallengeID(_member);\n        return (challengeID > 0);\n    }\n\n    /**\n    @dev                Determines whether voting has concluded in a challenge for a given\n                        member. Throws if challenge can't be resolved\n    @param _challengeID The challenge ID\n    */\n    function challengeCanBeResolved(uint256 _challengeID) public view returns (bool) {\n        Challenge storage storedChallenge = challenges[_challengeID];\n        require(\n            challenges[_challengeID].endTime > 0,\n            \"Everest::challengeCanBeResolved - Challenge does not exist or was completed\"\n        );\n        require(\n            hasVotingPeriodExpired(storedChallenge.endTime),\n            \"Everest::challengeCanBeResolved - Challenge is not ready to be resolved\"\n        );\n        return true;\n    }\n}\n",
  "sourcePath": "/Users/davidkajpust/coding-no-icloud-backup/thegraph/dave/everest/contracts/contracts/Everest.sol",
  "compiler": {
    "name": "solc",
    "version": "0.5.8+commit.23d335f2.Emscripten.clang"
  },
  "schemaVersion": "3.0.17",
  "updatedAt": "2020-01-13T22:19:00.766Z",
  "devdoc": {
    "methods": {
      "addDelegateSigned(address,uint8,bytes32,bytes32,address,uint256)": {
        "details": "Allows a delegate to be added (there can be multiple delegates)",
        "params": {
          "_delegateValidity": "The time the new delegate is valid",
          "_member": "The address of the member",
          "_newDelegate": "The new delegate",
          "_sigR": "R piece of the member signature",
          "_sigS": "S piece of the member signature",
          "_sigV": "V piece of the member signature"
        }
      },
      "applySigned(address,uint8,bytes32,bytes32,address)": {
        "details": "Allows a user to apply to add a member to the Registry",
        "params": {
          "_newMember": "The address of the new member",
          "_owner": "Owner of the member application",
          "_sigR": "R piece of the member signature",
          "_sigS": "S piece of the member signature",
          "_sigV": "V piece of the member signature"
        }
      },
      "applySignedWithAttribute(address,uint8,bytes32,bytes32,address,uint8,bytes32,bytes32,bytes32,bytes,uint256)": {
        "details": "Allows a user to apply to add a member to the Registry and add off chain data to the DID registry",
        "params": {
          "_applySigR": "R piece of the apply signature",
          "_applySigS": "S piece of the apply signature",
          "_applySigV": "V piece of the apply signature",
          "_attributeSigR": "R piece of the attribute signature",
          "_attributeSigS": "S piece of the attribute signature",
          "_attributeSigV": "V piece of the attribute signature",
          "_newMember": "The address of the new member",
          "_offChainDataName": "Attribute name. Should be a string less than 32 bytes, converted to bytes32. example: 'ProjectData' = 0x50726f6a65637444617461, with zeros appended to make it 32 bytes. (add 42 zeros)",
          "_offChainDataValidity": "Length of time attribute data is valid",
          "_offChainDataValue": "Attribute data stored offchain (such as IPFS)",
          "_owner": "Owner of the member application"
        }
      },
      "applySignedWithDelegate(address,uint8,bytes32,bytes32,address,uint8,bytes32,bytes32,address,uint256)": {
        "details": "Allows a user to apply to add a member to the Registry and add a delegate to the DID registry",
        "params": {
          "_applySigR": "R piece of the apply signature",
          "_applySigS": "S piece of the apply signature",
          "_applySigV": "V piece of the apply signature",
          "_delegate": "Delegate designated for the member",
          "_delegateSigR": "R piece of the delegate signature",
          "_delegateSigS": "S piece of the delegate signature",
          "_delegateSigV": "V piece of the delegate signature",
          "_delegateValidity": "Time delegate is valid",
          "_newMember": "The address of the new member",
          "_owner": "Owner of the member application"
        }
      },
      "challenge(address,address,bytes32)": {
        "details": "Starts a challenge on a member. Challenger deposits a fee.",
        "params": {
          "_challengedMember": "The memberName of the member being challenged",
          "_challengingMember": "The memberName of the member who is challenging another member",
          "_details": "Extra details relevant to the challenge. (IPFS hash without Qm)"
        }
      },
      "challengeCanBeResolved(uint256)": {
        "details": "Determines whether voting has concluded in a challenge for a given member. Throws if challenge can't be resolved",
        "params": {
          "_challengeID": "The challenge ID"
        }
      },
      "changeOwnerSigned(address,uint8,bytes32,bytes32,address)": {
        "details": "Allows a member owner to be edited. Only owner can call",
        "params": {
          "_member": "The address of the member",
          "_newOwner": "The new owner of the membership",
          "_sigR": "R piece of the member signature",
          "_sigS": "S piece of the member signature",
          "_sigV": "V piece of the member signature"
        }
      },
      "editOffChainDataSigned(address,uint8,bytes32,bytes32,bytes32,bytes,uint256)": {
        "details": "Allows offChainData to be edited by the owner or delegate. To revoke an attribute, just pass a validity of 0. There is no need to wrap the revokeAttribute function in ERC-1056.",
        "params": {
          "_member": "The address of the member",
          "_offChainDataName": "Attribute name. Should be a string less than 32 bytes, converted to bytes32. example: 'ProjectData' = 0x50726f6a65637444617461 with zeros appended to make it 32 bytes",
          "_offChainDataValidity": "Length of time attribute data is valid",
          "_offChainDataValue": "Attribute data stored offchain (such as IPFS)",
          "_sigR": "R piece of the member signature",
          "_sigS": "S piece of the member signature",
          "_sigV": "V piece of the member signature"
        }
      },
      "hasVotingPeriodExpired(uint256)": {
        "details": "Returns true if a challenge vote period has finished",
        "params": {
          "_endTime": "The starting period of the challenge"
        }
      },
      "isMember(address)": {
        "details": "Returns true if the address is a member",
        "params": {
          "_member": "The member name of the member whose status is to be examined"
        }
      },
      "isOwner()": {
        "details": "Returns true if the caller is the current owner."
      },
      "memberChallengeExists(address)": {
        "details": "Returns true if the member has an unresolved challenge. False if the challenge does not exist.",
        "params": {
          "_member": "The member that is being checked for a challenge."
        }
      },
      "memberExit(address)": {
        "details": "Allow a member to voluntarily leave. Note that this does not reset ownership or delegates in the ERC-1056 registry. This must be done by calling the respective functions in the registry that handle those resets.",
        "params": {
          "_member": "Member exiting the list"
        }
      },
      "owner()": {
        "details": "Returns the address of the current owner."
      },
      "renounceOwnership()": {
        "details": "Leaves the contract without owner. It will not be possible to call `onlyOwner` functions anymore. Can only be called by the current owner.     * NOTE: Renouncing ownership will leave the contract without an owner, thereby removing any functionality that is only available to the owner."
      },
      "resolveChallenge(uint256)": {
        "details": "Resolve a challenge. Anyone can call this function. A successful challenge means the member is removed.",
        "params": {
          "_challengeID": "The challenge ID"
        }
      },
      "revokeDelegateSigned(address,address,uint8,bytes32,bytes32)": {
        "details": "Allows a member delegate to be revoked",
        "params": {
          "_delegate": "The delegate being removed",
          "_member": "The address of the member",
          "_sigR": "R piece of the member signature",
          "_sigS": "S piece of the member signature",
          "_sigV": "V piece of the member signature"
        }
      },
      "submitVote(uint256,uint8,address)": {
        "details": "Submit a vote. Owner or delegate can submit",
        "params": {
          "_challengeID": "The challenge ID",
          "_voteChoice": "The vote choice (yes or no)",
          "_voter": "The member who is voting"
        }
      },
      "transferOwnership(address)": {
        "details": "Transfers ownership of the contract to a new account (`newOwner`). Can only be called by the current owner."
      },
      "updateCharter(bytes32)": {
        "details": "Allows the owner of Everest to update the charter in the memberRegistry",
        "params": {
          "_newCharter": "The data that links to the new charter offchain"
        }
      },
      "withdraw(address,uint256)": {
        "details": "Allows the owner of everest to withdraw funds from the reserve bank in the case of an emergency, or an upgrade from V1. With plans to decentralize this functionality in the future.",
        "params": {
          "_amount": "The amount of funds being withdrawn",
          "_receiver": "The address receiving funds"
        }
      }
    }
  },
  "userdoc": {
    "methods": {
      "constructor": "****** FUNCTIONS*******"
    }
  }
}