{
  "contractName": "Parameterizer",
  "abi": [
    {
      "constant": true,
      "inputs": [],
      "name": "PROCESSBY",
      "outputs": [
        {
          "name": "",
          "type": "uint256"
        }
      ],
      "payable": false,
      "stateMutability": "view",
      "type": "function"
    },
    {
      "constant": true,
      "inputs": [
        {
          "name": "",
          "type": "bytes32"
        }
      ],
      "name": "proposals",
      "outputs": [
        {
          "name": "appExpiry",
          "type": "uint256"
        },
        {
          "name": "challengeID",
          "type": "uint256"
        },
        {
          "name": "deposit",
          "type": "uint256"
        },
        {
          "name": "name",
          "type": "string"
        },
        {
          "name": "owner",
          "type": "address"
        },
        {
          "name": "processBy",
          "type": "uint256"
        },
        {
          "name": "value",
          "type": "uint256"
        }
      ],
      "payable": false,
      "stateMutability": "view",
      "type": "function"
    },
    {
      "constant": true,
      "inputs": [
        {
          "name": "",
          "type": "uint256"
        }
      ],
      "name": "challenges",
      "outputs": [
        {
          "name": "rewardPool",
          "type": "uint256"
        },
        {
          "name": "challenger",
          "type": "address"
        },
        {
          "name": "resolved",
          "type": "bool"
        },
        {
          "name": "stake",
          "type": "uint256"
        },
        {
          "name": "winningTokens",
          "type": "uint256"
        }
      ],
      "payable": false,
      "stateMutability": "view",
      "type": "function"
    },
    {
      "constant": true,
      "inputs": [
        {
          "name": "",
          "type": "bytes32"
        }
      ],
      "name": "params",
      "outputs": [
        {
          "name": "",
          "type": "uint256"
        }
      ],
      "payable": false,
      "stateMutability": "view",
      "type": "function"
    },
    {
      "constant": true,
      "inputs": [],
      "name": "token",
      "outputs": [
        {
          "name": "",
          "type": "address"
        }
      ],
      "payable": false,
      "stateMutability": "view",
      "type": "function"
    },
    {
      "constant": true,
      "inputs": [],
      "name": "voting",
      "outputs": [
        {
          "name": "",
          "type": "address"
        }
      ],
      "payable": false,
      "stateMutability": "view",
      "type": "function"
    },
    {
      "inputs": [
        {
          "name": "_tokenAddr",
          "type": "address"
        },
        {
          "name": "_plmAddr",
          "type": "address"
        },
        {
          "name": "_requiredDeposit",
          "type": "uint256"
        },
        {
          "name": "_pRequiredDeposit",
          "type": "uint256"
        },
        {
          "name": "_pApplyStageLen",
          "type": "uint256"
        },
        {
          "name": "_dispensationPct",
          "type": "uint256"
        },
        {
          "name": "_pDispensationPct",
          "type": "uint256"
        },
        {
          "name": "_voteStageLen",
          "type": "uint256"
        },
        {
          "name": "_pVoteStageLen",
          "type": "uint256"
        },
        {
          "name": "_voteQuorum",
          "type": "uint256"
        },
        {
          "name": "_pVoteQuorum",
          "type": "uint256"
        }
      ],
      "payable": false,
      "stateMutability": "nonpayable",
      "type": "constructor"
    },
    {
      "anonymous": false,
      "inputs": [
        {
          "indexed": true,
          "name": "proposer",
          "type": "address"
        },
        {
          "indexed": false,
          "name": "name",
          "type": "string"
        },
        {
          "indexed": true,
          "name": "value",
          "type": "uint256"
        },
        {
          "indexed": true,
          "name": "propID",
          "type": "bytes32"
        }
      ],
      "name": "_ReparameterizationProposal",
      "type": "event"
    },
    {
      "anonymous": false,
      "inputs": [
        {
          "indexed": true,
          "name": "challenger",
          "type": "address"
        },
        {
          "indexed": true,
          "name": "propID",
          "type": "bytes32"
        },
        {
          "indexed": true,
          "name": "pollID",
          "type": "uint256"
        }
      ],
      "name": "_NewChallenge",
      "type": "event"
    },
    {
      "constant": false,
      "inputs": [
        {
          "name": "_tokenAddr",
          "type": "address"
        },
        {
          "name": "_plmAddr",
          "type": "address"
        },
        {
          "name": "_requiredDeposit",
          "type": "uint256"
        },
        {
          "name": "_pRequiredDeposit",
          "type": "uint256"
        },
        {
          "name": "_pApplyStageLen",
          "type": "uint256"
        },
        {
          "name": "_dispensationPct",
          "type": "uint256"
        },
        {
          "name": "_pDispensationPct",
          "type": "uint256"
        },
        {
          "name": "_voteStageLen",
          "type": "uint256"
        },
        {
          "name": "_pVoteStageLen",
          "type": "uint256"
        },
        {
          "name": "_voteQuorum",
          "type": "uint256"
        },
        {
          "name": "_pVoteQuorum",
          "type": "uint256"
        }
      ],
      "name": "setup",
      "outputs": [],
      "payable": false,
      "stateMutability": "nonpayable",
      "type": "function"
    },
    {
      "constant": false,
      "inputs": [
        {
          "name": "_name",
          "type": "string"
        },
        {
          "name": "_value",
          "type": "uint256"
        }
      ],
      "name": "proposeReparameterization",
      "outputs": [
        {
          "name": "",
          "type": "bytes32"
        }
      ],
      "payable": false,
      "stateMutability": "nonpayable",
      "type": "function"
    },
    {
      "constant": false,
      "inputs": [
        {
          "name": "_propID",
          "type": "bytes32"
        }
      ],
      "name": "challengeReparameterization",
      "outputs": [
        {
          "name": "challengeID",
          "type": "uint256"
        }
      ],
      "payable": false,
      "stateMutability": "nonpayable",
      "type": "function"
    },
    {
      "constant": false,
      "inputs": [
        {
          "name": "_propID",
          "type": "bytes32"
        }
      ],
      "name": "processProposal",
      "outputs": [],
      "payable": false,
      "stateMutability": "nonpayable",
      "type": "function"
    },
    {
      "constant": false,
      "inputs": [
        {
          "name": "_challengeID",
          "type": "uint256"
        }
      ],
      "name": "claimVoterReward",
      "outputs": [],
      "payable": false,
      "stateMutability": "nonpayable",
      "type": "function"
    },
    {
      "constant": true,
      "inputs": [
        {
          "name": "_voter",
          "type": "address"
        },
        {
          "name": "_challengeID",
          "type": "uint256"
        }
      ],
      "name": "voterReward",
      "outputs": [
        {
          "name": "",
          "type": "uint256"
        }
      ],
      "payable": false,
      "stateMutability": "view",
      "type": "function"
    },
    {
      "constant": true,
      "inputs": [
        {
          "name": "_propID",
          "type": "bytes32"
        }
      ],
      "name": "canBeSet",
      "outputs": [
        {
          "name": "",
          "type": "bool"
        }
      ],
      "payable": false,
      "stateMutability": "view",
      "type": "function"
    },
    {
      "constant": true,
      "inputs": [
        {
          "name": "_propID",
          "type": "bytes32"
        }
      ],
      "name": "propExists",
      "outputs": [
        {
          "name": "",
          "type": "bool"
        }
      ],
      "payable": false,
      "stateMutability": "view",
      "type": "function"
    },
    {
      "constant": true,
      "inputs": [
        {
          "name": "_propID",
          "type": "bytes32"
        }
      ],
      "name": "challengeCanBeResolved",
      "outputs": [
        {
          "name": "",
          "type": "bool"
        }
      ],
      "payable": false,
      "stateMutability": "view",
      "type": "function"
    },
    {
      "constant": true,
      "inputs": [
        {
          "name": "_challengeID",
          "type": "uint256"
        }
      ],
      "name": "challengeWinnerReward",
      "outputs": [
        {
          "name": "",
          "type": "uint256"
        }
      ],
      "payable": false,
      "stateMutability": "view",
      "type": "function"
    },
    {
      "constant": true,
      "inputs": [
        {
          "name": "_name",
          "type": "string"
        }
      ],
      "name": "get",
      "outputs": [
        {
          "name": "value",
          "type": "uint256"
        }
      ],
      "payable": false,
      "stateMutability": "view",
      "type": "function"
    }
  ],
  "bytecode": "0x608060405262093a806006553480156200001857600080fd5b5060405161016080620038c783398101806040526101608110156200003c57600080fd5b810190808051906020019092919080519060200190929190805190602001909291908051906020019092919080519060200190929190805190602001909291908051906020019092919080519060200190929190805190602001909291908051906020019092919080519060200190929190505050620000cc8b8b8b8b8b8b8b8b8b8b8b620000dd60201b60201c565b505050505050505050505062000523565b600073ffffffffffffffffffffffffffffffffffffffff16600460009054906101000a900473ffffffffffffffffffffffffffffffffffffffff1673ffffffffffffffffffffffffffffffffffffffff161462000186576040517f08c379a0000000000000000000000000000000000000000000000000000000008152600401808060200182810382526024815260200180620038a36024913960400191505060405180910390fd5b8a600460006101000a81548173ffffffffffffffffffffffffffffffffffffffff021916908373ffffffffffffffffffffffffffffffffffffffff16021790555089600560006101000a81548173ffffffffffffffffffffffffffffffffffffffff021916908373ffffffffffffffffffffffffffffffffffffffff1602179055506200024f6040518060400160405280600f81526020017f72657175697265644465706f73697400000000000000000000000000000000008152508a6200049460201b60201c565b620002966040518060400160405280601081526020017f7052657175697265644465706f73697400000000000000000000000000000000815250896200049460201b60201c565b620002dd6040518060400160405280600e81526020017f704170706c7953746167654c656e000000000000000000000000000000000000815250886200049460201b60201c565b620003246040518060400160405280600f81526020017f64697370656e736174696f6e5063740000000000000000000000000000000000815250876200049460201b60201c565b6200036b6040518060400160405280601081526020017f7044697370656e736174696f6e50637400000000000000000000000000000000815250866200049460201b60201c565b620003b26040518060400160405280600c81526020017f766f746553746167654c656e0000000000000000000000000000000000000000815250856200049460201b60201c565b620003f96040518060400160405280600d81526020017f70566f746553746167654c656e00000000000000000000000000000000000000815250846200049460201b60201c565b620004406040518060400160405280600a81526020017f766f746551756f72756d00000000000000000000000000000000000000000000815250836200049460201b60201c565b620004876040518060400160405280600b81526020017f70566f746551756f72756d000000000000000000000000000000000000000000815250826200049460201b60201c565b5050505050505050505050565b8060016000846040516020018082805190602001908083835b60208310620004d25780518252602082019150602081019050602083039250620004ad565b6001836020036101000a038019825116818451168082178552505050505050905001915050604051602081830303815290604052805190602001208152602001908152602001600020819055505050565b61337080620005336000396000f3fe608060405234801561001057600080fd5b506004361061010a5760003560e01c80638240ae4b116100a2578063c51131fb11610071578063c51131fb146106bf578063c893b82f14610705578063dc6ab52714610733578063fc0c546a14610775578063fce1ccca146107bf5761010a565b80638240ae4b146104b45780638f1d3776146104f6578063bade1c5414610584578063bd0ae4051461065d5761010a565b80633afd7bd9116100de5780633afd7bd91461029e578063504115521461035d578063693ec85e1461039f57806377609a411461046e5761010a565b806229514f1461010f57806330490e911461012d57806332ed5b121461015b5780633530099014610258575b600080fd5b610117610809565b6040518082815260200191505060405180910390f35b6101596004803603602081101561014357600080fd5b810190808035906020019092919050505061080f565b005b6101876004803603602081101561017157600080fd5b8101908080359060200190929190505050610b77565b60405180888152602001878152602001868152602001806020018573ffffffffffffffffffffffffffffffffffffffff1673ffffffffffffffffffffffffffffffffffffffff168152602001848152602001838152602001828103825286818151815260200191508051906020019080838360005b838110156102175780820151818401526020810190506101fc565b50505050905090810190601f1680156102445780820380516001836020036101000a031916815260200191505b509850505050505050505060405180910390f35b6102846004803603602081101561026e57600080fd5b8101908080359060200190929190505050610c71565b604051808215151515815260200191505060405180910390f35b61035b60048036036101608110156102b557600080fd5b81019080803573ffffffffffffffffffffffffffffffffffffffff169060200190929190803573ffffffffffffffffffffffffffffffffffffffff169060200190929190803590602001909291908035906020019092919080359060200190929190803590602001909291908035906020019092919080359060200190929190803590602001909291908035906020019092919080359060200190929190505050610c93565b005b6103896004803603602081101561037357600080fd5b8101908080359060200190929190505050611000565b6040518082815260200191505060405180910390f35b610458600480360360208110156103b557600080fd5b81019080803590602001906401000000008111156103d257600080fd5b8201836020820111156103e457600080fd5b8035906020019184600183028401116401000000008311171561040657600080fd5b91908080601f016020809104026020016040519081016040528093929190818152602001838380828437600081840152601f19601f820116905080830192505050505050509192919290505050611112565b6040518082815260200191505060405180910390f35b61049a6004803603602081101561048457600080fd5b81019080803590602001909291905050506111a0565b604051808215151515815260200191505060405180910390f35b6104e0600480360360208110156104ca57600080fd5b810190808035906020019092919050505061148e565b6040518082815260200191505060405180910390f35b6105226004803603602081101561050c57600080fd5b8101908080359060200190929190505050611b02565b604051808681526020018573ffffffffffffffffffffffffffffffffffffffff1673ffffffffffffffffffffffffffffffffffffffff168152602001841515151581526020018381526020018281526020019550505050505060405180910390f35b6106476004803603604081101561059a57600080fd5b81019080803590602001906401000000008111156105b757600080fd5b8201836020820111156105c957600080fd5b803590602001918460018302840111640100000000831117156105eb57600080fd5b91908080601f016020809104026020016040519081016040528093929190818152602001838380828437600081840152601f19601f82011690508083019250505050505050919291929080359060200190929190505050611b65565b6040518082815260200191505060405180910390f35b6106a96004803603604081101561067357600080fd5b81019080803573ffffffffffffffffffffffffffffffffffffffff169060200190929190803590602001909291905050506122fc565b6040518082815260200191505060405180910390f35b6106eb600480360360208110156106d557600080fd5b8101908080359060200190929190505050612430565b604051808215151515815260200191505060405180910390f35b6107316004803603602081101561071b57600080fd5b81019080803590602001909291905050506125b2565b005b61075f6004803603602081101561074957600080fd5b8101908080359060200190929190505050612a0f565b6040518082815260200191505060405180910390f35b61077d612a27565b604051808273ffffffffffffffffffffffffffffffffffffffff1673ffffffffffffffffffffffffffffffffffffffff16815260200191505060405180910390f35b6107c7612a4d565b604051808273ffffffffffffffffffffffffffffffffffffffff1673ffffffffffffffffffffffffffffffffffffffff16815260200191505060405180910390f35b60065481565b600060036000838152602001908152602001600020905061082f82612430565b156108e3576108de816003018054600181600116156101000203166002900480601f0160208091040260200160405190810160405280929190818152602001828054600181600116156101000203166002900480156108cf5780601f106108a4576101008083540402835291602001916108cf565b820191906000526020600020905b8154815290600101906020018083116108b257829003601f168201915b50505050508260060154612a73565b610afe565b6108ec826111a0565b156108ff576108fa82612b00565b610afd565b8060050154421115610a8e57600460009054906101000a900473ffffffffffffffffffffffffffffffffffffffff1673ffffffffffffffffffffffffffffffffffffffff1663a9059cbb8260040160009054906101000a900473ffffffffffffffffffffffffffffffffffffffff1683600201546040518363ffffffff1660e01b8152600401808373ffffffffffffffffffffffffffffffffffffffff1673ffffffffffffffffffffffffffffffffffffffff16815260200182815260200192505050602060405180830381600087803b1580156109dc57600080fd5b505af11580156109f0573d6000803e3d6000fd5b505050506040513d6020811015610a0657600080fd5b8101908080519060200190929190505050610a89576040517f08c379a00000000000000000000000000000000000000000000000000000000081526004018080602001828103825260158152602001807f546f6b656e207472616e73666572206661696c6564000000000000000000000081525060200191505060405180910390fd5b610afc565b6040517f08c379a000000000000000000000000000000000000000000000000000000000815260040180806020018281038252601f8152602001807f50726f706f73616c20636f756c64206e6f742062652070726f6365737365640081525060200191505060405180910390fd5b5b5b6003600083815260200190815260200160002060008082016000905560018201600090556002820160009055600382016000610b3a91906130e7565b6004820160006101000a81549073ffffffffffffffffffffffffffffffffffffffff02191690556005820160009055600682016000905550505050565b6003602052806000526040600020600091509050806000015490806001015490806002015490806003018054600181600116156101000203166002900480601f016020809104026020016040519081016040528092919081815260200182805460018160011615610100020316600290048015610c355780601f10610c0a57610100808354040283529160200191610c35565b820191906000526020600020905b815481529060010190602001808311610c1857829003601f168201915b5050505050908060040160009054906101000a900473ffffffffffffffffffffffffffffffffffffffff16908060050154908060060154905087565b6000806003600084815260200190815260200160002060050154119050919050565b600073ffffffffffffffffffffffffffffffffffffffff16600460009054906101000a900473ffffffffffffffffffffffffffffffffffffffff1673ffffffffffffffffffffffffffffffffffffffff1614610d3a576040517f08c379a00000000000000000000000000000000000000000000000000000000081526004018080602001828103825260248152602001806132f46024913960400191505060405180910390fd5b8a600460006101000a81548173ffffffffffffffffffffffffffffffffffffffff021916908373ffffffffffffffffffffffffffffffffffffffff16021790555089600560006101000a81548173ffffffffffffffffffffffffffffffffffffffff021916908373ffffffffffffffffffffffffffffffffffffffff160217905550610dfb6040518060400160405280600f81526020017f72657175697265644465706f73697400000000000000000000000000000000008152508a612a73565b610e3a6040518060400160405280601081526020017f7052657175697265644465706f7369740000000000000000000000000000000081525089612a73565b610e796040518060400160405280600e81526020017f704170706c7953746167654c656e00000000000000000000000000000000000081525088612a73565b610eb86040518060400160405280600f81526020017f64697370656e736174696f6e506374000000000000000000000000000000000081525087612a73565b610ef76040518060400160405280601081526020017f7044697370656e736174696f6e5063740000000000000000000000000000000081525086612a73565b610f366040518060400160405280600c81526020017f766f746553746167654c656e000000000000000000000000000000000000000081525085612a73565b610f756040518060400160405280600d81526020017f70566f746553746167654c656e0000000000000000000000000000000000000081525084612a73565b610fb46040518060400160405280600a81526020017f766f746551756f72756d0000000000000000000000000000000000000000000081525083612a73565b610ff36040518060400160405280600b81526020017f70566f746551756f72756d00000000000000000000000000000000000000000081525082612a73565b5050505050505050505050565b600080600560009054906101000a900473ffffffffffffffffffffffffffffffffffffffff1673ffffffffffffffffffffffffffffffffffffffff1663053e71a6846040518263ffffffff1660e01b81526004018082815260200191505060206040518083038186803b15801561107657600080fd5b505afa15801561108a573d6000803e3d6000fd5b505050506040513d60208110156110a057600080fd5b810190808051906020019092919050505014156110d8576002600083815260200190815260200160002060020154600202905061110d565b600260008381526020019081526020016000206000015460026000848152602001908152602001600020600201546002020390505b919050565b600060016000836040516020018082805190602001908083835b6020831061114f578051825260208201915060208101905060208303925061112c565b6001836020036101000a038019825116818451168082178552505050505050905001915050604051602081830303815290604052805190602001208152602001908152602001600020549050919050565b60006111aa61312f565b600360008481526020019081526020016000206040518060e0016040529081600082015481526020016001820154815260200160028201548152602001600382018054600181600116156101000203166002900480601f01602080910402602001604051908101604052809291908181526020018280546001816001161561010002031660029004801561127f5780601f106112545761010080835404028352916020019161127f565b820191906000526020600020905b81548152906001019060200180831161126257829003601f168201915b505050505081526020016004820160009054906101000a900473ffffffffffffffffffffffffffffffffffffffff1673ffffffffffffffffffffffffffffffffffffffff1673ffffffffffffffffffffffffffffffffffffffff1681526020016005820154815260200160068201548152505090506112fc613182565b60026000836020015181526020019081526020016000206040518060a0016040529081600082015481526020016001820160009054906101000a900473ffffffffffffffffffffffffffffffffffffffff1673ffffffffffffffffffffffffffffffffffffffff1673ffffffffffffffffffffffffffffffffffffffff1681526020016001820160149054906101000a900460ff16151515158152602001600282015481526020016003820154815250509050600082602001511180156113cb57506000151581604001511515145b80156114855750600560009054906101000a900473ffffffffffffffffffffffffffffffffffffffff1673ffffffffffffffffffffffffffffffffffffffff1663ee68483083602001516040518263ffffffff1660e01b81526004018082815260200191505060206040518083038186803b15801561144957600080fd5b505afa15801561145d573d6000803e3d6000fd5b505050506040513d602081101561147357600080fd5b81019080805190602001909291905050505b92505050919050565b600061149861312f565b600360008481526020019081526020016000206040518060e0016040529081600082015481526020016001820154815260200160028201548152602001600382018054600181600116156101000203166002900480601f01602080910402602001604051908101604052809291908181526020018280546001816001161561010002031660029004801561156d5780601f106115425761010080835404028352916020019161156d565b820191906000526020600020905b81548152906001019060200180831161155057829003601f168201915b505050505081526020016004820160009054906101000a900473ffffffffffffffffffffffffffffffffffffffff1673ffffffffffffffffffffffffffffffffffffffff1673ffffffffffffffffffffffffffffffffffffffff16815260200160058201548152602001600682015481525050905060006116226040518060400160405280601081526020017f7052657175697265644465706f73697400000000000000000000000000000000815250611112565b905061162d84610c71565b801561163d575060008260200151145b6116af576040517f08c379a00000000000000000000000000000000000000000000000000000000081526004018080602001828103825260178152602001807f50726f706f73616c20646f6573206e6f7420657869737400000000000000000081525060200191505060405180910390fd5b600460009054906101000a900473ffffffffffffffffffffffffffffffffffffffff1673ffffffffffffffffffffffffffffffffffffffff166323b872dd3330846040518463ffffffff1660e01b8152600401808473ffffffffffffffffffffffffffffffffffffffff1673ffffffffffffffffffffffffffffffffffffffff1681526020018373ffffffffffffffffffffffffffffffffffffffff1673ffffffffffffffffffffffffffffffffffffffff1681526020018281526020019350505050602060405180830381600087803b15801561178c57600080fd5b505af11580156117a0573d6000803e3d6000fd5b505050506040513d60208110156117b657600080fd5b8101908080519060200190929190505050611839576040517f08c379a00000000000000000000000000000000000000000000000000000000081526004018080602001828103825260158152602001807f546f6b656e207472616e73666572206661696c6564000000000000000000000081525060200191505060405180910390fd5b6000600560009054906101000a900473ffffffffffffffffffffffffffffffffffffffff1673ffffffffffffffffffffffffffffffffffffffff1663b359dd436118b76040518060400160405280600b81526020017f70566f746551756f72756d000000000000000000000000000000000000000000815250611112565b6118f56040518060400160405280600d81526020017f70566f746553746167654c656e00000000000000000000000000000000000000815250611112565b6040518363ffffffff1660e01b81526004018083815260200182815260200192505050602060405180830381600087803b15801561193257600080fd5b505af1158015611946573d6000803e3d6000fd5b505050506040513d602081101561195c57600080fd5b810190808051906020019092919050505090506040518060a001604052806064846119bb6040518060400160405280601081526020017f7044697370656e736174696f6e50637400000000000000000000000000000000815250611112565b60640302816119c657fe5b0481526020013373ffffffffffffffffffffffffffffffffffffffff1681526020016000151581526020018381526020016000815250600260008381526020019081526020016000206000820151816000015560208201518160010160006101000a81548173ffffffffffffffffffffffffffffffffffffffff021916908373ffffffffffffffffffffffffffffffffffffffff16021790555060408201518160010160146101000a81548160ff021916908315150217905550606082015181600201556080820151816003015590505080600360008781526020019081526020016000206001018190555080853373ffffffffffffffffffffffffffffffffffffffff167f514f310f0599dc7152cbceb4f1b80297d1a615826350a8dcdc54168447e8405060405160405180910390a4809350505050919050565b60026020528060005260406000206000915090508060000154908060010160009054906101000a900473ffffffffffffffffffffffffffffffffffffffff16908060010160149054906101000a900460ff16908060020154908060030154905085565b600080611ba66040518060400160405280601081526020017f7052657175697265644465706f73697400000000000000000000000000000000815250611112565b9050600084846040516020018083805190602001908083835b60208310611be25780518252602082019150602081019050602083039250611bbf565b6001836020036101000a0380198251168184511680821785525050505050509050018281526020019250505060405160208183030381529060405280519060200120905060405160200180807f64697370656e736174696f6e5063740000000000000000000000000000000000815250600f01905060405160208183030381529060405280519060200120856040516020018082805190602001908083835b60208310611ca45780518252602082019150602081019050602083039250611c81565b6001836020036101000a038019825116818451168082178552505050505050905001915050604051602081830303815290604052805190602001201480611da1575060405160200180807f7044697370656e736174696f6e50637400000000000000000000000000000000815250601001905060405160208183030381529060405280519060200120856040516020018082805190602001908083835b60208310611d645780518252602082019150602081019050602083039250611d41565b6001836020036101000a03801982511681845116808217855250505050505090500191505060405160208183030381529060405280519060200120145b15611e1e576064841115611e1d576040517f08c379a000000000000000000000000000000000000000000000000000000000815260040180806020018281038252601e8152602001807f546869732076616c7565206d7573742062652077697468696e2031303025000081525060200191505060405180910390fd5b5b611e2781610c71565b15611e9a576040517f08c379a00000000000000000000000000000000000000000000000000000000081526004018080602001828103825260178152602001807f50726f706f73616c20616c72656164792065786973747300000000000000000081525060200191505060405180910390fd5b83611ea486611112565b1415611efb576040517f08c379a000000000000000000000000000000000000000000000000000000000815260040180806020018281038252603a81526020018061326f603a913960400191505060405180910390fd5b600460009054906101000a900473ffffffffffffffffffffffffffffffffffffffff1673ffffffffffffffffffffffffffffffffffffffff166323b872dd3330856040518463ffffffff1660e01b8152600401808473ffffffffffffffffffffffffffffffffffffffff1673ffffffffffffffffffffffffffffffffffffffff1681526020018373ffffffffffffffffffffffffffffffffffffffff1673ffffffffffffffffffffffffffffffffffffffff1681526020018281526020019350505050602060405180830381600087803b158015611fd857600080fd5b505af1158015611fec573d6000803e3d6000fd5b505050506040513d602081101561200257600080fd5b8101908080519060200190929190505050612085576040517f08c379a00000000000000000000000000000000000000000000000000000000081526004018080602001828103825260158152602001807f546f6b656e207472616e73666572206661696c6564000000000000000000000081525060200191505060405180910390fd5b6040518060e001604052806120ce6040518060400160405280600e81526020017f704170706c7953746167654c656e000000000000000000000000000000000000815250611112565b42018152602001600081526020018381526020018681526020013373ffffffffffffffffffffffffffffffffffffffff1681526020016006546121456040518060400160405280600d81526020017f70566f746553746167654c656e00000000000000000000000000000000000000815250611112565b6121836040518060400160405280600e81526020017f704170706c7953746167654c656e000000000000000000000000000000000000815250611112565b420101018152602001858152506003600083815260200190815260200160002060008201518160000155602082015181600101556040820151816002015560608201518160030190805190602001906121dd9291906131c9565b5060808201518160040160006101000a81548173ffffffffffffffffffffffffffffffffffffffff021916908373ffffffffffffffffffffffffffffffffffffffff16021790555060a0820151816005015560c0820151816006015590505080843373ffffffffffffffffffffffffffffffffffffffff167f7ad5a045a626580a5b80e13a14bcc0745de6a803fff9656c1792124bb9ee6750886040518080602001828103825283818151815260200191508051906020019080838360005b838110156122b757808201518184015260208101905061229c565b50505050905090810190601f1680156122e45780820380516001836020036101000a031916815260200191505b509250505060405180910390a4809250505092915050565b600080600260008481526020019081526020016000206003015490506000600260008581526020019081526020016000206000015490506000600560009054906101000a900473ffffffffffffffffffffffffffffffffffffffff1673ffffffffffffffffffffffffffffffffffffffff16630c03fbd787876040518363ffffffff1660e01b8152600401808373ffffffffffffffffffffffffffffffffffffffff1673ffffffffffffffffffffffffffffffffffffffff1681526020018281526020019250505060206040518083038186803b1580156123dc57600080fd5b505afa1580156123f0573d6000803e3d6000fd5b505050506040513d602081101561240657600080fd5b81019080805190602001909291905050509050828282028161242457fe5b04935050505092915050565b600061243a61312f565b600360008481526020019081526020016000206040518060e0016040529081600082015481526020016001820154815260200160028201548152602001600382018054600181600116156101000203166002900480601f01602080910402602001604051908101604052809291908181526020018280546001816001161561010002031660029004801561250f5780601f106124e45761010080835404028352916020019161250f565b820191906000526020600020905b8154815290600101906020018083116124f257829003601f168201915b505050505081526020016004820160009054906101000a900473ffffffffffffffffffffffffffffffffffffffff1673ffffffffffffffffffffffffffffffffffffffff1673ffffffffffffffffffffffffffffffffffffffff16815260200160058201548152602001600682015481525050905080600001514211801561259a57508060a0015142105b80156125aa575060008160200151145b915050919050565b600015156002600083815260200190815260200160002060040160003373ffffffffffffffffffffffffffffffffffffffff1673ffffffffffffffffffffffffffffffffffffffff16815260200190815260200160002060009054906101000a900460ff1615151461266f576040517f08c379a00000000000000000000000000000000000000000000000000000000081526004018080602001828103825260228152602001806132a96022913960400191505060405180910390fd5b600115156002600083815260200190815260200160002060010160149054906101000a900460ff1615151461270c576040517f08c379a000000000000000000000000000000000000000000000000000000000815260040180806020018281038252601d8152602001807f4368616c6c656e6765206973206e6f7420796574207265736f6c76656400000081525060200191505060405180910390fd5b6000600560009054906101000a900473ffffffffffffffffffffffffffffffffffffffff1673ffffffffffffffffffffffffffffffffffffffff16630c03fbd733846040518363ffffffff1660e01b8152600401808373ffffffffffffffffffffffffffffffffffffffff1673ffffffffffffffffffffffffffffffffffffffff1681526020018281526020019250505060206040518083038186803b1580156127b557600080fd5b505afa1580156127c9573d6000803e3d6000fd5b505050506040513d60208110156127df57600080fd5b8101908080519060200190929190505050905060006127fe33846122fc565b9050816002600085815260200190815260200160002060030160008282540392505081905550806002600085815260200190815260200160002060000160008282540392505081905550600460009054906101000a900473ffffffffffffffffffffffffffffffffffffffff1673ffffffffffffffffffffffffffffffffffffffff1663a9059cbb33836040518363ffffffff1660e01b8152600401808373ffffffffffffffffffffffffffffffffffffffff1673ffffffffffffffffffffffffffffffffffffffff16815260200182815260200192505050602060405180830381600087803b1580156128f157600080fd5b505af1158015612905573d6000803e3d6000fd5b505050506040513d602081101561291b57600080fd5b810190808051906020019092919050505061299e576040517f08c379a00000000000000000000000000000000000000000000000000000000081526004018080602001828103825260158152602001807f546f6b656e207472616e73666572206661696c6564000000000000000000000081525060200191505060405180910390fd5b60016002600085815260200190815260200160002060040160003373ffffffffffffffffffffffffffffffffffffffff1673ffffffffffffffffffffffffffffffffffffffff16815260200190815260200160002060006101000a81548160ff021916908315150217905550505050565b60016020528060005260406000206000915090505481565b600460009054906101000a900473ffffffffffffffffffffffffffffffffffffffff1681565b600560009054906101000a900473ffffffffffffffffffffffffffffffffffffffff1681565b8060016000846040516020018082805190602001908083835b60208310612aaf5780518252602082019150602081019050602083039250612a8c565b6001836020036101000a038019825116818451168082178552505050505050905001915050604051602081830303815290604052805190602001208152602001908152602001600020819055505050565b612b0861312f565b600360008381526020019081526020016000206040518060e0016040529081600082015481526020016001820154815260200160028201548152602001600382018054600181600116156101000203166002900480601f016020809104026020016040519081016040528092919081815260200182805460018160011615610100020316600290048015612bdd5780601f10612bb257610100808354040283529160200191612bdd565b820191906000526020600020905b815481529060010190602001808311612bc057829003601f168201915b505050505081526020016004820160009054906101000a900473ffffffffffffffffffffffffffffffffffffffff1673ffffffffffffffffffffffffffffffffffffffff1673ffffffffffffffffffffffffffffffffffffffff1681526020016005820154815260200160068201548152505090506000600260008360200151815260200190815260200160002090506000612c7c8360200151611000565b9050600560009054906101000a900473ffffffffffffffffffffffffffffffffffffffff1673ffffffffffffffffffffffffffffffffffffffff16634940318384602001516040518263ffffffff1660e01b81526004018082815260200191505060206040518083038186803b158015612cf557600080fd5b505afa158015612d09573d6000803e3d6000fd5b505050506040513d6020811015612d1f57600080fd5b810190808051906020019092919050505015612e9657428360a001511115612d5457612d5383606001518460c00151612a73565b5b600460009054906101000a900473ffffffffffffffffffffffffffffffffffffffff1673ffffffffffffffffffffffffffffffffffffffff1663a9059cbb8460800151836040518363ffffffff1660e01b8152600401808373ffffffffffffffffffffffffffffffffffffffff1673ffffffffffffffffffffffffffffffffffffffff16815260200182815260200192505050602060405180830381600087803b158015612e0157600080fd5b505af1158015612e15573d6000803e3d6000fd5b505050506040513d6020811015612e2b57600080fd5b8101908080519060200190929190505050612e91576040517f08c379a00000000000000000000000000000000000000000000000000000000081526004018080602001828103825260298152602001806132cb6029913960400191505060405180910390fd5b61300a565b600460009054906101000a900473ffffffffffffffffffffffffffffffffffffffff1673ffffffffffffffffffffffffffffffffffffffff1663a9059cbb600260008660200151815260200190815260200160002060010160009054906101000a900473ffffffffffffffffffffffffffffffffffffffff16836040518363ffffffff1660e01b8152600401808373ffffffffffffffffffffffffffffffffffffffff1673ffffffffffffffffffffffffffffffffffffffff16815260200182815260200192505050602060405180830381600087803b158015612f7957600080fd5b505af1158015612f8d573d6000803e3d6000fd5b505050506040513d6020811015612fa357600080fd5b8101908080519060200190929190505050613009576040517f08c379a000000000000000000000000000000000000000000000000000000000815260040180806020018281038252602d815260200180613318602d913960400191505060405180910390fd5b5b600560009054906101000a900473ffffffffffffffffffffffffffffffffffffffff1673ffffffffffffffffffffffffffffffffffffffff1663053e71a684602001516040518263ffffffff1660e01b81526004018082815260200191505060206040518083038186803b15801561308157600080fd5b505afa158015613095573d6000803e3d6000fd5b505050506040513d60208110156130ab57600080fd5b8101908080519060200190929190505050826003018190555060018260010160146101000a81548160ff02191690831515021790555050505050565b50805460018160011615610100020316600290046000825580601f1061310d575061312c565b601f01602090049060005260206000209081019061312b9190613249565b5b50565b6040518060e0016040528060008152602001600081526020016000815260200160608152602001600073ffffffffffffffffffffffffffffffffffffffff16815260200160008152602001600081525090565b6040518060a0016040528060008152602001600073ffffffffffffffffffffffffffffffffffffffff16815260200160001515815260200160008152602001600081525090565b828054600181600116156101000203166002900490600052602060002090601f016020900481019282601f1061320a57805160ff1916838001178555613238565b82800160010185558215613238579182015b8281111561323757825182559160200191906001019061321c565b5b5090506132459190613249565b5090565b61326b91905b8082111561326757600081600090555060010161324f565b5090565b9056fe5468652070726f706f736564206368616e67652069736e277420646966666572656e742066726f6d207468652063757272656e742076616c7565566f7465722063616e277420636c61696d20726577617264207269676874206e6f77546f6b656e207472616e73666572206661696c6564206f6e206661696c6564206368616c6c656e6765546f6b656e20616464726573732063616e27742062652074686520302061646472657373546f6b656e207472616e73666572206661696c6564206f6e207375636365737366756c206368616c6c656e6765a165627a7a72305820a1c000f765431dec1870e4d44ed06a7d911e297d62fcdb79289eba6f1867bda40029546f6b656e20616464726573732063616e27742062652074686520302061646472657373",
  "source": "pragma solidity ^0.5.8;\n\nimport \"./PLMVoting.sol\";\nimport \"./TCRDevToken.sol\";\n\ncontract Parameterizer {\n    // ------\n    // EVENTS\n    // ------\n\n    event _ReparameterizationProposal(\n        address indexed proposer,\n        string name,\n        uint256 indexed value,\n        bytes32 indexed propID\n    );\n    event _NewChallenge(\n        address indexed challenger,\n        bytes32 indexed propID,\n        uint256 indexed pollID\n    );\n\n    // ------\n    // DATA STRUCTURES\n    // ------\n\n    struct ParamProposal {\n        uint256 appExpiry;\n        uint256 challengeID;\n        uint256 deposit;\n        string name;\n        address owner;\n        uint256 processBy;\n        uint256 value;\n    }\n\n    struct Challenge {\n        uint256 rewardPool; // (remaining) pool of tokens distributed amongst winning voters\n        address challenger; // owner of Challenge\n        bool resolved; // indication of if challenge is resolved\n        uint256 stake; // number of tokens at risk for either party during challenge\n        uint256 winningTokens; // (remaining) amount of tokens used for voting by the winning side\n        mapping(address => bool) voterCanClaimReward;\n    }\n\n    // ------\n    // STATE\n    // ------\n\n    Parameterizer masterCopy; // THIS MUST ALWAYS BE THE FIRST STATE VARIABLE DECLARED!!!!!!\n\n    mapping(bytes32 => uint256) public params;\n\n    // maps challengeIDs to associated challenge data\n    mapping(uint256 => Challenge) public challenges;\n\n    // maps pollIDs to intended data change if poll passes\n    mapping(bytes32 => ParamProposal) public proposals;\n\n    // Global Variables\n    TCRDevToken public token;\n    PLMVoting public voting;\n    uint256 public PROCESSBY = 604800; // 7 days\n\n    // ------------\n    // CONSTRUCTOR\n    // ------------\n\n    /**\n  @dev constructor\n  @param _tokenAddr         address of the token which parameterizes this system\n  @param _plmAddr           address of a PLM voting contract for the provided token\n  @param _requiredDeposit   required deposit for listing to be whitelisted\n  @param _pRequiredDeposit  required deposit to propose a reparameterization\n  @param _pApplyStageLen    period over which reparmeterization proposal's wait to be processed\n  @param _dispensationPct   % of losing party's deposit sent to winning party\n  @param _pDispensationPct  % of losing party's deposit sent to winning party in parameterizer\n  @param _voteStageLen      length of commit period for voting\n  @param _pVoteStageLen     length of commit period for voting in parameterizer\n  @param _voteQuorum        type of majority out of 100 necessary for vote success\n  @param _pVoteQuorum       type of majority out of 100 necessary for vote success in parameterizer\n  */\n    constructor(\n        address _tokenAddr,\n        address _plmAddr,\n        uint256 _requiredDeposit,\n        uint256 _pRequiredDeposit,\n        uint256 _pApplyStageLen,\n        uint256 _dispensationPct,\n        uint256 _pDispensationPct,\n        uint256 _voteStageLen,\n        uint256 _pVoteStageLen,\n        uint256 _voteQuorum,\n        uint256 _pVoteQuorum\n    ) public {\n        setup(\n            _tokenAddr,\n            _plmAddr,\n            _requiredDeposit,\n            _pRequiredDeposit,\n            _pApplyStageLen,\n            _dispensationPct,\n            _pDispensationPct,\n            _voteStageLen,\n            _pVoteStageLen,\n            _voteQuorum,\n            _pVoteQuorum\n        );\n    }\n\n    function setup(\n        address _tokenAddr,\n        address _plmAddr,\n        uint256 _requiredDeposit,\n        uint256 _pRequiredDeposit,\n        uint256 _pApplyStageLen,\n        uint256 _dispensationPct,\n        uint256 _pDispensationPct,\n        uint256 _voteStageLen,\n        uint256 _pVoteStageLen,\n        uint256 _voteQuorum,\n        uint256 _pVoteQuorum\n    ) public {\n        require(address(token) == address(0), \"Token address can't be the 0 address\");\n\n        token = TCRDevToken(_tokenAddr);\n        voting = PLMVoting(_plmAddr);\n\n        set(\"requiredDeposit\", _requiredDeposit);\n        set(\"pRequiredDeposit\", _pRequiredDeposit);\n        set(\"pApplyStageLen\", _pApplyStageLen);\n        set(\"dispensationPct\", _dispensationPct);\n        set(\"pDispensationPct\", _pDispensationPct);\n        set(\"voteStageLen\", _voteStageLen);\n        set(\"pVoteStageLen\", _pVoteStageLen);\n        set(\"voteQuorum\", _voteQuorum);\n        set(\"pVoteQuorum\", _pVoteQuorum);\n    }\n\n    // -----------------------\n    // TOKEN HOLDER INTERFACE\n    // -----------------------\n\n    /**\n  @notice propose a reparamaterization of the key _name's value to _value.\n  @param _name the name of the proposed param to be set\n  @param _value the proposed value to set the param to be set\n  */\n    function proposeReparameterization(string memory _name, uint256 _value)\n        public\n        returns (bytes32)\n    {\n        uint256 deposit = get(\"pRequiredDeposit\");\n        bytes32 propID = keccak256(abi.encodePacked(_name, _value));\n\n        if (keccak256(abi.encodePacked(_name)) == keccak256(abi.encodePacked(\"dispensationPct\")) ||\n            keccak256(abi.encodePacked(_name)) == keccak256(abi.encodePacked(\"pDispensationPct\"))) {\n            require(_value <= 100, \"This value must be within 100%\");\n        }\n\n        require(!propExists(propID), \"Proposal already exists\");\n        require(get(_name) != _value, \"The proposed change isn't different from the current value\");\n        // escrow tokens (deposit amt)\n        require(token.transferFrom(msg.sender, address(this), deposit), \"Token transfer failed\");\n        // attach name and value to pollID\n        proposals[propID] = ParamProposal({\n            /* solium-disable-next-line security/no-block-members*/\n            appExpiry: block.timestamp + get(\"pApplyStageLen\"),\n            challengeID: 0,\n            deposit: deposit,\n            name: _name,\n            owner: msg.sender,\n            /* solium-disable-next-line security/no-block-members*/\n            processBy: block.timestamp +\n                get(\"pApplyStageLen\") +\n                get(\"pVoteStageLen\") +\n                PROCESSBY,\n            value: _value\n        });\n\n        emit _ReparameterizationProposal(msg.sender, _name, _value, propID);\n        return propID;\n    }\n\n    /**\n  @notice challenge the provided proposal ID, and put tokens at stake to do so.\n  @param _propID the proposal ID to challenge\n  */\n    function challengeReparameterization(bytes32 _propID)\n        public\n        returns (uint256 challengeID)\n    {\n        ParamProposal memory prop = proposals[_propID];\n        uint256 deposit = get(\"pRequiredDeposit\");\n\n        require(propExists(_propID) && prop.challengeID == 0, \"Proposal does not exist\");\n\n        //take tokens from challenger\n        require(token.transferFrom(msg.sender, address(this), deposit), \"Token transfer failed\");\n        //start poll\n        uint256 pollID = voting.startPoll(\n            get(\"pVoteQuorum\"),\n            get(\"pVoteStageLen\")\n        );\n\n        challenges[pollID] = Challenge({\n            challenger: msg.sender,\n            rewardPool: ((100 - get(\"pDispensationPct\")) * deposit) / 100,\n            stake: deposit,\n            resolved: false,\n            winningTokens: 0\n        });\n\n        proposals[_propID].challengeID = pollID; // update listing to store most recent challenge\n\n        emit _NewChallenge(msg.sender, _propID, pollID);\n        return pollID;\n    }\n\n    /**\n  @notice for the provided proposal ID, set it, resolve its challenge, or delete it depending\n          on whether it can be set, has a challenge which can be resolved, or if its \"process by\"\n          date has passed\n  @param _propID the proposal ID to make a determination and state transition for\n  */\n    function processProposal(bytes32 _propID) public {\n        ParamProposal storage prop = proposals[_propID];\n\n        if (canBeSet(_propID)) {\n            set(prop.name, prop.value);\n        } else if (challengeCanBeResolved(_propID)) {\n            resolveChallenge(_propID);\n        /* solium-disable-next-line security/no-block-members*/\n        } else if (block.timestamp > prop.processBy) {\n            require(token.transfer(prop.owner, prop.deposit), \"Token transfer failed\");\n        } else {\n            revert(\"Proposal could not be processed\");\n        }\n\n        delete proposals[_propID];\n    }\n\n    /**\n  @notice claim the tokens owed for the msg.sender in the provided challenge\n  @param _challengeID the challenge ID to claim tokens for\n  */\n    function claimVoterReward(uint256 _challengeID) public {\n        // ensure voter has not already claimed tokens and challenge results have been processed\n        require(\n            challenges[_challengeID].voterCanClaimReward[msg.sender] == false,\n            \"Voter can't claim reward right now\"\n        );\n        require(challenges[_challengeID].resolved == true, \"Challenge is not yet resolved\");\n\n        uint256 voterTokens = voting.getNumPassingTokens(msg.sender, _challengeID);\n        uint256 reward = voterReward(msg.sender, _challengeID);\n\n        // subtract voter's information to preserve the participation ratios of other voters\n        // compared to the remaining pool of rewards\n        challenges[_challengeID].winningTokens -= voterTokens;\n        challenges[_challengeID].rewardPool -= reward;\n\n        require(token.transfer(msg.sender, reward), \"Token transfer failed\");\n\n        // ensures a voter cannot claim tokens again\n        challenges[_challengeID].voterCanClaimReward[msg.sender] = true;\n    }\n\n    // --------\n    // GETTERS\n    // --------\n\n    /**\n  @dev                Calculates the provided voter's token reward for the given poll.\n  @param _voter       The address of the voter whose reward balance is to be returned\n  @param _challengeID The ID of the challenge the voter's reward is being calculated for\n  @return             The uint indicating the voter's reward\n  */\n    function voterReward(address _voter, uint256 _challengeID)\n        public\n        view\n        returns (uint256)\n    {\n        uint256 winningTokens = challenges[_challengeID].winningTokens;\n        uint256 rewardPool = challenges[_challengeID].rewardPool;\n        uint256 voterTokens = voting.getNumPassingTokens(_voter, _challengeID);\n        return (voterTokens * rewardPool) / winningTokens;\n    }\n\n    /**\n  @notice Determines whether a proposal passed its application stage without a challenge\n  @param _propID The proposal ID to determine if the application stage passed without a challenge\n  */\n    function canBeSet(bytes32 _propID) public view returns (bool) {\n        ParamProposal memory prop = proposals[_propID];\n\n        return (\n            /* solium-disable-next-line security/no-block-members*/\n            block.timestamp > prop.appExpiry && block.timestamp < prop.processBy &&\n            prop.challengeID == 0\n        );\n    }\n\n    /**\n  @notice Determines whether a proposal exists for the provided proposal ID\n  @param _propID The proposal ID whose existance is to be determined\n  */\n    function propExists(bytes32 _propID) public view returns (bool) {\n        return proposals[_propID].processBy > 0;\n    }\n\n    /**\n  @notice Determines whether the provided proposal ID has a challenge which can be resolved\n  @param _propID The proposal ID whose challenge to inspect\n  */\n    function challengeCanBeResolved(bytes32 _propID) public view returns (bool) {\n        ParamProposal memory prop = proposals[_propID];\n        Challenge memory challenge = challenges[prop.challengeID];\n\n        return (prop.challengeID > 0 &&\n            challenge.resolved == false &&\n            voting.pollEnded(prop.challengeID));\n    }\n\n    /**\n  @notice Determines the number of tokens to be awarded to the winning party in a challenge\n  @param _challengeID The challengeID to determine a reward for\n  */\n    function challengeWinnerReward(uint256 _challengeID) public view returns (uint256) {\n        if (voting.getTotalNumberOfTokensForWinningOption(_challengeID) == 0) {\n            // Edge case, nobody voted, give all tokens to the winner.\n            return 2 * challenges[_challengeID].stake;\n        }\n\n        return (2 * challenges[_challengeID].stake) - challenges[_challengeID].rewardPool;\n    }\n\n    /**\n  @notice gets the parameter keyed by the provided name value from the params mapping\n  @param _name the key whose value is to be determined\n  */\n    function get(string memory _name) public view returns (uint256 value) {\n        return params[keccak256(abi.encodePacked(_name))];\n    }\n\n    // ----------------\n    // PRIVATE FUNCTIONS\n    // ----------------\n\n    /**\n  @dev resolves a challenge for the provided _propID. It must be checked in\n       advance whether the _propID has a challenge on it\n  @param _propID the proposal ID whose challenge is to be resolved.\n  */\n    function resolveChallenge(bytes32 _propID) private {\n        ParamProposal memory prop = proposals[_propID];\n        Challenge storage challenge = challenges[prop.challengeID];\n\n        // winner gets back their full staked deposit, and dispensationPct*loser's stake\n        uint256 reward = challengeWinnerReward(prop.challengeID);\n\n        if (voting.isPassed(prop.challengeID)) {\n            // The challenge failed\n            /* solium-disable-next-line security/no-block-members*/\n            if (prop.processBy > block.timestamp) {\n                set(prop.name, prop.value);\n            }\n            require(token.transfer(prop.owner, reward), \"Token transfer failed on failed challenge\");\n        } else {\n            // The challenge succeeded\n            require(\n                token.transfer(challenges[prop.challengeID].challenger, reward),\n                \"Token transfer failed on successful challenge\"\n            );\n        }\n\n        challenge.winningTokens = voting.getTotalNumberOfTokensForWinningOption(\n            prop.challengeID\n        );\n        challenge.resolved = true;\n    }\n\n    /**\n  @dev sets the param keyed by the provided name to the provided value\n  @param _name the name of the param to be set\n  @param _value the value to set the param to be set\n  */\n    function set(string memory _name, uint256 _value) private {\n        params[keccak256(abi.encodePacked(_name))] = _value;\n    }\n}\n",
  "sourcePath": "/Users/davidkajpust/coding-no-icloud-backup/thegraph/dave/crypto-projects-registry/crypto-projects-registry/contracts/Parameterizer.sol",
  "compiler": {
    "name": "solc",
    "version": "0.5.8+commit.23d335f2.Emscripten.clang"
  },
  "schemaVersion": "3.0.17",
  "updatedAt": "2019-11-25T18:37:22.573Z",
  "devdoc": {
    "methods": {
      "canBeSet(bytes32)": {
        "params": {
          "_propID": "The proposal ID to determine if the application stage passed without a challenge"
        }
      },
      "challengeCanBeResolved(bytes32)": {
        "params": {
          "_propID": "The proposal ID whose challenge to inspect"
        }
      },
      "challengeReparameterization(bytes32)": {
        "params": {
          "_propID": "the proposal ID to challenge"
        }
      },
      "challengeWinnerReward(uint256)": {
        "params": {
          "_challengeID": "The challengeID to determine a reward for"
        }
      },
      "claimVoterReward(uint256)": {
        "params": {
          "_challengeID": "the challenge ID to claim tokens for"
        }
      },
      "constructor": {
        "details": "constructor",
        "params": {
          "_dispensationPct": "% of losing party's deposit sent to winning party",
          "_pApplyStageLen": "period over which reparmeterization proposal's wait to be processed",
          "_pDispensationPct": "% of losing party's deposit sent to winning party in parameterizer",
          "_pRequiredDeposit": "required deposit to propose a reparameterization",
          "_pVoteQuorum": "type of majority out of 100 necessary for vote success in parameterizer",
          "_pVoteStageLen": "length of commit period for voting in parameterizer",
          "_plmAddr": "address of a PLM voting contract for the provided token",
          "_requiredDeposit": "required deposit for listing to be whitelisted",
          "_tokenAddr": "address of the token which parameterizes this system",
          "_voteQuorum": "type of majority out of 100 necessary for vote success",
          "_voteStageLen": "length of commit period for voting"
        }
      },
      "get(string)": {
        "params": {
          "_name": "the key whose value is to be determined"
        }
      },
      "processProposal(bytes32)": {
        "params": {
          "_propID": "the proposal ID to make a determination and state transition for"
        }
      },
      "propExists(bytes32)": {
        "params": {
          "_propID": "The proposal ID whose existance is to be determined"
        }
      },
      "proposeReparameterization(string,uint256)": {
        "params": {
          "_name": "the name of the proposed param to be set",
          "_value": "the proposed value to set the param to be set"
        }
      },
      "voterReward(address,uint256)": {
        "details": "Calculates the provided voter's token reward for the given poll.",
        "params": {
          "_challengeID": "The ID of the challenge the voter's reward is being calculated for",
          "_voter": "The address of the voter whose reward balance is to be returned"
        },
        "return": "The uint indicating the voter's reward"
      }
    }
  },
  "userdoc": {
    "methods": {
      "canBeSet(bytes32)": {
        "notice": "Determines whether a proposal passed its application stage without a challenge"
      },
      "challengeCanBeResolved(bytes32)": {
        "notice": "Determines whether the provided proposal ID has a challenge which can be resolved"
      },
      "challengeReparameterization(bytes32)": {
        "notice": "challenge the provided proposal ID, and put tokens at stake to do so."
      },
      "challengeWinnerReward(uint256)": {
        "notice": "Determines the number of tokens to be awarded to the winning party in a challenge"
      },
      "claimVoterReward(uint256)": {
        "notice": "claim the tokens owed for the msg.sender in the provided challenge"
      },
      "get(string)": {
        "notice": "gets the parameter keyed by the provided name value from the params mapping"
      },
      "processProposal(bytes32)": {
        "notice": "for the provided proposal ID, set it, resolve its challenge, or delete it depending on whether it can be set, has a challenge which can be resolved, or if its \"process by\" date has passed"
      },
      "propExists(bytes32)": {
        "notice": "Determines whether a proposal exists for the provided proposal ID"
      },
      "proposeReparameterization(string,uint256)": {
        "notice": "propose a reparamaterization of the key _name's value to _value."
      }
    }
  }
}