{
  "contractName": "PLCRVoting",
  "abi": [
    {
      "constant": true,
      "inputs": [],
      "name": "INITIAL_POLL_NONCE",
      "outputs": [
        {
          "name": "",
          "type": "uint256"
        }
      ],
      "payable": false,
      "stateMutability": "view",
      "type": "function"
    },
    {
      "constant": true,
      "inputs": [
        {
          "name": "",
          "type": "address"
        }
      ],
      "name": "voteTokenBalance",
      "outputs": [
        {
          "name": "",
          "type": "uint256"
        }
      ],
      "payable": false,
      "stateMutability": "view",
      "type": "function"
    },
    {
      "constant": true,
      "inputs": [
        {
          "name": "",
          "type": "uint256"
        }
      ],
      "name": "pollMap",
      "outputs": [
        {
          "name": "commitEndDate",
          "type": "uint256"
        },
        {
          "name": "revealEndDate",
          "type": "uint256"
        },
        {
          "name": "voteQuorum",
          "type": "uint256"
        },
        {
          "name": "votesFor",
          "type": "uint256"
        },
        {
          "name": "votesAgainst",
          "type": "uint256"
        }
      ],
      "payable": false,
      "stateMutability": "view",
      "type": "function"
    },
    {
      "constant": true,
      "inputs": [],
      "name": "pollNonce",
      "outputs": [
        {
          "name": "",
          "type": "uint256"
        }
      ],
      "payable": false,
      "stateMutability": "view",
      "type": "function"
    },
    {
      "constant": true,
      "inputs": [],
      "name": "token",
      "outputs": [
        {
          "name": "",
          "type": "address"
        }
      ],
      "payable": false,
      "stateMutability": "view",
      "type": "function"
    },
    {
      "inputs": [
        {
          "name": "_tokenAddr",
          "type": "address"
        }
      ],
      "payable": false,
      "stateMutability": "nonpayable",
      "type": "constructor"
    },
    {
      "anonymous": false,
      "inputs": [
        {
          "indexed": true,
          "name": "voter",
          "type": "address"
        },
        {
          "indexed": true,
          "name": "pollID",
          "type": "uint256"
        },
        {
          "indexed": true,
          "name": "numTokens",
          "type": "uint256"
        }
      ],
      "name": "VoteCommitted",
      "type": "event"
    },
    {
      "anonymous": false,
      "inputs": [
        {
          "indexed": true,
          "name": "voter",
          "type": "address"
        },
        {
          "indexed": true,
          "name": "pollID",
          "type": "uint256"
        },
        {
          "indexed": true,
          "name": "numTokens",
          "type": "uint256"
        },
        {
          "indexed": false,
          "name": "choice",
          "type": "uint256"
        }
      ],
      "name": "VoteRevealed",
      "type": "event"
    },
    {
      "anonymous": false,
      "inputs": [
        {
          "indexed": true,
          "name": "voteQuorum",
          "type": "uint256"
        },
        {
          "indexed": false,
          "name": "commitDuration",
          "type": "uint256"
        },
        {
          "indexed": false,
          "name": "revealDuration",
          "type": "uint256"
        },
        {
          "indexed": true,
          "name": "pollID",
          "type": "uint256"
        }
      ],
      "name": "PollCreated",
      "type": "event"
    },
    {
      "anonymous": false,
      "inputs": [
        {
          "indexed": true,
          "name": "voter",
          "type": "address"
        },
        {
          "indexed": true,
          "name": "numTokens",
          "type": "uint256"
        }
      ],
      "name": "VotingRightsGranted",
      "type": "event"
    },
    {
      "anonymous": false,
      "inputs": [
        {
          "indexed": true,
          "name": "voter",
          "type": "address"
        },
        {
          "indexed": true,
          "name": "numTokens",
          "type": "uint256"
        }
      ],
      "name": "VotingRightsWithdrawn",
      "type": "event"
    },
    {
      "constant": false,
      "inputs": [
        {
          "name": "_tokenAddr",
          "type": "address"
        }
      ],
      "name": "setup",
      "outputs": [],
      "payable": false,
      "stateMutability": "nonpayable",
      "type": "function"
    },
    {
      "constant": false,
      "inputs": [
        {
          "name": "_numTokens",
          "type": "uint256"
        }
      ],
      "name": "requestVotingRights",
      "outputs": [],
      "payable": false,
      "stateMutability": "nonpayable",
      "type": "function"
    },
    {
      "constant": false,
      "inputs": [
        {
          "name": "_numTokens",
          "type": "uint256"
        }
      ],
      "name": "withdrawVotingRights",
      "outputs": [],
      "payable": false,
      "stateMutability": "nonpayable",
      "type": "function"
    },
    {
      "constant": false,
      "inputs": [
        {
          "name": "_pollID",
          "type": "uint256"
        }
      ],
      "name": "rescueTokens",
      "outputs": [],
      "payable": false,
      "stateMutability": "nonpayable",
      "type": "function"
    },
    {
      "constant": false,
      "inputs": [
        {
          "name": "_pollID",
          "type": "uint256"
        },
        {
          "name": "_secretHash",
          "type": "bytes32"
        },
        {
          "name": "_numTokens",
          "type": "uint256"
        },
        {
          "name": "_prevPollID",
          "type": "uint256"
        }
      ],
      "name": "commitVote",
      "outputs": [],
      "payable": false,
      "stateMutability": "nonpayable",
      "type": "function"
    },
    {
      "constant": true,
      "inputs": [
        {
          "name": "_prevID",
          "type": "uint256"
        },
        {
          "name": "_nextID",
          "type": "uint256"
        },
        {
          "name": "_voter",
          "type": "address"
        },
        {
          "name": "_numTokens",
          "type": "uint256"
        }
      ],
      "name": "validPosition",
      "outputs": [
        {
          "name": "valid",
          "type": "bool"
        }
      ],
      "payable": false,
      "stateMutability": "view",
      "type": "function"
    },
    {
      "constant": false,
      "inputs": [
        {
          "name": "_pollID",
          "type": "uint256"
        },
        {
          "name": "_voteOption",
          "type": "uint256"
        },
        {
          "name": "_salt",
          "type": "uint256"
        }
      ],
      "name": "revealVote",
      "outputs": [],
      "payable": false,
      "stateMutability": "nonpayable",
      "type": "function"
    },
    {
      "constant": true,
      "inputs": [
        {
          "name": "_voter",
          "type": "address"
        },
        {
          "name": "_pollID",
          "type": "uint256"
        },
        {
          "name": "_salt",
          "type": "uint256"
        }
      ],
      "name": "getNumPassingTokens",
      "outputs": [
        {
          "name": "correctVotes",
          "type": "uint256"
        }
      ],
      "payable": false,
      "stateMutability": "view",
      "type": "function"
    },
    {
      "constant": false,
      "inputs": [
        {
          "name": "_voteQuorum",
          "type": "uint256"
        },
        {
          "name": "_commitDuration",
          "type": "uint256"
        },
        {
          "name": "_revealDuration",
          "type": "uint256"
        }
      ],
      "name": "startPoll",
      "outputs": [
        {
          "name": "pollID",
          "type": "uint256"
        }
      ],
      "payable": false,
      "stateMutability": "nonpayable",
      "type": "function"
    },
    {
      "constant": true,
      "inputs": [
        {
          "name": "_pollID",
          "type": "uint256"
        }
      ],
      "name": "isPassed",
      "outputs": [
        {
          "name": "passed",
          "type": "bool"
        }
      ],
      "payable": false,
      "stateMutability": "view",
      "type": "function"
    },
    {
      "constant": true,
      "inputs": [
        {
          "name": "_pollID",
          "type": "uint256"
        }
      ],
      "name": "getTotalNumberOfTokensForWinningOption",
      "outputs": [
        {
          "name": "numTokens",
          "type": "uint256"
        }
      ],
      "payable": false,
      "stateMutability": "view",
      "type": "function"
    },
    {
      "constant": true,
      "inputs": [
        {
          "name": "_pollID",
          "type": "uint256"
        }
      ],
      "name": "pollEnded",
      "outputs": [
        {
          "name": "ended",
          "type": "bool"
        }
      ],
      "payable": false,
      "stateMutability": "view",
      "type": "function"
    },
    {
      "constant": true,
      "inputs": [
        {
          "name": "_pollID",
          "type": "uint256"
        }
      ],
      "name": "commitPeriodActive",
      "outputs": [
        {
          "name": "active",
          "type": "bool"
        }
      ],
      "payable": false,
      "stateMutability": "view",
      "type": "function"
    },
    {
      "constant": true,
      "inputs": [
        {
          "name": "_pollID",
          "type": "uint256"
        }
      ],
      "name": "revealPeriodActive",
      "outputs": [
        {
          "name": "active",
          "type": "bool"
        }
      ],
      "payable": false,
      "stateMutability": "view",
      "type": "function"
    },
    {
      "constant": true,
      "inputs": [
        {
          "name": "_voter",
          "type": "address"
        },
        {
          "name": "_pollID",
          "type": "uint256"
        }
      ],
      "name": "hasBeenRevealed",
      "outputs": [
        {
          "name": "revealed",
          "type": "bool"
        }
      ],
      "payable": false,
      "stateMutability": "view",
      "type": "function"
    },
    {
      "constant": true,
      "inputs": [
        {
          "name": "_pollID",
          "type": "uint256"
        }
      ],
      "name": "pollExists",
      "outputs": [
        {
          "name": "exists",
          "type": "bool"
        }
      ],
      "payable": false,
      "stateMutability": "view",
      "type": "function"
    },
    {
      "constant": true,
      "inputs": [
        {
          "name": "_voter",
          "type": "address"
        },
        {
          "name": "_pollID",
          "type": "uint256"
        }
      ],
      "name": "getCommitHash",
      "outputs": [
        {
          "name": "commitHash",
          "type": "bytes32"
        }
      ],
      "payable": false,
      "stateMutability": "view",
      "type": "function"
    },
    {
      "constant": true,
      "inputs": [
        {
          "name": "_voter",
          "type": "address"
        },
        {
          "name": "_pollID",
          "type": "uint256"
        }
      ],
      "name": "getNumTokens",
      "outputs": [
        {
          "name": "numTokens",
          "type": "uint256"
        }
      ],
      "payable": false,
      "stateMutability": "view",
      "type": "function"
    },
    {
      "constant": true,
      "inputs": [
        {
          "name": "_voter",
          "type": "address"
        }
      ],
      "name": "getLastNode",
      "outputs": [
        {
          "name": "pollID",
          "type": "uint256"
        }
      ],
      "payable": false,
      "stateMutability": "view",
      "type": "function"
    },
    {
      "constant": true,
      "inputs": [
        {
          "name": "_voter",
          "type": "address"
        }
      ],
      "name": "getLockedTokens",
      "outputs": [
        {
          "name": "numTokens",
          "type": "uint256"
        }
      ],
      "payable": false,
      "stateMutability": "view",
      "type": "function"
    },
    {
      "constant": true,
      "inputs": [
        {
          "name": "_voter",
          "type": "address"
        },
        {
          "name": "_numTokens",
          "type": "uint256"
        }
      ],
      "name": "getInsertPointForNumTokens",
      "outputs": [
        {
          "name": "prevNode",
          "type": "uint256"
        }
      ],
      "payable": false,
      "stateMutability": "view",
      "type": "function"
    },
    {
      "constant": true,
      "inputs": [
        {
          "name": "_terminationDate",
          "type": "uint256"
        }
      ],
      "name": "isExpired",
      "outputs": [
        {
          "name": "expired",
          "type": "bool"
        }
      ],
      "payable": false,
      "stateMutability": "view",
      "type": "function"
    },
    {
      "constant": true,
      "inputs": [
        {
          "name": "_user",
          "type": "address"
        },
        {
          "name": "_pollID",
          "type": "uint256"
        }
      ],
      "name": "attrUUID",
      "outputs": [
        {
          "name": "UUID",
          "type": "bytes32"
        }
      ],
      "payable": false,
      "stateMutability": "pure",
      "type": "function"
    }
  ],
  "bytecode": "0x608060405234801561001057600080fd5b50604051602080620022178339810180604052602081101561003157600080fd5b81019080805190602001909291905050506100518161005760201b60201c565b506100fe565b600073ffffffffffffffffffffffffffffffffffffffff16600660009054906101000a900473ffffffffffffffffffffffffffffffffffffffff1673ffffffffffffffffffffffffffffffffffffffff16146100b257600080fd5b80600660006101000a81548173ffffffffffffffffffffffffffffffffffffffff021916908373ffffffffffffffffffffffffffffffffffffffff160217905550600060018190555050565b612109806200010e6000396000f3fe608060405234801561001057600080fd5b50600436106101c45760003560e01c806397508f36116100f9578063c622afb011610097578063d9548e5311610071578063d9548e531461091d578063e7b1d43c14610963578063ee68483014610991578063fc0c546a146109d7576101c4565b8063c622afb0146107f7578063d138209214610859578063d901402b146108bb576101c4565b8063a25236fe116100d3578063a25236fe146106d5578063a4439dc514610703578063b11d8bb814610749578063b43bd0691461078b576101c4565b806397508f36146106275780639760356014610645578063a1103f3714610673576101c4565b80636148fed5116101665780636cbf9c5e116101405780636cbf9c5e146104b557806372d8e44214610501578063819b02931461056757806388d21ff3146105e1576101c4565b80636148fed5146103bb57806366d38203146104195780636b2d95d41461045d576101c4565b80633b930294116101a25780633b9302941461027f578063427fa1d2146102d7578063441c77c01461032f5780634940318314610375576101c4565b8063053e71a6146101c95780632173a10f1461020b57806332ed3d6014610229575b600080fd5b6101f5600480360360208110156101df57600080fd5b8101908080359060200190929190505050610a21565b6040518082815260200191505060405180910390f35b610213610a80565b6040518082815260200191505060405180910390f35b6102696004803603606081101561023f57600080fd5b81019080803590602001909291908035906020019092919080359060200190929190505050610a85565b6040518082815260200191505060405180910390f35b6102c16004803603602081101561029557600080fd5b81019080803573ffffffffffffffffffffffffffffffffffffffff169060200190929190505050610b5a565b6040518082815260200191505060405180910390f35b610319600480360360208110156102ed57600080fd5b81019080803573ffffffffffffffffffffffffffffffffffffffff169060200190929190505050610b72565b6040518082815260200191505060405180910390f35b61035b6004803603602081101561034557600080fd5b8101908080359060200190929190505050610c4e565b604051808215151515815260200191505060405180910390f35b6103a16004803603602081101561038b57600080fd5b8101908080359060200190929190505050610c9b565b604051808215151515815260200191505060405180910390f35b6103e7600480360360208110156103d157600080fd5b8101908080359060200190929190505050610d2b565b604051808681526020018581526020018481526020018381526020018281526020019550505050505060405180910390f35b61045b6004803603602081101561042f57600080fd5b81019080803573ffffffffffffffffffffffffffffffffffffffff169060200190929190505050610d61565b005b61049f6004803603602081101561047357600080fd5b81019080803573ffffffffffffffffffffffffffffffffffffffff169060200190929190505050610e08565b6040518082815260200191505060405180910390f35b6104ff600480360360808110156104cb57600080fd5b8101908080359060200190929190803590602001909291908035906020019092919080359060200190929190505050610e23565b005b61054d6004803603604081101561051757600080fd5b81019080803573ffffffffffffffffffffffffffffffffffffffff16906020019092919080359060200190929190505050611303565b604051808215151515815260200191505060405180910390f35b6105c76004803603608081101561057d57600080fd5b810190808035906020019092919080359060200190929190803573ffffffffffffffffffffffffffffffffffffffff1690602001909291908035906020019092919050505061140b565b604051808215151515815260200191505060405180910390f35b61060d600480360360208110156105f757600080fd5b810190808035906020019092919050505061144f565b604051808215151515815260200191505060405180910390f35b61062f6114e1565b6040518082815260200191505060405180910390f35b6106716004803603602081101561065b57600080fd5b81019080803590602001909291905050506114e7565b005b6106bf6004803603604081101561068957600080fd5b81019080803573ffffffffffffffffffffffffffffffffffffffff169060200190929190803590602001909291905050506115bf565b6040518082815260200191505060405180910390f35b610701600480360360208110156106eb57600080fd5b8101908080359060200190929190505050611627565b005b61072f6004803603602081101561071957600080fd5b81019080803590602001909291905050506118c2565b604051808215151515815260200191505060405180910390f35b6107896004803603606081101561075f57600080fd5b810190808035906020019092919080359060200190929190803590602001909291905050506118fd565b005b6107e1600480360360608110156107a157600080fd5b81019080803573ffffffffffffffffffffffffffffffffffffffff1690602001909291908035906020019092919080359060200190929190505050611ad0565b6040518082815260200191505060405180910390f35b6108436004803603604081101561080d57600080fd5b81019080803573ffffffffffffffffffffffffffffffffffffffff16906020019092919080359060200190929190505050611b78565b6040518082815260200191505060405180910390f35b6108a56004803603604081101561086f57600080fd5b81019080803573ffffffffffffffffffffffffffffffffffffffff16906020019092919080359060200190929190505050611ca0565b6040518082815260200191505060405180910390f35b610907600480360360408110156108d157600080fd5b81019080803573ffffffffffffffffffffffffffffffffffffffff16906020019092919080359060200190929190505050611d81565b6040518082815260200191505060405180910390f35b6109496004803603602081101561093357600080fd5b8101908080359060200190929190505050611e65565b604051808215151515815260200191505060405180910390f35b61098f6004803603602081101561097957600080fd5b8101908080359060200190929190505050611e71565b005b6109bd600480360360208110156109a757600080fd5b810190808035906020019092919050505061204e565b604051808215151515815260200191505060405180910390f35b6109df612088565b604051808273ffffffffffffffffffffffffffffffffffffffff1673ffffffffffffffffffffffffffffffffffffffff16815260200191505060405180910390f35b6000610a2c8261204e565b610a3557600080fd5b610a3e82610c9b565b15610a615760026000838152602001908152602001600020600301549050610a7b565b600260008381526020019081526020016000206004015490505b919050565b600081565b600060018054016001819055506040518060a001604052808442018152602001838542010181526020018581526020016000815260200160008152506002600060015481526020019081526020016000206000820151816000015560208201518160010155604082015181600201556060820151816003015560808201518160040155905050600154847fef096063d99f4ef9370b5e89d45025615c869845ca33878d173e8dca429b2be08585604051808381526020018281526020019250505060405180910390a360015490509392505050565b60036020528060005260406000206000915090505481565b6000600460008373ffffffffffffffffffffffffffffffffffffffff1673ffffffffffffffffffffffffffffffffffffffff16815260200190815260200160002073__DLL___________________________________6330fe0a0a909160006040518363ffffffff1660e01b8152600401808381526020018281526020019250505060206040518083038186803b158015610c0c57600080fd5b505af4158015610c20573d6000803e3d6000fd5b505050506040513d6020811015610c3657600080fd5b81019080805190602001909291905050509050919050565b6000610c598261144f565b610c6257600080fd5b610c816002600084815260200190815260200160002060010154611e65565b158015610c945750610c92826118c2565b155b9050919050565b6000610ca68261204e565b610caf57600080fd5b610cb76120ae565b600260008481526020019081526020016000206040518060a00160405290816000820154815260200160018201548152602001600282015481526020016003820154815260200160048201548152505090508060800151816060015101816040015102816060015160640211915050919050565b60026020528060005260406000206000915090508060000154908060010154908060020154908060030154908060040154905085565b600073ffffffffffffffffffffffffffffffffffffffff16600660009054906101000a900473ffffffffffffffffffffffffffffffffffffffff1673ffffffffffffffffffffffffffffffffffffffff1614610dbc57600080fd5b80600660006101000a81548173ffffffffffffffffffffffffffffffffffffffff021916908373ffffffffffffffffffffffffffffffffffffffff160217905550600060018190555050565b6000610e1c82610e1784610b72565b611ca0565b9050919050565b610e2c846118c2565b610e3557600080fd5b81600360003373ffffffffffffffffffffffffffffffffffffffff1673ffffffffffffffffffffffffffffffffffffffff168152602001908152602001600020541015610e8157600080fd5b6000841415610e8f57600080fd5b6000811480610eaa57506000801b610ea73383611d81565b14155b610eb357600080fd5b6000600460003373ffffffffffffffffffffffffffffffffffffffff1673ffffffffffffffffffffffffffffffffffffffff16815260200190815260200160002073__DLL___________________________________6307d29ac99091846040518363ffffffff1660e01b8152600401808381526020018281526020019250505060206040518083038186803b158015610f4c57600080fd5b505af4158015610f60573d6000803e3d6000fd5b505050506040513d6020811015610f7657600080fd5b81019080805190602001909291905050509050848114610f965780611069565b600460003373ffffffffffffffffffffffffffffffffffffffff1673ffffffffffffffffffffffffffffffffffffffff16815260200190815260200160002073__DLL___________________________________6307d29ac99091876040518363ffffffff1660e01b8152600401808381526020018281526020019250505060206040518083038186803b15801561102d57600080fd5b505af4158015611041573d6000803e3d6000fd5b505050506040513d602081101561105757600080fd5b81019080805190602001909291905050505b90506110778282338661140b565b61108057600080fd5b600460003373ffffffffffffffffffffffffffffffffffffffff1673ffffffffffffffffffffffffffffffffffffffff16815260200190815260200160002073__DLL___________________________________639735c51b90918488856040518563ffffffff1660e01b81526004018085815260200184815260200183815260200182815260200194505050505060006040518083038186803b15801561112757600080fd5b505af415801561113b573d6000803e3d6000fd5b50505050600061114b33876115bf565b9050600573__AttributeStore________________________63977aa031909183876040518463ffffffff1660e01b81526004018084815260200183815260200180602001838152602001828103825260098152602001807f6e756d546f6b656e73000000000000000000000000000000000000000000000081525060200194505050505060006040518083038186803b1580156111e857600080fd5b505af41580156111fc573d6000803e3d6000fd5b50505050600573__AttributeStore________________________63977aa0319091838860001c6040518463ffffffff1660e01b815260040180848152602001838152602001806020018381526020018281038252600a8152602001807f636f6d6d6974486173680000000000000000000000000000000000000000000081525060200194505050505060006040518083038186803b15801561129e57600080fd5b505af41580156112b2573d6000803e3d6000fd5b5050505083863373ffffffffffffffffffffffffffffffffffffffff167f1d1ce8842c4b2d0eaed42eb6d7732092ca85f0992cae9c760d181efcb0aedf4e60405160405180910390a4505050505050565b600061130e8261144f565b61131757600080fd5b6000801b6113258484611d81565b141561133057600080fd5b600460008473ffffffffffffffffffffffffffffffffffffffff1673ffffffffffffffffffffffffffffffffffffffff16815260200190815260200160002073__DLL___________________________________63366a5ba29091846040518363ffffffff1660e01b8152600401808381526020018281526020019250505060206040518083038186803b1580156113c757600080fd5b505af41580156113db573d6000803e3d6000fd5b505050506040513d60208110156113f157600080fd5b810190808051906020019092919050505015905092915050565b6000806114188487611ca0565b831015905060006114298587611ca0565b841115806114375750600086145b90508180156114435750805b92505050949350505050565b60008060026000848152602001908152602001600020600001549050600060026000858152602001908152602001600020600101549050600082148015611497575060008114155b1561149e57fe5b600082141580156114af5750600081145b156114b657fe5b60008214806114c55750600081145b156114d5576000925050506114dc565b6001925050505b919050565b60015481565b6114f08161204e565b6114f957600080fd5b6115033382611303565b1561150d57600080fd5b600460003373ffffffffffffffffffffffffffffffffffffffff1673ffffffffffffffffffffffffffffffffffffffff16815260200190815260200160002073__DLL___________________________________636d900ed09091836040518363ffffffff1660e01b8152600401808381526020018281526020019250505060006040518083038186803b1580156115a457600080fd5b505af41580156115b8573d6000803e3d6000fd5b5050505050565b60008282604051602001808373ffffffffffffffffffffffffffffffffffffffff1673ffffffffffffffffffffffffffffffffffffffff1660601b81526014018281526020019250505060405160208183030381529060405280519060200120905092915050565b80600660009054906101000a900473ffffffffffffffffffffffffffffffffffffffff1673ffffffffffffffffffffffffffffffffffffffff166370a08231336040518263ffffffff1660e01b8152600401808273ffffffffffffffffffffffffffffffffffffffff1673ffffffffffffffffffffffffffffffffffffffff16815260200191505060206040518083038186803b1580156116c757600080fd5b505afa1580156116db573d6000803e3d6000fd5b505050506040513d60208110156116f157600080fd5b8101908080519060200190929190505050101561170d57600080fd5b600660009054906101000a900473ffffffffffffffffffffffffffffffffffffffff1673ffffffffffffffffffffffffffffffffffffffff166323b872dd3330846040518463ffffffff1660e01b8152600401808473ffffffffffffffffffffffffffffffffffffffff1673ffffffffffffffffffffffffffffffffffffffff1681526020018373ffffffffffffffffffffffffffffffffffffffff1673ffffffffffffffffffffffffffffffffffffffff1681526020018281526020019350505050602060405180830381600087803b1580156117ea57600080fd5b505af11580156117fe573d6000803e3d6000fd5b505050506040513d602081101561181457600080fd5b810190808051906020019092919050505061182e57600080fd5b80600360003373ffffffffffffffffffffffffffffffffffffffff1673ffffffffffffffffffffffffffffffffffffffff16815260200190815260200160002060008282540192505081905550803373ffffffffffffffffffffffffffffffffffffffff167f4bdec44a53feb3aabedf51c989ff2b6aebe7369d3974f57c304758a8537281e160405160405180910390a350565b60006118cd8261144f565b6118d657600080fd5b6118f56002600084815260200190815260200160002060000154611e65565b159050919050565b61190683610c4e565b61190f57600080fd5b6119193384611303565b1561192357600080fd5b61192d3384611d81565b82826040516020018083815260200182815260200192505050604051602081830303815290604052805190602001201461196657600080fd5b60006119723385611ca0565b905060018314156119a6578060026000868152602001908152602001600020600301600082825401925050819055506119cb565b8060026000868152602001908152602001600020600401600082825401925050819055505b600460003373ffffffffffffffffffffffffffffffffffffffff1673ffffffffffffffffffffffffffffffffffffffff16815260200190815260200160002073__DLL___________________________________636d900ed09091866040518363ffffffff1660e01b8152600401808381526020018281526020019250505060006040518083038186803b158015611a6257600080fd5b505af4158015611a76573d6000803e3d6000fd5b5050505080843373ffffffffffffffffffffffffffffffffffffffff167f7f9df012dd015e7e61a4a17ccf8db7fb6afbe211465b5696368d1d6408d03311866040518082815260200191505060405180910390a450505050565b6000611adb8361204e565b611ae457600080fd5b611aee8484611303565b611af757600080fd5b6000611b0284610c9b565b611b0d576000611b10565b60015b60ff1690506000818460405160200180838152602001828152602001925050506040516020818303038152906040528051906020012090506000611b548787611d81565b9050808214611b6257600080fd5b611b6c8787611ca0565b93505050509392505050565b600080611b8484610b72565b90506000611b928583611ca0565b90505b60008114611c9457611ba78583611ca0565b905083811015611bbb578192505050611c9a565b600460008673ffffffffffffffffffffffffffffffffffffffff1673ffffffffffffffffffffffffffffffffffffffff16815260200190815260200160002073__DLL___________________________________6330fe0a0a9091846040518363ffffffff1660e01b8152600401808381526020018281526020019250505060206040518083038186803b158015611c5257600080fd5b505af4158015611c66573d6000803e3d6000fd5b505050506040513d6020811015611c7c57600080fd5b81019080805190602001909291905050509150611b95565b81925050505b92915050565b6000600573__AttributeStore________________________6350389f5c9091611cca86866115bf565b6040518363ffffffff1660e01b81526004018083815260200182815260200180602001828103825260098152602001807f6e756d546f6b656e730000000000000000000000000000000000000000000000815250602001935050505060206040518083038186803b158015611d3e57600080fd5b505af4158015611d52573d6000803e3d6000fd5b505050506040513d6020811015611d6857600080fd5b8101908080519060200190929190505050905092915050565b6000600573__AttributeStore________________________6350389f5c9091611dab86866115bf565b6040518363ffffffff1660e01b815260040180838152602001828152602001806020018281038252600a8152602001807f636f6d6d69744861736800000000000000000000000000000000000000000000815250602001935050505060206040518083038186803b158015611e1f57600080fd5b505af4158015611e33573d6000803e3d6000fd5b505050506040513d6020811015611e4957600080fd5b810190808051906020019092919050505060001b905092915050565b60008142119050919050565b6000611e7c33610e08565b600360003373ffffffffffffffffffffffffffffffffffffffff1673ffffffffffffffffffffffffffffffffffffffff1681526020019081526020016000205403905081811015611ecc57600080fd5b600660009054906101000a900473ffffffffffffffffffffffffffffffffffffffff1673ffffffffffffffffffffffffffffffffffffffff1663a9059cbb33846040518363ffffffff1660e01b8152600401808373ffffffffffffffffffffffffffffffffffffffff1673ffffffffffffffffffffffffffffffffffffffff16815260200182815260200192505050602060405180830381600087803b158015611f7557600080fd5b505af1158015611f89573d6000803e3d6000fd5b505050506040513d6020811015611f9f57600080fd5b8101908080519060200190929190505050611fb957600080fd5b81600360003373ffffffffffffffffffffffffffffffffffffffff1673ffffffffffffffffffffffffffffffffffffffff16815260200190815260200160002060008282540392505081905550813373ffffffffffffffffffffffffffffffffffffffff167f2c88837e03c4eee367d64fb379bbf7dad76a371c52622230bcf8b79728b9c53260405160405180910390a35050565b60006120598261144f565b61206257600080fd5b6120816002600084815260200190815260200160002060010154611e65565b9050919050565b600660009054906101000a900473ffffffffffffffffffffffffffffffffffffffff1681565b6040518060a001604052806000815260200160008152602001600081526020016000815260200160008152509056fea165627a7a72305820d31966de11c38af13e99a984b20d3650008b655f338a841a638b46479d5f7c600029",
  "source": "pragma solidity ^0.5.8;\nimport \"./TCRDevToken.sol\";\nimport \"./tcr-dependencies/DLL.sol\";\nimport \"./tcr-dependencies/AttributeStore.sol\";\n\n/**\n@title Partial-Lock-Commit-Reveal Voting scheme with ERC20 tokens\n@author Team: Aspyn Palatnick, Cem Ozer, Yorke Rhodes\n*/\ncontract PLCRVoting {\n\n    // ============\n    // EVENTS:\n    // ============\n\n    event VoteCommitted(address indexed voter, uint indexed pollID, uint indexed numTokens);\n    event VoteRevealed(address indexed voter, uint indexed pollID, uint indexed numTokens, uint choice);\n    event PollCreated(uint indexed voteQuorum, uint commitDuration, uint revealDuration, uint indexed pollID);\n    event VotingRightsGranted(address indexed voter, uint indexed numTokens);\n    event VotingRightsWithdrawn(address indexed voter, uint indexed numTokens);\n\n    // ============\n    // DATA STRUCTURES:\n    // ============\n\n    using AttributeStore for AttributeStore.Data;\n    using DLL for DLL.Data;\n\n    struct Poll {\n        uint commitEndDate;     /// expiration date of commit period for poll\n        uint revealEndDate;     /// expiration date of reveal period for poll\n        uint voteQuorum;        /// number of votes required for a proposal to pass\n        uint votesFor;          /// tally of votes supporting proposal\n        uint votesAgainst;      /// tally of votes countering proposal\n    }\n\n    // ============\n    // STATE VARIABLES:\n    // ============\n\n    PLCRVoting masterCopy; // THIS MUST ALWAYS BE THE FIRST STATE VARIABLE DECLARED!!!!!!\n\n    uint constant public INITIAL_POLL_NONCE = 0;\n    uint public pollNonce;\n\n    mapping(uint => Poll) public pollMap; // maps pollID to Poll struct\n    mapping(address => uint) public voteTokenBalance; // maps user's address to voteToken balance\n\n    mapping(address => DLL.Data) dllMap;\n    AttributeStore.Data store;\n\n    TCRDevToken public token;\n\n    // ============\n    // CONSTRUCTOR:\n    // ============\n\n    /**\n    @dev uses the setup function to initialize PLCR by specifying the token used for voting\n    @param _tokenAddr The address of the ERC20 token to be used for voting\n    */\n    constructor (address _tokenAddr) public {\n        setup(_tokenAddr);\n    }\n\n    /**\n    @dev initializes the contract by spcifying the token used for voting. Can be called by proxy\n    contracts to initialize their state.\n    @param _tokenAddr The address of the ERC20 token to be used for voting\n    */\n    function setup(address _tokenAddr) public {\n        require(address(token) == address(0));\n\n        token = TCRDevToken(_tokenAddr);\n        pollNonce = INITIAL_POLL_NONCE;\n    }\n\n    // ================\n    // TOKEN INTERFACE:\n    // ================\n\n    /**\n    @notice Loads _numTokens ERC20 tokens into the voting contract for one-to-one voting rights\n    @dev Assumes that msg.sender has approved voting contract to spend on their behalf\n    @param _numTokens The number of votingTokens desired in exchange for ERC20 tokens\n    */\n    function requestVotingRights(uint _numTokens) external {\n        require(token.balanceOf(msg.sender) >= _numTokens);\n        require(token.transferFrom(msg.sender, address(this), _numTokens));\n        voteTokenBalance[msg.sender] += _numTokens;\n        emit VotingRightsGranted(msg.sender, _numTokens);\n    }\n\n    /**\n    @notice Withdraw _numTokens ERC20 tokens from the voting contract, revoking these voting rights\n    @param _numTokens The number of ERC20 tokens desired in exchange for voting rights\n    */\n    function withdrawVotingRights(uint _numTokens) external {\n        uint availableTokens = voteTokenBalance[msg.sender] - getLockedTokens(msg.sender);\n        require(availableTokens >= _numTokens);\n        require(token.transfer(msg.sender, _numTokens));\n        voteTokenBalance[msg.sender] -= _numTokens;\n        emit VotingRightsWithdrawn(msg.sender, _numTokens);\n    }\n\n    /**\n    @dev Unlocks tokens locked in unrevealed vote where poll has ended\n    @param _pollID Integer identifier associated with the target poll\n    */\n    function rescueTokens(uint _pollID) external {\n        require(pollEnded(_pollID));\n        require(!hasBeenRevealed(msg.sender, _pollID));\n\n        dllMap[msg.sender].remove(_pollID);\n    }\n\n    // =================\n    // VOTING INTERFACE:\n    // =================\n\n    /**\n    @notice Commits vote using hash of choice and secret salt to conceal vote until reveal\n    @param _pollID Integer identifier associated with target poll\n    @param _secretHash Commit keccak256 hash of voter's choice and salt (tightly packed in this order)\n    @param _numTokens The number of tokens to be committed towards the target poll\n    @param _prevPollID The ID of the poll that the user has voted the maximum number of tokens in which is still less than or equal to numTokens\n    */\n    function commitVote(uint _pollID, bytes32 _secretHash, uint _numTokens, uint _prevPollID) external {\n        require(commitPeriodActive(_pollID));\n        require(voteTokenBalance[msg.sender] >= _numTokens); // prevent user from overspending\n        require(_pollID != 0);                // prevent user from committing to zero node placeholder\n\n        // TODO: Move all insert validation into the DLL lib\n        // Check if _prevPollID exists\n        require(_prevPollID == 0 || getCommitHash(msg.sender, _prevPollID) != 0);\n\n        uint nextPollID = dllMap[msg.sender].getNext(_prevPollID);\n\n        // if nextPollID is equal to _pollID, _pollID is being updated,\n        nextPollID = (nextPollID == _pollID) ? dllMap[msg.sender].getNext(_pollID) : nextPollID;\n\n        require(validPosition(_prevPollID, nextPollID, msg.sender, _numTokens));\n        dllMap[msg.sender].insert(_prevPollID, _pollID, nextPollID);\n\n        bytes32 UUID = attrUUID(msg.sender, _pollID);\n\n        store.setAttribute(UUID, \"numTokens\", _numTokens);\n        store.setAttribute(UUID, \"commitHash\", uint(_secretHash));\n\n        emit VoteCommitted(msg.sender, _pollID, _numTokens);\n    }\n\n    /**\n    @dev Compares previous and next poll's committed tokens for sorting purposes\n    @param _prevID Integer identifier associated with previous poll in sorted order\n    @param _nextID Integer identifier associated with next poll in sorted order\n    @param _voter Address of user to check DLL position for\n    @param _numTokens The number of tokens to be committed towards the poll (used for sorting)\n    @return valid Boolean indication of if the specified position maintains the sort\n    */\n    function validPosition(uint _prevID, uint _nextID, address _voter, uint _numTokens) public view returns (bool valid) {\n        bool prevValid = (_numTokens >= getNumTokens(_voter, _prevID));\n        // if next is zero node, _numTokens does not need to be greater\n        bool nextValid = (_numTokens <= getNumTokens(_voter, _nextID) || _nextID == 0);\n        return prevValid && nextValid;\n    }\n\n    /**\n    @notice Reveals vote with choice and secret salt used in generating commitHash to attribute committed tokens\n    @param _pollID Integer identifier associated with target poll\n    @param _voteOption Vote choice used to generate commitHash for associated poll\n    @param _salt Secret number used to generate commitHash for associated poll\n    */\n    function revealVote(uint _pollID, uint _voteOption, uint _salt) external {\n        // Make sure the reveal period is active\n        require(revealPeriodActive(_pollID));\n        require(!hasBeenRevealed(msg.sender, _pollID));                   // prevent user from revealing multiple times\n        require(keccak256(abi.encodePacked(_voteOption, _salt)) == getCommitHash(msg.sender, _pollID)); // compare resultant hash from inputs to original commitHash\n\n        uint numTokens = getNumTokens(msg.sender, _pollID);\n\n        if (_voteOption == 1) // apply numTokens to appropriate poll choice\n            pollMap[_pollID].votesFor += numTokens;\n        else\n            pollMap[_pollID].votesAgainst += numTokens;\n        \n        dllMap[msg.sender].remove(_pollID); // remove the node referring to this vote upon reveal\n\n        emit VoteRevealed(msg.sender, _pollID, numTokens, _voteOption);\n    }\n\n    /**\n    @param _pollID Integer identifier associated with target poll\n    @param _salt Arbitrarily chosen integer used to generate secretHash\n    @return correctVotes Number of tokens voted for winning option\n    */\n    function getNumPassingTokens(address _voter, uint _pollID, uint _salt) public view returns (uint correctVotes) {\n        require(pollEnded(_pollID));\n        require(hasBeenRevealed(_voter, _pollID));\n\n        uint winningChoice = isPassed(_pollID) ? 1 : 0;\n        bytes32 winnerHash = keccak256(abi.encodePacked(winningChoice, _salt));\n        bytes32 commitHash = getCommitHash(_voter, _pollID);\n\n        require(winnerHash == commitHash);\n\n        return getNumTokens(_voter, _pollID);\n    }\n\n    // ==================\n    // POLLING INTERFACE:\n    // ==================\n\n    /**\n    @dev Initiates a poll with canonical configured parameters at pollID emitted by PollCreated event\n    @param _voteQuorum Type of majority (out of 100) that is necessary for poll to be successful\n    @param _commitDuration Length of desired commit period in seconds\n    @param _revealDuration Length of desired reveal period in seconds\n    */\n    function startPoll(uint _voteQuorum, uint _commitDuration, uint _revealDuration) public returns (uint pollID) {\n        pollNonce = pollNonce + 1;\n\n        pollMap[pollNonce] = Poll({\n            voteQuorum: _voteQuorum,\n            commitEndDate: block.timestamp + _commitDuration,\n            revealEndDate: block.timestamp + _commitDuration + _revealDuration,\n            votesFor: 0,\n            votesAgainst: 0\n        });\n\n        emit PollCreated(_voteQuorum, _commitDuration, _revealDuration, pollNonce);\n        return pollNonce;\n    }\n\n    /**\n    @notice Determines if proposal has passed\n    @dev Check if votesFor out of totalVotes exceeds votesQuorum (requires pollEnded)\n    @param _pollID Integer identifier associated with target poll\n    */\n    function isPassed(uint _pollID) public view returns (bool passed) {\n        require(pollEnded(_pollID));\n\n        Poll memory poll = pollMap[_pollID];\n        return (100 * poll.votesFor) > (poll.voteQuorum * (poll.votesFor + poll.votesAgainst));\n    }\n\n    // ----------------\n    // POLLING HELPERS:\n    // ----------------\n\n    /**\n    @dev Gets the total winning votes for reward distribution purposes\n    @param _pollID Integer identifier associated with target poll\n    @return Total number of votes committed to the winning option for specified poll\n    */\n    function getTotalNumberOfTokensForWinningOption(uint _pollID) public view returns (uint numTokens) {\n        require(pollEnded(_pollID));\n\n        if (isPassed(_pollID))\n            return pollMap[_pollID].votesFor;\n        else\n            return pollMap[_pollID].votesAgainst;\n    }\n\n    /**\n    @notice Determines if poll is over\n    @dev Checks isExpired for specified poll's revealEndDate\n    @return Boolean indication of whether polling period is over\n    */\n    function pollEnded(uint _pollID) public view returns (bool ended) {\n        require(pollExists(_pollID));\n\n        return isExpired(pollMap[_pollID].revealEndDate);\n    }\n\n    /**\n    @notice Checks if the commit period is still active for the specified poll\n    @dev Checks isExpired for the specified poll's commitEndDate\n    @param _pollID Integer identifier associated with target poll\n    @return Boolean indication of isCommitPeriodActive for target poll\n    */\n    function commitPeriodActive(uint _pollID) public view returns (bool active) {\n        require(pollExists(_pollID));\n\n        return !isExpired(pollMap[_pollID].commitEndDate);\n    }\n\n    /**\n    @notice Checks if the reveal period is still active for the specified poll\n    @dev Checks isExpired for the specified poll's revealEndDate\n    @param _pollID Integer identifier associated with target poll\n    */\n    function revealPeriodActive(uint _pollID) public view returns (bool active) {\n        require(pollExists(_pollID));\n\n        return !isExpired(pollMap[_pollID].revealEndDate) && !commitPeriodActive(_pollID);\n    }\n\n    /**\n    @dev Checks if user has already revealed for specified poll\n    @param _voter Address of user to check against\n    @param _pollID Integer identifier associated with target poll\n    @return Boolean indication of whether user has already revealed\n    */\n    function hasBeenRevealed(address _voter, uint _pollID) public view returns (bool revealed) {\n        require(pollExists(_pollID));\n        require(getCommitHash(_voter, _pollID) != 0);\n\n        return !dllMap[_voter].contains(_pollID);\n    }\n\n    /**\n    @dev Checks if a poll exists, throws if the provided poll is in an impossible state\n    @param _pollID The pollID whose existance is to be evaluated.\n    @return Boolean Indicates whether a poll exists for the provided pollID\n    */\n    function pollExists(uint _pollID) public view returns (bool exists) {\n        uint commitEndDate = pollMap[_pollID].commitEndDate;\n        uint revealEndDate = pollMap[_pollID].revealEndDate;\n\n        assert(!(commitEndDate == 0 && revealEndDate != 0));\n        assert(!(commitEndDate != 0 && revealEndDate == 0));\n\n        if(commitEndDate == 0 || revealEndDate == 0) {return false;}\n        return true;\n    }\n\n    // ---------------------------\n    // DOUBLE-LINKED-LIST HELPERS:\n    // ---------------------------\n\n    /**\n    @dev Gets the bytes32 commitHash property of target poll\n    @param _voter Address of user to check against\n    @param _pollID Integer identifier associated with target poll\n    @return Bytes32 hash property attached to target poll\n    */\n    function getCommitHash(address _voter, uint _pollID) public view returns (bytes32 commitHash) {\n        return bytes32(store.getAttribute(attrUUID(_voter, _pollID), \"commitHash\"));\n    }\n\n    /**\n    @dev Wrapper for getAttribute with attrName=\"numTokens\"\n    @param _voter Address of user to check against\n    @param _pollID Integer identifier associated with target poll\n    @return Number of tokens committed to poll in sorted poll-linked-list\n    */\n    function getNumTokens(address _voter, uint _pollID) public view returns (uint numTokens) {\n        return store.getAttribute(attrUUID(_voter, _pollID), \"numTokens\");\n    }\n\n    /**\n    @dev Gets top element of sorted poll-linked-list\n    @param _voter Address of user to check against\n    @return Integer identifier to poll with maximum number of tokens committed to it\n    */\n    function getLastNode(address _voter) public view returns (uint pollID) {\n        return dllMap[_voter].getPrev(0);\n    }\n\n    /**\n    @dev Gets the numTokens property of getLastNode\n    @param _voter Address of user to check against\n    @return Maximum number of tokens committed in poll specified\n    */\n    function getLockedTokens(address _voter) public view returns (uint numTokens) {\n        return getNumTokens(_voter, getLastNode(_voter));\n    }\n\n    /**\n    @dev Gets the prevNode a new node should be inserted after given the sort factor\n    @param _voter The voter whose DLL will be searched\n    @param _numTokens The value for the numTokens attribute in the node to be inserted\n    @return the node which the propoded node should be inserted after\n    */\n    function getInsertPointForNumTokens(address _voter, uint _numTokens)\n    public view returns (uint prevNode) {\n        uint nodeID = getLastNode(_voter);\n        uint tokensInNode = getNumTokens(_voter, nodeID);\n\n        while(tokensInNode != 0) {\n            tokensInNode = getNumTokens(_voter, nodeID);\n            if(tokensInNode < _numTokens) {\n                return nodeID;\n            }\n            nodeID = dllMap[_voter].getPrev(nodeID);\n        }\n\n        return nodeID;\n    }\n\n    // ----------------\n    // GENERAL HELPERS:\n    // ----------------\n\n    /**\n    @dev Checks if an expiration date has been reached\n    @param _terminationDate Integer timestamp of date to compare current timestamp with\n    @return expired Boolean indication of whether the terminationDate has passed\n    */\n    function isExpired(uint _terminationDate) public view returns (bool expired) {\n        return (block.timestamp > _terminationDate);\n    }\n\n    /**\n    @dev Generates an identifier which associates a user and a poll together\n    @param _pollID Integer identifier associated with target poll\n    @return UUID Hash which is deterministic from _user and _pollID\n    */\n    function attrUUID(address _user, uint _pollID) public pure returns (bytes32 UUID) {\n        return keccak256(abi.encodePacked(_user, _pollID));\n    }\n}\n",
  "sourcePath": "/Users/davidkajpust/coding-no-icloud-backup/thegraph/dave/crypto-projects-registry/crypto-projects-registry/contracts/PLCRVoting.sol",
  "compiler": {
    "name": "solc",
    "version": "0.5.8+commit.23d335f2.Emscripten.clang"
  },
  "schemaVersion": "3.0.17",
  "updatedAt": "2019-11-06T20:46:57.600Z",
  "devdoc": {
    "author": "Team: Aspyn Palatnick, Cem Ozer, Yorke Rhodes",
    "methods": {
      "attrUUID(address,uint256)": {
        "details": "Generates an identifier which associates a user and a poll together",
        "params": {
          "_pollID": "Integer identifier associated with target poll"
        },
        "return": "UUID Hash which is deterministic from _user and _pollID"
      },
      "commitPeriodActive(uint256)": {
        "details": "Checks isExpired for the specified poll's commitEndDate",
        "params": {
          "_pollID": "Integer identifier associated with target poll"
        },
        "return": "Boolean indication of isCommitPeriodActive for target poll"
      },
      "commitVote(uint256,bytes32,uint256,uint256)": {
        "params": {
          "_numTokens": "The number of tokens to be committed towards the target poll",
          "_pollID": "Integer identifier associated with target poll",
          "_prevPollID": "The ID of the poll that the user has voted the maximum number of tokens in which is still less than or equal to numTokens",
          "_secretHash": "Commit keccak256 hash of voter's choice and salt (tightly packed in this order)"
        }
      },
      "constructor": {
        "details": "uses the setup function to initialize PLCR by specifying the token used for voting",
        "params": {
          "_tokenAddr": "The address of the ERC20 token to be used for voting"
        }
      },
      "getCommitHash(address,uint256)": {
        "details": "Gets the bytes32 commitHash property of target poll",
        "params": {
          "_pollID": "Integer identifier associated with target poll",
          "_voter": "Address of user to check against"
        },
        "return": "Bytes32 hash property attached to target poll"
      },
      "getInsertPointForNumTokens(address,uint256)": {
        "details": "Gets the prevNode a new node should be inserted after given the sort factor",
        "params": {
          "_numTokens": "The value for the numTokens attribute in the node to be inserted",
          "_voter": "The voter whose DLL will be searched"
        },
        "return": "the node which the propoded node should be inserted after"
      },
      "getLastNode(address)": {
        "details": "Gets top element of sorted poll-linked-list",
        "params": {
          "_voter": "Address of user to check against"
        },
        "return": "Integer identifier to poll with maximum number of tokens committed to it"
      },
      "getLockedTokens(address)": {
        "details": "Gets the numTokens property of getLastNode",
        "params": {
          "_voter": "Address of user to check against"
        },
        "return": "Maximum number of tokens committed in poll specified"
      },
      "getNumPassingTokens(address,uint256,uint256)": {
        "params": {
          "_pollID": "Integer identifier associated with target poll",
          "_salt": "Arbitrarily chosen integer used to generate secretHash"
        },
        "return": "correctVotes Number of tokens voted for winning option"
      },
      "getNumTokens(address,uint256)": {
        "details": "Wrapper for getAttribute with attrName=\"numTokens\"",
        "params": {
          "_pollID": "Integer identifier associated with target poll",
          "_voter": "Address of user to check against"
        },
        "return": "Number of tokens committed to poll in sorted poll-linked-list"
      },
      "getTotalNumberOfTokensForWinningOption(uint256)": {
        "details": "Gets the total winning votes for reward distribution purposes",
        "params": {
          "_pollID": "Integer identifier associated with target poll"
        },
        "return": "Total number of votes committed to the winning option for specified poll"
      },
      "hasBeenRevealed(address,uint256)": {
        "details": "Checks if user has already revealed for specified poll",
        "params": {
          "_pollID": "Integer identifier associated with target poll",
          "_voter": "Address of user to check against"
        },
        "return": "Boolean indication of whether user has already revealed"
      },
      "isExpired(uint256)": {
        "details": "Checks if an expiration date has been reached",
        "params": {
          "_terminationDate": "Integer timestamp of date to compare current timestamp with"
        },
        "return": "expired Boolean indication of whether the terminationDate has passed"
      },
      "isPassed(uint256)": {
        "details": "Check if votesFor out of totalVotes exceeds votesQuorum (requires pollEnded)",
        "params": {
          "_pollID": "Integer identifier associated with target poll"
        }
      },
      "pollEnded(uint256)": {
        "details": "Checks isExpired for specified poll's revealEndDate",
        "return": "Boolean indication of whether polling period is over"
      },
      "pollExists(uint256)": {
        "details": "Checks if a poll exists, throws if the provided poll is in an impossible state",
        "params": {
          "_pollID": "The pollID whose existance is to be evaluated."
        },
        "return": "Boolean Indicates whether a poll exists for the provided pollID"
      },
      "requestVotingRights(uint256)": {
        "details": "Assumes that msg.sender has approved voting contract to spend on their behalf",
        "params": {
          "_numTokens": "The number of votingTokens desired in exchange for ERC20 tokens"
        }
      },
      "rescueTokens(uint256)": {
        "details": "Unlocks tokens locked in unrevealed vote where poll has ended",
        "params": {
          "_pollID": "Integer identifier associated with the target poll"
        }
      },
      "revealPeriodActive(uint256)": {
        "details": "Checks isExpired for the specified poll's revealEndDate",
        "params": {
          "_pollID": "Integer identifier associated with target poll"
        }
      },
      "revealVote(uint256,uint256,uint256)": {
        "params": {
          "_pollID": "Integer identifier associated with target poll",
          "_salt": "Secret number used to generate commitHash for associated poll",
          "_voteOption": "Vote choice used to generate commitHash for associated poll"
        }
      },
      "setup(address)": {
        "details": "initializes the contract by spcifying the token used for voting. Can be called by proxy contracts to initialize their state.",
        "params": {
          "_tokenAddr": "The address of the ERC20 token to be used for voting"
        }
      },
      "startPoll(uint256,uint256,uint256)": {
        "details": "Initiates a poll with canonical configured parameters at pollID emitted by PollCreated event",
        "params": {
          "_commitDuration": "Length of desired commit period in seconds",
          "_revealDuration": "Length of desired reveal period in seconds",
          "_voteQuorum": "Type of majority (out of 100) that is necessary for poll to be successful"
        }
      },
      "validPosition(uint256,uint256,address,uint256)": {
        "details": "Compares previous and next poll's committed tokens for sorting purposes",
        "params": {
          "_nextID": "Integer identifier associated with next poll in sorted order",
          "_numTokens": "The number of tokens to be committed towards the poll (used for sorting)",
          "_prevID": "Integer identifier associated with previous poll in sorted order",
          "_voter": "Address of user to check DLL position for"
        },
        "return": "valid Boolean indication of if the specified position maintains the sort"
      },
      "withdrawVotingRights(uint256)": {
        "params": {
          "_numTokens": "The number of ERC20 tokens desired in exchange for voting rights"
        }
      }
    },
    "title": "Partial-Lock-Commit-Reveal Voting scheme with ERC20 tokens"
  },
  "userdoc": {
    "methods": {
      "commitPeriodActive(uint256)": {
        "notice": "Checks if the commit period is still active for the specified poll"
      },
      "commitVote(uint256,bytes32,uint256,uint256)": {
        "notice": "Commits vote using hash of choice and secret salt to conceal vote until reveal"
      },
      "isPassed(uint256)": {
        "notice": "Determines if proposal has passed"
      },
      "pollEnded(uint256)": {
        "notice": "Determines if poll is over"
      },
      "requestVotingRights(uint256)": {
        "notice": "Loads _numTokens ERC20 tokens into the voting contract for one-to-one voting rights"
      },
      "revealPeriodActive(uint256)": {
        "notice": "Checks if the reveal period is still active for the specified poll"
      },
      "revealVote(uint256,uint256,uint256)": {
        "notice": "Reveals vote with choice and secret salt used in generating commitHash to attribute committed tokens"
      },
      "withdrawVotingRights(uint256)": {
        "notice": "Withdraw _numTokens ERC20 tokens from the voting contract, revoking these voting rights"
      }
    }
  }
}