{
  "contractName": "PLMVoting",
  "abi": [
    {
      "constant": true,
      "inputs": [],
      "name": "INITIAL_POLL_NONCE",
      "outputs": [
        {
          "name": "",
          "type": "uint256"
        }
      ],
      "payable": false,
      "stateMutability": "view",
      "type": "function"
    },
    {
      "constant": true,
      "inputs": [
        {
          "name": "",
          "type": "address"
        }
      ],
      "name": "voteTokenBalance",
      "outputs": [
        {
          "name": "",
          "type": "uint256"
        }
      ],
      "payable": false,
      "stateMutability": "view",
      "type": "function"
    },
    {
      "constant": true,
      "inputs": [
        {
          "name": "",
          "type": "uint256"
        }
      ],
      "name": "pollMap",
      "outputs": [
        {
          "name": "voteQuorum",
          "type": "uint256"
        },
        {
          "name": "votingEndDate",
          "type": "uint256"
        },
        {
          "name": "votesFor",
          "type": "uint256"
        },
        {
          "name": "votesAgainst",
          "type": "uint256"
        }
      ],
      "payable": false,
      "stateMutability": "view",
      "type": "function"
    },
    {
      "constant": true,
      "inputs": [],
      "name": "pollNonce",
      "outputs": [
        {
          "name": "",
          "type": "uint256"
        }
      ],
      "payable": false,
      "stateMutability": "view",
      "type": "function"
    },
    {
      "constant": true,
      "inputs": [],
      "name": "token",
      "outputs": [
        {
          "name": "",
          "type": "address"
        }
      ],
      "payable": false,
      "stateMutability": "view",
      "type": "function"
    },
    {
      "inputs": [
        {
          "name": "_tokenAddr",
          "type": "address"
        }
      ],
      "payable": false,
      "stateMutability": "nonpayable",
      "type": "constructor"
    },
    {
      "anonymous": false,
      "inputs": [
        {
          "indexed": true,
          "name": "voter",
          "type": "address"
        },
        {
          "indexed": true,
          "name": "pollID",
          "type": "uint256"
        },
        {
          "indexed": true,
          "name": "numTokens",
          "type": "uint256"
        },
        {
          "indexed": false,
          "name": "choice",
          "type": "uint256"
        }
      ],
      "name": "Vote",
      "type": "event"
    },
    {
      "anonymous": false,
      "inputs": [
        {
          "indexed": true,
          "name": "voteQuorum",
          "type": "uint256"
        },
        {
          "indexed": false,
          "name": "voteDuration",
          "type": "uint256"
        },
        {
          "indexed": true,
          "name": "pollID",
          "type": "uint256"
        }
      ],
      "name": "PollCreated",
      "type": "event"
    },
    {
      "anonymous": false,
      "inputs": [
        {
          "indexed": true,
          "name": "voter",
          "type": "address"
        },
        {
          "indexed": true,
          "name": "numTokens",
          "type": "uint256"
        }
      ],
      "name": "VotingRightsGranted",
      "type": "event"
    },
    {
      "anonymous": false,
      "inputs": [
        {
          "indexed": true,
          "name": "voter",
          "type": "address"
        },
        {
          "indexed": true,
          "name": "numTokens",
          "type": "uint256"
        }
      ],
      "name": "VotingRightsWithdrawn",
      "type": "event"
    },
    {
      "constant": false,
      "inputs": [
        {
          "name": "_tokenAddr",
          "type": "address"
        }
      ],
      "name": "setup",
      "outputs": [],
      "payable": false,
      "stateMutability": "nonpayable",
      "type": "function"
    },
    {
      "constant": false,
      "inputs": [
        {
          "name": "_numTokens",
          "type": "uint256"
        }
      ],
      "name": "requestVotingRights",
      "outputs": [],
      "payable": false,
      "stateMutability": "nonpayable",
      "type": "function"
    },
    {
      "constant": false,
      "inputs": [
        {
          "name": "_numTokens",
          "type": "uint256"
        }
      ],
      "name": "withdrawVotingRights",
      "outputs": [],
      "payable": false,
      "stateMutability": "nonpayable",
      "type": "function"
    },
    {
      "constant": false,
      "inputs": [
        {
          "name": "_pollID",
          "type": "uint256"
        }
      ],
      "name": "rescueTokens",
      "outputs": [],
      "payable": false,
      "stateMutability": "nonpayable",
      "type": "function"
    },
    {
      "constant": false,
      "inputs": [
        {
          "name": "_pollIDs",
          "type": "uint256[]"
        },
        {
          "name": "_numTokens",
          "type": "uint256"
        }
      ],
      "name": "rescueAndWithdraw",
      "outputs": [],
      "payable": false,
      "stateMutability": "nonpayable",
      "type": "function"
    },
    {
      "constant": false,
      "inputs": [
        {
          "name": "_pollID",
          "type": "uint256"
        },
        {
          "name": "_numTokens",
          "type": "uint256"
        },
        {
          "name": "_prevPollID",
          "type": "uint256"
        },
        {
          "name": "_voteOption",
          "type": "uint256"
        }
      ],
      "name": "vote",
      "outputs": [],
      "payable": false,
      "stateMutability": "nonpayable",
      "type": "function"
    },
    {
      "constant": true,
      "inputs": [
        {
          "name": "_prevID",
          "type": "uint256"
        },
        {
          "name": "_nextID",
          "type": "uint256"
        },
        {
          "name": "_voter",
          "type": "address"
        },
        {
          "name": "_numTokens",
          "type": "uint256"
        }
      ],
      "name": "validPosition",
      "outputs": [
        {
          "name": "valid",
          "type": "bool"
        }
      ],
      "payable": false,
      "stateMutability": "view",
      "type": "function"
    },
    {
      "constant": true,
      "inputs": [
        {
          "name": "_voter",
          "type": "address"
        },
        {
          "name": "_pollID",
          "type": "uint256"
        }
      ],
      "name": "getNumPassingTokens",
      "outputs": [
        {
          "name": "correctVotes",
          "type": "uint256"
        }
      ],
      "payable": false,
      "stateMutability": "view",
      "type": "function"
    },
    {
      "constant": false,
      "inputs": [
        {
          "name": "_voteQuorum",
          "type": "uint256"
        },
        {
          "name": "_votingDuration",
          "type": "uint256"
        }
      ],
      "name": "startPoll",
      "outputs": [
        {
          "name": "pollID",
          "type": "uint256"
        }
      ],
      "payable": false,
      "stateMutability": "nonpayable",
      "type": "function"
    },
    {
      "constant": true,
      "inputs": [
        {
          "name": "_pollID",
          "type": "uint256"
        }
      ],
      "name": "isPassed",
      "outputs": [
        {
          "name": "passed",
          "type": "bool"
        }
      ],
      "payable": false,
      "stateMutability": "view",
      "type": "function"
    },
    {
      "constant": true,
      "inputs": [
        {
          "name": "_voter",
          "type": "address"
        },
        {
          "name": "_pollID",
          "type": "uint256"
        }
      ],
      "name": "getVoteChoice",
      "outputs": [
        {
          "name": "voteChoice",
          "type": "uint256"
        }
      ],
      "payable": false,
      "stateMutability": "view",
      "type": "function"
    },
    {
      "constant": true,
      "inputs": [
        {
          "name": "_pollID",
          "type": "uint256"
        }
      ],
      "name": "getTotalNumberOfTokensForWinningOption",
      "outputs": [
        {
          "name": "numTokens",
          "type": "uint256"
        }
      ],
      "payable": false,
      "stateMutability": "view",
      "type": "function"
    },
    {
      "constant": true,
      "inputs": [
        {
          "name": "_pollID",
          "type": "uint256"
        }
      ],
      "name": "pollEnded",
      "outputs": [
        {
          "name": "ended",
          "type": "bool"
        }
      ],
      "payable": false,
      "stateMutability": "view",
      "type": "function"
    },
    {
      "constant": true,
      "inputs": [
        {
          "name": "_pollID",
          "type": "uint256"
        }
      ],
      "name": "votingPeriodActive",
      "outputs": [
        {
          "name": "active",
          "type": "bool"
        }
      ],
      "payable": false,
      "stateMutability": "view",
      "type": "function"
    },
    {
      "constant": true,
      "inputs": [
        {
          "name": "_pollID",
          "type": "uint256"
        }
      ],
      "name": "pollExists",
      "outputs": [
        {
          "name": "exists",
          "type": "bool"
        }
      ],
      "payable": false,
      "stateMutability": "view",
      "type": "function"
    },
    {
      "constant": true,
      "inputs": [
        {
          "name": "_voter",
          "type": "address"
        },
        {
          "name": "_pollID",
          "type": "uint256"
        }
      ],
      "name": "getNumTokens",
      "outputs": [
        {
          "name": "numTokens",
          "type": "uint256"
        }
      ],
      "payable": false,
      "stateMutability": "view",
      "type": "function"
    },
    {
      "constant": true,
      "inputs": [
        {
          "name": "_voter",
          "type": "address"
        }
      ],
      "name": "getLastNode",
      "outputs": [
        {
          "name": "pollID",
          "type": "uint256"
        }
      ],
      "payable": false,
      "stateMutability": "view",
      "type": "function"
    },
    {
      "constant": true,
      "inputs": [
        {
          "name": "_voter",
          "type": "address"
        }
      ],
      "name": "getLockedTokens",
      "outputs": [
        {
          "name": "numTokens",
          "type": "uint256"
        }
      ],
      "payable": false,
      "stateMutability": "view",
      "type": "function"
    },
    {
      "constant": true,
      "inputs": [
        {
          "name": "_voter",
          "type": "address"
        },
        {
          "name": "_numTokens",
          "type": "uint256"
        }
      ],
      "name": "getInsertPointForNumTokens",
      "outputs": [
        {
          "name": "prevNode",
          "type": "uint256"
        }
      ],
      "payable": false,
      "stateMutability": "view",
      "type": "function"
    },
    {
      "constant": true,
      "inputs": [
        {
          "name": "_terminationDate",
          "type": "uint256"
        }
      ],
      "name": "isExpired",
      "outputs": [
        {
          "name": "expired",
          "type": "bool"
        }
      ],
      "payable": false,
      "stateMutability": "view",
      "type": "function"
    },
    {
      "constant": true,
      "inputs": [
        {
          "name": "_user",
          "type": "address"
        },
        {
          "name": "_pollID",
          "type": "uint256"
        }
      ],
      "name": "attrUUID",
      "outputs": [
        {
          "name": "UUID",
          "type": "bytes32"
        }
      ],
      "payable": false,
      "stateMutability": "pure",
      "type": "function"
    }
  ],
  "bytecode": "0x60806040523480156200001157600080fd5b506040516020806200258a833981018060405260208110156200003357600080fd5b810190808051906020019092919050505062000055816200005c60201b60201c565b5062000151565b600073ffffffffffffffffffffffffffffffffffffffff16600660009054906101000a900473ffffffffffffffffffffffffffffffffffffffff1673ffffffffffffffffffffffffffffffffffffffff161462000105576040517f08c379a0000000000000000000000000000000000000000000000000000000008152600401808060200182810382526027815260200180620025636027913960400191505060405180910390fd5b80600660006101000a81548173ffffffffffffffffffffffffffffffffffffffff021916908373ffffffffffffffffffffffffffffffffffffffff160217905550600060018190555050565b61240280620001616000396000f3fe608060405234801561001057600080fd5b506004361061018e5760003560e01c806388d21ff3116100de578063c5a0cb7211610097578063d9548e5311610071578063d9548e5314610861578063e7b1d43c146108a7578063ee684830146108d5578063fc0c546a1461091b5761018e565b8063c5a0cb721461073b578063c622afb01461079d578063d1382092146107ff5761018e565b806388d21ff3146105cd57806397508f36146106135780639760356014610631578063a1103f371461065f578063a25236fe146106c1578063b359dd43146106ef5761018e565b8063427fa1d21161014b57806366d382031161012557806366d382031461046b57806368c9e388146104af5780636b2d95d4146104fb578063819b0293146105535761018e565b8063427fa1d21461037657806349403183146103ce5780636148fed5146104145761018e565b8063053e71a6146101935780630c03fbd7146101d5578063158cf7ea146102375780632173a10f146102ba5780632f5511af146102d85780633b9302941461031e575b600080fd5b6101bf600480360360208110156101a957600080fd5b8101908080359060200190929190505050610965565b6040518082815260200191505060405180910390f35b610221600480360360408110156101eb57600080fd5b81019080803573ffffffffffffffffffffffffffffffffffffffff16906020019092919080359060200190929190505050610a2d565b6040518082815260200191505060405180910390f35b6102b86004803603604081101561024d57600080fd5b810190808035906020019064010000000081111561026a57600080fd5b82018360208201111561027c57600080fd5b8035906020019184602083028401116401000000008311171561029e57600080fd5b909192939192939080359060200190929190505050610b42565b005b6102c2610b87565b6040518082815260200191505060405180910390f35b610304600480360360208110156102ee57600080fd5b8101908080359060200190929190505050610b8c565b604051808215151515815260200191505060405180910390f35b6103606004803603602081101561033457600080fd5b81019080803573ffffffffffffffffffffffffffffffffffffffff169060200190929190505050610c30565b6040518082815260200191505060405180910390f35b6103b86004803603602081101561038c57600080fd5b81019080803573ffffffffffffffffffffffffffffffffffffffff169060200190929190505050610c48565b6040518082815260200191505060405180910390f35b6103fa600480360360208110156103e457600080fd5b8101908080359060200190929190505050610d24565b604051808215151515815260200191505060405180910390f35b6104406004803603602081101561042a57600080fd5b8101908080359060200190929190505050610e13565b6040518085815260200184815260200183815260200182815260200194505050505060405180910390f35b6104ad6004803603602081101561048157600080fd5b81019080803573ffffffffffffffffffffffffffffffffffffffff169060200190929190505050610e43565b005b6104f9600480360360808110156104c557600080fd5b8101908080359060200190929190803590602001909291908035906020019092919080359060200190929190505050610f36565b005b61053d6004803603602081101561051157600080fd5b81019080803573ffffffffffffffffffffffffffffffffffffffff169060200190929190505050611680565b6040518082815260200191505060405180910390f35b6105b36004803603608081101561056957600080fd5b810190808035906020019092919080359060200190929190803573ffffffffffffffffffffffffffffffffffffffff1690602001909291908035906020019092919050505061169b565b604051808215151515815260200191505060405180910390f35b6105f9600480360360208110156105e357600080fd5b81019080803590602001909291905050506116df565b604051808215151515815260200191505060405180910390f35b61061b611719565b6040518082815260200191505060405180910390f35b61065d6004803603602081101561064757600080fd5b810190808035906020019092919050505061171f565b005b6106ab6004803603604081101561067557600080fd5b81019080803573ffffffffffffffffffffffffffffffffffffffff1690602001909291908035906020019092919050505061184c565b6040518082815260200191505060405180910390f35b6106ed600480360360208110156106d757600080fd5b81019080803590602001909291905050506118b4565b005b6107256004803603604081101561070557600080fd5b810190808035906020019092919080359060200190929190505050611c04565b6040518082815260200191505060405180910390f35b6107876004803603604081101561075157600080fd5b81019080803573ffffffffffffffffffffffffffffffffffffffff16906020019092919080359060200190929190505050611cbc565b6040518082815260200191505060405180910390f35b6107e9600480360360408110156107b357600080fd5b81019080803573ffffffffffffffffffffffffffffffffffffffff16906020019092919080359060200190929190505050611d9d565b6040518082815260200191505060405180910390f35b61084b6004803603604081101561081557600080fd5b81019080803573ffffffffffffffffffffffffffffffffffffffff16906020019092919080359060200190929190505050611ec5565b6040518082815260200191505060405180910390f35b61088d6004803603602081101561087757600080fd5b8101908080359060200190929190505050611fa6565b604051808215151515815260200191505060405180910390f35b6108d3600480360360208110156108bd57600080fd5b8101908080359060200190929190505050611fb2565b005b610901600480360360208110156108eb57600080fd5b8101908080359060200190929190505050612244565b604051808215151515815260200191505060405180910390f35b6109236122e7565b604051808273ffffffffffffffffffffffffffffffffffffffff1673ffffffffffffffffffffffffffffffffffffffff16815260200191505060405180910390f35b600061097082612244565b6109e2576040517f08c379a00000000000000000000000000000000000000000000000000000000081526004018080602001828103825260128152602001807f506f6c6c20686173206e6f7420656e646564000000000000000000000000000081525060200191505060405180910390fd5b6109eb82610d24565b15610a0e5760026000838152602001908152602001600020600201549050610a28565b600260008381526020019081526020016000206003015490505b919050565b6000610a3882612244565b610aaa576040517f08c379a00000000000000000000000000000000000000000000000000000000081526004018080602001828103825260128152602001807f506f6c6c20686173206e6f7420656e646564000000000000000000000000000081525060200191505060405180910390fd5b6000610ab583610d24565b610ac0576000610ac3565b60015b60ff1690506000610ad48585611cbc565b9050808214610b2e576040517f08c379a00000000000000000000000000000000000000000000000000000000081526004018080602001828103825260298152602001806123896029913960400191505060405180910390fd5b610b388585611ec5565b9250505092915050565b60005b83839050811015610b7857610b6b848483818110610b5f57fe5b9050602002013561171f565b8080600101915050610b45565b50610b8281611fb2565b505050565b600081565b6000610b97826116df565b610c09576040517f08c379a00000000000000000000000000000000000000000000000000000000081526004018080602001828103825260138152602001807f506f6c6c20646f6573206e6f742065786973740000000000000000000000000081525060200191505060405180910390fd5b610c286002600084815260200190815260200160002060010154611fa6565b159050919050565b60036020528060005260406000206000915090505481565b6000600460008373ffffffffffffffffffffffffffffffffffffffff1673ffffffffffffffffffffffffffffffffffffffff16815260200190815260200160002073__DLL___________________________________6330fe0a0a909160006040518363ffffffff1660e01b8152600401808381526020018281526020019250505060206040518083038186803b158015610ce257600080fd5b505af4158015610cf6573d6000803e3d6000fd5b505050506040513d6020811015610d0c57600080fd5b81019080805190602001909291905050509050919050565b6000610d2f82612244565b610da1576040517f08c379a00000000000000000000000000000000000000000000000000000000081526004018080602001828103825260128152602001807f506f6c6c20686173206e6f7420656e646564000000000000000000000000000081525060200191505060405180910390fd5b610da961230d565b6002600084815260200190815260200160002060405180608001604052908160008201548152602001600182015481526020016002820154815260200160038201548152505090508060600151816040015101816000015102816040015160640211915050919050565b60026020528060005260406000206000915090508060000154908060010154908060020154908060030154905084565b600073ffffffffffffffffffffffffffffffffffffffff16600660009054906101000a900473ffffffffffffffffffffffffffffffffffffffff1673ffffffffffffffffffffffffffffffffffffffff1614610eea576040517f08c379a00000000000000000000000000000000000000000000000000000000081526004018080602001828103825260278152602001806123366027913960400191505060405180910390fd5b80600660006101000a81548173ffffffffffffffffffffffffffffffffffffffff021916908373ffffffffffffffffffffffffffffffffffffffff160217905550600060018190555050565b610f3f84610b8c565b610fb1576040517f08c379a000000000000000000000000000000000000000000000000000000000815260040180806020018281038252601f8152602001807f54686520766f74696e6720706572696f64206973206e6f74206163746976650081525060200191505060405180910390fd5b82600360003373ffffffffffffffffffffffffffffffffffffffff1673ffffffffffffffffffffffffffffffffffffffff168152602001908152602001600020541015611066576040517f08c379a00000000000000000000000000000000000000000000000000000000081526004018080602001828103825260208152602001807f5573657220646f6573206e6f74206861766520656e6f75676820746f6b656e7381525060200191505060405180910390fd5b60008414156110dd576040517f08c379a00000000000000000000000000000000000000000000000000000000081526004018080602001828103825260168152602001807f43616e277420636f6d6d697420746f2030206e6f64650000000000000000000081525060200191505060405180910390fd5b60008214806110f6575060006110f33384611cbc565b14155b611168576040517f08c379a000000000000000000000000000000000000000000000000000000000815260040180806020018281038252601f8152602001807f50726576696f757320706f6c6c20494420646f6573206e6f742065786973740081525060200191505060405180910390fd5b6000600460003373ffffffffffffffffffffffffffffffffffffffff1673ffffffffffffffffffffffffffffffffffffffff16815260200190815260200160002073__DLL___________________________________6307d29ac99091856040518363ffffffff1660e01b8152600401808381526020018281526020019250505060206040518083038186803b15801561120157600080fd5b505af4158015611215573d6000803e3d6000fd5b505050506040513d602081101561122b57600080fd5b8101908080519060200190929190505050905084811461124b578061131e565b600460003373ffffffffffffffffffffffffffffffffffffffff1673ffffffffffffffffffffffffffffffffffffffff16815260200190815260200160002073__DLL___________________________________6307d29ac99091876040518363ffffffff1660e01b8152600401808381526020018281526020019250505060206040518083038186803b1580156112e257600080fd5b505af41580156112f6573d6000803e3d6000fd5b505050506040513d602081101561130c57600080fd5b81019080805190602001909291905050505b905061132c8382338761169b565b61139e576040517f08c379a000000000000000000000000000000000000000000000000000000000815260040180806020018281038252601e8152602001807f506f6c6c732077657265206e6f7420736f727465642070726f7065726c79000081525060200191505060405180910390fd5b600460003373ffffffffffffffffffffffffffffffffffffffff1673ffffffffffffffffffffffffffffffffffffffff16815260200190815260200160002073__DLL___________________________________639735c51b90918588856040518563ffffffff1660e01b81526004018085815260200184815260200183815260200182815260200194505050505060006040518083038186803b15801561144557600080fd5b505af4158015611459573d6000803e3d6000fd5b505050506000611469338761184c565b9050600573__AttributeStore________________________63977aa031909183886040518463ffffffff1660e01b81526004018084815260200183815260200180602001838152602001828103825260098152602001807f6e756d546f6b656e73000000000000000000000000000000000000000000000081525060200194505050505060006040518083038186803b15801561150657600080fd5b505af415801561151a573d6000803e3d6000fd5b50505050600573__AttributeStore________________________63977aa031909183866040518463ffffffff1660e01b815260040180848152602001838152602001806020018381526020018281038252600a8152602001807f766f746543686f6963650000000000000000000000000000000000000000000081525060200194505050505060006040518083038186803b1580156115b957600080fd5b505af41580156115cd573d6000803e3d6000fd5b50505050600183141561160357846002600088815260200190815260200160002060020160008282540192505081905550611628565b8460026000888152602001908152602001600020600301600082825401925050819055505b84863373ffffffffffffffffffffffffffffffffffffffff167f6c7eb2743ec28489909706ea440d909129004996be657d36c6e9add778546abf866040518082815260200191505060405180910390a4505050505050565b60006116948261168f84610c48565b611ec5565b9050919050565b6000806116a88487611ec5565b831015905060006116b98587611ec5565b841115806116c75750600086145b90508180156116d35750805b92505050949350505050565b60008060026000848152602001908152602001600020600101549050600081141561170e576000915050611714565b60019150505b919050565b60015481565b61172881612244565b61179a576040517f08c379a00000000000000000000000000000000000000000000000000000000081526004018080602001828103825260168152602001807f506f6c6c20686173206e6f7420656e646564207965740000000000000000000081525060200191505060405180910390fd5b600460003373ffffffffffffffffffffffffffffffffffffffff1673ffffffffffffffffffffffffffffffffffffffff16815260200190815260200160002073__DLL___________________________________636d900ed09091836040518363ffffffff1660e01b8152600401808381526020018281526020019250505060006040518083038186803b15801561183157600080fd5b505af4158015611845573d6000803e3d6000fd5b5050505050565b60008282604051602001808373ffffffffffffffffffffffffffffffffffffffff1673ffffffffffffffffffffffffffffffffffffffff1660601b81526014018281526020019250505060405160208183030381529060405280519060200120905092915050565b80600660009054906101000a900473ffffffffffffffffffffffffffffffffffffffff1673ffffffffffffffffffffffffffffffffffffffff166370a08231336040518263ffffffff1660e01b8152600401808273ffffffffffffffffffffffffffffffffffffffff1673ffffffffffffffffffffffffffffffffffffffff16815260200191505060206040518083038186803b15801561195457600080fd5b505afa158015611968573d6000803e3d6000fd5b505050506040513d602081101561197e57600080fd5b810190808051906020019092919050505010156119e6576040517f08c379a00000000000000000000000000000000000000000000000000000000081526004018080602001828103825260258152602001806123b26025913960400191505060405180910390fd5b600660009054906101000a900473ffffffffffffffffffffffffffffffffffffffff1673ffffffffffffffffffffffffffffffffffffffff166323b872dd3330846040518463ffffffff1660e01b8152600401808473ffffffffffffffffffffffffffffffffffffffff1673ffffffffffffffffffffffffffffffffffffffff1681526020018373ffffffffffffffffffffffffffffffffffffffff1673ffffffffffffffffffffffffffffffffffffffff1681526020018281526020019350505050602060405180830381600087803b158015611ac357600080fd5b505af1158015611ad7573d6000803e3d6000fd5b505050506040513d6020811015611aed57600080fd5b8101908080519060200190929190505050611b70576040517f08c379a000000000000000000000000000000000000000000000000000000000815260040180806020018281038252600f8152602001807f5472616e73666572206661696c6564000000000000000000000000000000000081525060200191505060405180910390fd5b80600360003373ffffffffffffffffffffffffffffffffffffffff1673ffffffffffffffffffffffffffffffffffffffff16815260200190815260200160002060008282540192505081905550803373ffffffffffffffffffffffffffffffffffffffff167f4bdec44a53feb3aabedf51c989ff2b6aebe7369d3974f57c304758a8537281e160405160405180910390a350565b600060018054016001819055506040518060800160405280848152602001834201815260200160008152602001600081525060026000600154815260200190815260200160002060008201518160000155602082015181600101556040820151816002015560608201518160030155905050600154837fdb9a9e83ce84115bd05144b687def34270680d84d05889fa79ce0b7e4aa30c0f846040518082815260200191505060405180910390a3600154905092915050565b6000600573__AttributeStore________________________6350389f5c9091611ce6868661184c565b6040518363ffffffff1660e01b815260040180838152602001828152602001806020018281038252600a8152602001807f766f746543686f69636500000000000000000000000000000000000000000000815250602001935050505060206040518083038186803b158015611d5a57600080fd5b505af4158015611d6e573d6000803e3d6000fd5b505050506040513d6020811015611d8457600080fd5b8101908080519060200190929190505050905092915050565b600080611da984610c48565b90506000611db78583611ec5565b90505b60008114611eb957611dcc8583611ec5565b905083811015611de0578192505050611ebf565b600460008673ffffffffffffffffffffffffffffffffffffffff1673ffffffffffffffffffffffffffffffffffffffff16815260200190815260200160002073__DLL___________________________________6330fe0a0a9091846040518363ffffffff1660e01b8152600401808381526020018281526020019250505060206040518083038186803b158015611e7757600080fd5b505af4158015611e8b573d6000803e3d6000fd5b505050506040513d6020811015611ea157600080fd5b81019080805190602001909291905050509150611dba565b81925050505b92915050565b6000600573__AttributeStore________________________6350389f5c9091611eef868661184c565b6040518363ffffffff1660e01b81526004018083815260200182815260200180602001828103825260098152602001807f6e756d546f6b656e730000000000000000000000000000000000000000000000815250602001935050505060206040518083038186803b158015611f6357600080fd5b505af4158015611f77573d6000803e3d6000fd5b505050506040513d6020811015611f8d57600080fd5b8101908080519060200190929190505050905092915050565b60008142119050919050565b6000611fbd33611680565b600360003373ffffffffffffffffffffffffffffffffffffffff1673ffffffffffffffffffffffffffffffffffffffff1681526020019081526020016000205403905081811015612059576040517f08c379a000000000000000000000000000000000000000000000000000000000815260040180806020018281038252602c81526020018061235d602c913960400191505060405180910390fd5b600660009054906101000a900473ffffffffffffffffffffffffffffffffffffffff1673ffffffffffffffffffffffffffffffffffffffff1663a9059cbb33846040518363ffffffff1660e01b8152600401808373ffffffffffffffffffffffffffffffffffffffff1673ffffffffffffffffffffffffffffffffffffffff16815260200182815260200192505050602060405180830381600087803b15801561210257600080fd5b505af1158015612116573d6000803e3d6000fd5b505050506040513d602081101561212c57600080fd5b81019080805190602001909291905050506121af576040517f08c379a00000000000000000000000000000000000000000000000000000000081526004018080602001828103825260158152602001807f546f6b656e207472616e73666572206661696c6564000000000000000000000081525060200191505060405180910390fd5b81600360003373ffffffffffffffffffffffffffffffffffffffff1673ffffffffffffffffffffffffffffffffffffffff16815260200190815260200160002060008282540392505081905550813373ffffffffffffffffffffffffffffffffffffffff167f2c88837e03c4eee367d64fb379bbf7dad76a371c52622230bcf8b79728b9c53260405160405180910390a35050565b600061224f826116df565b6122c1576040517f08c379a00000000000000000000000000000000000000000000000000000000081526004018080602001828103825260138152602001807f506f6c6c20646f6573206e6f742065786973740000000000000000000000000081525060200191505060405180910390fd5b6122e06002600084815260200190815260200160002060010154611fa6565b9050919050565b600660009054906101000a900473ffffffffffffffffffffffffffffffffffffffff1681565b604051806080016040528060008152602001600081526020016000815260200160008152509056fe546f6b656e20616464726573732063616e27742062652073657420746f203020616464726573735573657220646f6573206e6f74206861766520656e6f75676820746f6b656e7320746f207769746864726177557365722063686f69636520646f6573206e6f74206d617463682077696e6e696e672063686f6963656d73672e73656e64657220646f65736e2774206861766520656e6f75676820746f6b656e73a165627a7a72305820af4942a1c9965c81b1a634414234eff2578c516405a2d8376b9844173cf255a00029546f6b656e20616464726573732063616e27742062652073657420746f20302061646472657373",
  "source": "pragma solidity ^0.5.8;\nimport \"./TCRDevToken.sol\";\nimport \"./tcr-dependencies/DLL.sol\";\nimport \"./tcr-dependencies/AttributeStore.sol\";\n\n// Partial-Lock-Majority Voting. Which is non-incentivized voting that can\n// be seen on the blockchain. Because there are no rewards for voting the right\n// way, this is OKAY\ncontract PLMVoting {\n\n    // ============\n    // EVENTS:\n    // ============\n\n    event Vote(\n        address indexed voter,\n        uint indexed pollID,\n        uint indexed numTokens,\n        uint choice\n    );\n    event PollCreated(\n        uint indexed voteQuorum,\n        uint voteDuration,\n        uint indexed pollID\n    );\n    event VotingRightsGranted(address indexed voter, uint indexed numTokens);\n    event VotingRightsWithdrawn(address indexed voter, uint indexed numTokens);\n\n    // ============\n    // DATA STRUCTURES:\n    // ============\n\n    using AttributeStore for AttributeStore.Data;\n    using DLL for DLL.Data;\n\n    struct Poll {\n        uint voteQuorum;        /// number of votes required for a proposal to pass\n        uint votingEndDate;     /// expiration date of commit period for poll\n        uint votesFor;          /// tally of votes supporting proposal\n        uint votesAgainst;      /// tally of votes countering proposal\n    }\n\n    // ============\n    // STATE VARIABLES:\n    // ============\n\n    PLMVoting masterCopy; // THIS MUST ALWAYS BE THE FIRST STATE VARIABLE DECLARED!!!!!!\n\n    uint constant public INITIAL_POLL_NONCE = 0;\n    uint public pollNonce;\n\n    mapping(uint => Poll) public pollMap; // maps pollID to Poll struct\n    mapping(address => uint) public voteTokenBalance; // maps user's address to voteToken balance\n\n    mapping(address => DLL.Data) dllMap;\n    AttributeStore.Data store;\n\n    TCRDevToken public token;\n\n    // ============\n    // CONSTRUCTOR:\n    // ============\n\n    /**\n    @dev uses the setup function to initialize PLM by specifying the token used for voting\n    @param _tokenAddr The address of the ERC20 token to be used for voting\n    */\n    constructor (address _tokenAddr) public {\n        setup(_tokenAddr);\n    }\n\n    /**\n    @dev initializes the contract by spcifying the token used for voting. Can be called by proxy\n    contracts to initialize their state.\n    @param _tokenAddr The address of the ERC20 token to be used for voting\n    */\n    function setup(address _tokenAddr) public {\n        require(address(token) == address(0), \"Token address can't be set to 0 address\");\n\n        token = TCRDevToken(_tokenAddr);\n        pollNonce = INITIAL_POLL_NONCE;\n    }\n\n    // ================\n    // TOKEN INTERFACE:\n    // ================\n\n    /**\n    @notice Loads _numTokens ERC20 tokens into the voting contract for one-to-one voting rights\n    @dev Assumes that msg.sender has approved voting contract to spend on their behalf\n    @param _numTokens The number of votingTokens desired in exchange for ERC20 tokens\n    */\n    function requestVotingRights(uint _numTokens) external {\n        require(token.balanceOf(msg.sender) >= _numTokens, \"msg.sender doesn't have enough tokens\");\n        require(token.transferFrom(msg.sender, address(this), _numTokens), \"Transfer failed\");\n        voteTokenBalance[msg.sender] += _numTokens;\n        emit VotingRightsGranted(msg.sender, _numTokens);\n    }\n\n    /**\n    @notice Withdraw _numTokens ERC20 tokens from the voting contract, revoking these voting rights\n    @param _numTokens The number of ERC20 tokens desired in exchange for voting rights\n    */\n    function withdrawVotingRights(uint _numTokens) public {\n        uint availableTokens = voteTokenBalance[msg.sender] - getLockedTokens(msg.sender);\n        require(availableTokens >= _numTokens, \"User does not have enough tokens to withdraw\");\n        require(token.transfer(msg.sender, _numTokens), \"Token transfer failed\");\n        voteTokenBalance[msg.sender] -= _numTokens;\n        emit VotingRightsWithdrawn(msg.sender, _numTokens);\n    }\n\n    /**\n    @dev Unlocks tokens locked in vote where poll has ended\n    @param _pollID Integer identifier associated with the target poll\n    */\n    function rescueTokens(uint _pollID) public {\n        require(pollEnded(_pollID), \"Poll has not ended yet\");\n        dllMap[msg.sender].remove(_pollID);\n    }\n\n    /**\n    @dev Rescue tokens from old polls, and then withdraw the designated amount of tokens. This\n         should be called so that the user can withdraw with one transaction\n    */\n    function rescueAndWithdraw(uint[] calldata _pollIDs, uint _numTokens) external {\n        for(uint256 i; i < _pollIDs.length; i++){\n            rescueTokens(_pollIDs[i]);\n        }\n        withdrawVotingRights(_numTokens);\n    }\n\n\n    // =================\n    // VOTING INTERFACE:\n    // =================\n\n    /**\n    @notice Commits vote\n    @param _pollID      Integer identifier associated with target poll\n    @param _numTokens   The number of tokens to be committed towards the target poll\n    @param _prevPollID  The ID of the poll that the user has voted the maximum number of tokens\n                        in which is still less than or equal to numTokens\n    @param _voteOption  True if voting yes, false if voting no\n    */\n    function vote(\n        uint _pollID,\n        uint _numTokens,\n        uint _prevPollID,\n        uint _voteOption\n\n    ) external {\n        require(votingPeriodActive(_pollID), \"The voting period is not active\");\n        require(voteTokenBalance[msg.sender] >= _numTokens, \"User does not have enough tokens\");\n        require(_pollID != 0, \"Can't commit to 0 node\");\n\n        // TODO: Move all insert validation into the DLL lib\n        // Check if _prevPollID exists\n        // TODO DK - can't this be 0 if smeone skipped the last poll?\n        // or is this requiring you insert your own previous poll? (I think this is the case)\n        require(\n            _prevPollID == 0 || getVoteChoice(msg.sender, _prevPollID) != 0,\n            \"Previous poll ID does not exist\"\n        );\n\n        uint nextPollID = dllMap[msg.sender].getNext(_prevPollID);\n\n        // if nextPollID is equal to _pollID, _pollID is being updated,\n        nextPollID = (nextPollID == _pollID) ? dllMap[msg.sender].getNext(_pollID) : nextPollID;\n\n        require(\n            validPosition(_prevPollID, nextPollID, msg.sender, _numTokens),\n            \"Polls were not sorted properly\"\n        );\n        dllMap[msg.sender].insert(_prevPollID, _pollID, nextPollID);\n\n        bytes32 UUID = attrUUID(msg.sender, _pollID);\n\n        store.setAttribute(UUID, \"numTokens\", _numTokens);\n        store.setAttribute(UUID, \"voteChoice\", _voteOption);\n\n        // 1 if voting yes, all other numbers if voting no\n        if (_voteOption == 1) // apply numTokens to appropriate poll choice\n            pollMap[_pollID].votesFor += _numTokens;\n        else\n            pollMap[_pollID].votesAgainst += _numTokens;\n\n        emit Vote(msg.sender, _pollID, _numTokens, _voteOption);\n    }\n\n    /**\n    @dev Compares previous and next poll's committed tokens for sorting purposes\n    @param _prevID Integer identifier associated with previous poll in sorted order\n    @param _nextID Integer identifier associated with next poll in sorted order\n    @param _voter Address of user to check DLL position for\n    @param _numTokens The number of tokens to be committed towards the poll (used for sorting)\n    @return valid Boolean indication of if the specified position maintains the sort\n    */\n    function validPosition(\n        uint _prevID,\n        uint _nextID,\n        address _voter,\n        uint _numTokens\n    ) public view returns (bool valid) {\n        bool prevValid = (_numTokens >= getNumTokens(_voter, _prevID));\n        // if next is zero node, _numTokens does not need to be greater\n        bool nextValid = (_numTokens <= getNumTokens(_voter, _nextID) || _nextID == 0);\n        return prevValid && nextValid;\n    }\n\n\n    /**\n    @param _pollID Integer identifier associated with target poll\n    @return correctVotes Number of tokens voted for winning option\n    */\n    function getNumPassingTokens(\n        address _voter,\n        uint _pollID\n    ) public view returns (uint correctVotes) {\n        require(pollEnded(_pollID), \"Poll has not ended\");\n\n        uint winningChoice = isPassed(_pollID) ? 1 : 0;\n        uint voteChoice = getVoteChoice(_voter, _pollID);\n\n        require(winningChoice == voteChoice, \"User choice does not match winning choice\");\n\n        return getNumTokens(_voter, _pollID);\n    }\n\n    // ==================\n    // POLLING INTERFACE:\n    // ==================\n\n    /**\n    @dev Initiates a poll with canonical configured parameters at pollID emitted by PollCreated event\n    @param _voteQuorum Type of majority (out of 100) that is necessary for poll to be successful\n    @param _votingDuration Length of voting duration for the challenge poll\n    */\n    function startPoll(\n        uint _voteQuorum,\n        uint _votingDuration\n    ) public returns (uint pollID) {\n        pollNonce = pollNonce + 1;\n\n        pollMap[pollNonce] = Poll({\n            voteQuorum: _voteQuorum,\n            /* solium-disable-next-line security/no-block-members*/\n            votingEndDate: block.timestamp + _votingDuration,\n            votesFor: 0,\n            votesAgainst: 0\n        });\n\n        emit PollCreated(_voteQuorum, _votingDuration, pollNonce);\n        return pollNonce;\n    }\n\n    /**\n    @notice Determines if proposal has passed\n    @dev Check if votesFor out of totalVotes exceeds votesQuorum (requires pollEnded)\n    @param _pollID Integer identifier associated with target poll\n    */\n    function isPassed(uint _pollID) public view returns (bool passed) {\n        require(pollEnded(_pollID), \"Poll has not ended\");\n\n        Poll memory poll = pollMap[_pollID];\n        return (100 * poll.votesFor) > (poll.voteQuorum * (poll.votesFor + poll.votesAgainst));\n    }\n\n    // ----------------\n    // POLLING HELPERS:\n    // ----------------\n\n    /**\n    @dev Gets the bytes32 voteChoice property of target poll\n    @param _voter Address of user to check against\n    @param _pollID Integer identifier associated with target poll\n    @return uint vote choice attached to target poll\n    */\n    function getVoteChoice(address _voter, uint _pollID) public view returns (uint voteChoice) {\n        return store.getAttribute(attrUUID(_voter, _pollID), \"voteChoice\");\n    }\n\n    /**\n    @dev Gets the total winning votes for reward distribution purposes\n    @param _pollID Integer identifier associated with target poll\n    @return Total number of votes committed to the winning option for specified poll\n    */\n    function getTotalNumberOfTokensForWinningOption(\n        uint _pollID\n    ) public view returns (uint numTokens) {\n        require(pollEnded(_pollID), \"Poll has not ended\");\n\n        if (isPassed(_pollID))\n            return pollMap[_pollID].votesFor;\n        else\n            return pollMap[_pollID].votesAgainst;\n    }\n\n    /**\n    @notice Determines if poll is over\n    @dev Checks isExpired for specified poll's revealEndDate\n    @return Boolean indication of whether polling period is over\n    */\n    function pollEnded(uint _pollID) public view returns (bool ended) {\n        require(pollExists(_pollID), \"Poll does not exist\");\n\n        return isExpired(pollMap[_pollID].votingEndDate);\n    }\n\n    /**\n    @notice Checks if the commit period is still active for the specified poll\n    @dev Checks isExpired for the specified poll's commitEndDate\n    @param _pollID Integer identifier associated with target poll\n    @return Boolean indication of isCommitPeriodActive for target poll\n    */\n    function votingPeriodActive(uint _pollID) public view returns (bool active) {\n        require(pollExists(_pollID), \"Poll does not exist\");\n\n        return !isExpired(pollMap[_pollID].votingEndDate);\n    }\n\n    /**\n    @dev Checks if a poll exists, throws if the provided poll is in an impossible state\n    @param _pollID The pollID whose existance is to be evaluated.\n    @return Boolean Indicates whether a poll exists for the provided pollID\n    */\n    function pollExists(uint _pollID) public view returns (bool exists) {\n        uint votingEndDate = pollMap[_pollID].votingEndDate;\n        if (votingEndDate == 0)\n            return false;\n        return true;\n    }\n\n    // ---------------------------\n    // DOUBLE-LINKED-LIST HELPERS:\n    // ---------------------------\n\n    /**\n    @dev Wrapper for getAttribute with attrName=\"numTokens\"\n    @param _voter Address of user to check against\n    @param _pollID Integer identifier associated with target poll\n    @return Number of tokens committed to poll in sorted poll-linked-list\n    */\n    function getNumTokens(address _voter, uint _pollID) public view returns (uint numTokens) {\n        return store.getAttribute(attrUUID(_voter, _pollID), \"numTokens\");\n    }\n\n    /**\n    @dev Gets top element of sorted poll-linked-list\n    @param _voter Address of user to check against\n    @return Integer identifier to poll with maximum number of tokens committed to it\n    */\n    function getLastNode(address _voter) public view returns (uint pollID) {\n        return dllMap[_voter].getPrev(0);\n    }\n\n    /**\n    @dev Gets the numTokens property of getLastNode\n    @param _voter Address of user to check against\n    @return Maximum number of tokens committed in poll specified\n    */\n    function getLockedTokens(address _voter) public view returns (uint numTokens) {\n        return getNumTokens(_voter, getLastNode(_voter));\n    }\n\n    /**\n    @dev Gets the prevNode a new node should be inserted after given the sort factor\n    @param _voter The voter whose DLL will be searched\n    @param _numTokens The value for the numTokens attribute in the node to be inserted\n    @return the node which the propoded node should be inserted after\n    */\n    function getInsertPointForNumTokens(address _voter, uint _numTokens)\n    public view returns (uint prevNode) {\n        uint nodeID = getLastNode(_voter);\n        uint tokensInNode = getNumTokens(_voter, nodeID);\n\n        while(tokensInNode != 0) {\n            tokensInNode = getNumTokens(_voter, nodeID);\n            if(tokensInNode < _numTokens) {\n                return nodeID;\n            }\n            nodeID = dllMap[_voter].getPrev(nodeID);\n        }\n\n        return nodeID;\n    }\n\n    // ----------------\n    // GENERAL HELPERS:\n    // ----------------\n\n    /**\n    @dev Checks if an expiration date has been reached\n    @param _terminationDate Integer timestamp of date to compare current timestamp with\n    @return expired Boolean indication of whether the terminationDate has passed\n    */\n    function isExpired(uint _terminationDate) public view returns (bool expired) {\n        /* solium-disable-next-line security/no-block-members*/\n        return (block.timestamp > _terminationDate);\n    }\n\n    /**\n    @dev Generates an identifier which associates a user and a poll together\n    @param _pollID Integer identifier associated with target poll\n    @return UUID Hash which is deterministic from _user and _pollID\n    */\n    function attrUUID(address _user, uint _pollID) public pure returns (bytes32 UUID) {\n        return keccak256(abi.encodePacked(_user, _pollID));\n    }\n}\n",
  "sourcePath": "/Users/davidkajpust/coding-no-icloud-backup/thegraph/dave/crypto-projects-registry/crypto-projects-registry/contracts/PLMVoting.sol",
  "compiler": {
    "name": "solc",
    "version": "0.5.8+commit.23d335f2.Emscripten.clang"
  },
  "schemaVersion": "3.0.17",
  "updatedAt": "2019-11-25T18:37:22.550Z",
  "devdoc": {
    "methods": {
      "attrUUID(address,uint256)": {
        "details": "Generates an identifier which associates a user and a poll together",
        "params": {
          "_pollID": "Integer identifier associated with target poll"
        },
        "return": "UUID Hash which is deterministic from _user and _pollID"
      },
      "constructor": {
        "details": "uses the setup function to initialize PLM by specifying the token used for voting",
        "params": {
          "_tokenAddr": "The address of the ERC20 token to be used for voting"
        }
      },
      "getInsertPointForNumTokens(address,uint256)": {
        "details": "Gets the prevNode a new node should be inserted after given the sort factor",
        "params": {
          "_numTokens": "The value for the numTokens attribute in the node to be inserted",
          "_voter": "The voter whose DLL will be searched"
        },
        "return": "the node which the propoded node should be inserted after"
      },
      "getLastNode(address)": {
        "details": "Gets top element of sorted poll-linked-list",
        "params": {
          "_voter": "Address of user to check against"
        },
        "return": "Integer identifier to poll with maximum number of tokens committed to it"
      },
      "getLockedTokens(address)": {
        "details": "Gets the numTokens property of getLastNode",
        "params": {
          "_voter": "Address of user to check against"
        },
        "return": "Maximum number of tokens committed in poll specified"
      },
      "getNumPassingTokens(address,uint256)": {
        "params": {
          "_pollID": "Integer identifier associated with target poll"
        },
        "return": "correctVotes Number of tokens voted for winning option"
      },
      "getNumTokens(address,uint256)": {
        "details": "Wrapper for getAttribute with attrName=\"numTokens\"",
        "params": {
          "_pollID": "Integer identifier associated with target poll",
          "_voter": "Address of user to check against"
        },
        "return": "Number of tokens committed to poll in sorted poll-linked-list"
      },
      "getTotalNumberOfTokensForWinningOption(uint256)": {
        "details": "Gets the total winning votes for reward distribution purposes",
        "params": {
          "_pollID": "Integer identifier associated with target poll"
        },
        "return": "Total number of votes committed to the winning option for specified poll"
      },
      "getVoteChoice(address,uint256)": {
        "details": "Gets the bytes32 voteChoice property of target poll",
        "params": {
          "_pollID": "Integer identifier associated with target poll",
          "_voter": "Address of user to check against"
        },
        "return": "uint vote choice attached to target poll"
      },
      "isExpired(uint256)": {
        "details": "Checks if an expiration date has been reached",
        "params": {
          "_terminationDate": "Integer timestamp of date to compare current timestamp with"
        },
        "return": "expired Boolean indication of whether the terminationDate has passed"
      },
      "isPassed(uint256)": {
        "details": "Check if votesFor out of totalVotes exceeds votesQuorum (requires pollEnded)",
        "params": {
          "_pollID": "Integer identifier associated with target poll"
        }
      },
      "pollEnded(uint256)": {
        "details": "Checks isExpired for specified poll's revealEndDate",
        "return": "Boolean indication of whether polling period is over"
      },
      "pollExists(uint256)": {
        "details": "Checks if a poll exists, throws if the provided poll is in an impossible state",
        "params": {
          "_pollID": "The pollID whose existance is to be evaluated."
        },
        "return": "Boolean Indicates whether a poll exists for the provided pollID"
      },
      "requestVotingRights(uint256)": {
        "details": "Assumes that msg.sender has approved voting contract to spend on their behalf",
        "params": {
          "_numTokens": "The number of votingTokens desired in exchange for ERC20 tokens"
        }
      },
      "rescueAndWithdraw(uint256[],uint256)": {
        "details": "Rescue tokens from old polls, and then withdraw the designated amount of tokens. This should be called so that the user can withdraw with one transaction"
      },
      "rescueTokens(uint256)": {
        "details": "Unlocks tokens locked in vote where poll has ended",
        "params": {
          "_pollID": "Integer identifier associated with the target poll"
        }
      },
      "setup(address)": {
        "details": "initializes the contract by spcifying the token used for voting. Can be called by proxy contracts to initialize their state.",
        "params": {
          "_tokenAddr": "The address of the ERC20 token to be used for voting"
        }
      },
      "startPoll(uint256,uint256)": {
        "details": "Initiates a poll with canonical configured parameters at pollID emitted by PollCreated event",
        "params": {
          "_voteQuorum": "Type of majority (out of 100) that is necessary for poll to be successful",
          "_votingDuration": "Length of voting duration for the challenge poll"
        }
      },
      "validPosition(uint256,uint256,address,uint256)": {
        "details": "Compares previous and next poll's committed tokens for sorting purposes",
        "params": {
          "_nextID": "Integer identifier associated with next poll in sorted order",
          "_numTokens": "The number of tokens to be committed towards the poll (used for sorting)",
          "_prevID": "Integer identifier associated with previous poll in sorted order",
          "_voter": "Address of user to check DLL position for"
        },
        "return": "valid Boolean indication of if the specified position maintains the sort"
      },
      "vote(uint256,uint256,uint256,uint256)": {
        "params": {
          "_numTokens": "The number of tokens to be committed towards the target poll",
          "_pollID": "Integer identifier associated with target poll",
          "_prevPollID": "The ID of the poll that the user has voted the maximum number of tokens in which is still less than or equal to numTokens",
          "_voteOption": "True if voting yes, false if voting no"
        }
      },
      "votingPeriodActive(uint256)": {
        "details": "Checks isExpired for the specified poll's commitEndDate",
        "params": {
          "_pollID": "Integer identifier associated with target poll"
        },
        "return": "Boolean indication of isCommitPeriodActive for target poll"
      },
      "withdrawVotingRights(uint256)": {
        "params": {
          "_numTokens": "The number of ERC20 tokens desired in exchange for voting rights"
        }
      }
    }
  },
  "userdoc": {
    "methods": {
      "isPassed(uint256)": {
        "notice": "Determines if proposal has passed"
      },
      "pollEnded(uint256)": {
        "notice": "Determines if poll is over"
      },
      "requestVotingRights(uint256)": {
        "notice": "Loads _numTokens ERC20 tokens into the voting contract for one-to-one voting rights"
      },
      "vote(uint256,uint256,uint256,uint256)": {
        "notice": "Commits vote"
      },
      "votingPeriodActive(uint256)": {
        "notice": "Checks if the commit period is still active for the specified poll"
      },
      "withdrawVotingRights(uint256)": {
        "notice": "Withdraw _numTokens ERC20 tokens from the voting contract, revoking these voting rights"
      }
    }
  }
}