{
  "contractName": "Registry",
  "abi": [
    {
      "inputs": [
        {
          "internalType": "address",
          "name": "_owner",
          "type": "address"
        },
        {
          "internalType": "bytes32",
          "name": "_charter",
          "type": "bytes32"
        }
      ],
      "payable": false,
      "stateMutability": "nonpayable",
      "type": "constructor"
    },
    {
      "anonymous": false,
      "inputs": [
        {
          "indexed": true,
          "internalType": "address",
          "name": "previousOwner",
          "type": "address"
        },
        {
          "indexed": true,
          "internalType": "address",
          "name": "newOwner",
          "type": "address"
        }
      ],
      "name": "OwnershipTransferred",
      "type": "event"
    },
    {
      "constant": true,
      "inputs": [],
      "name": "charter",
      "outputs": [
        {
          "internalType": "bytes32",
          "name": "",
          "type": "bytes32"
        }
      ],
      "payable": false,
      "stateMutability": "view",
      "type": "function"
    },
    {
      "constant": true,
      "inputs": [],
      "name": "isOwner",
      "outputs": [
        {
          "internalType": "bool",
          "name": "",
          "type": "bool"
        }
      ],
      "payable": false,
      "stateMutability": "view",
      "type": "function"
    },
    {
      "constant": true,
      "inputs": [
        {
          "internalType": "address",
          "name": "",
          "type": "address"
        }
      ],
      "name": "members",
      "outputs": [
        {
          "internalType": "uint256",
          "name": "challengeID",
          "type": "uint256"
        },
        {
          "internalType": "uint256",
          "name": "membershipStartTime",
          "type": "uint256"
        }
      ],
      "payable": false,
      "stateMutability": "view",
      "type": "function"
    },
    {
      "constant": true,
      "inputs": [],
      "name": "owner",
      "outputs": [
        {
          "internalType": "address",
          "name": "",
          "type": "address"
        }
      ],
      "payable": false,
      "stateMutability": "view",
      "type": "function"
    },
    {
      "constant": false,
      "inputs": [],
      "name": "renounceOwnership",
      "outputs": [],
      "payable": false,
      "stateMutability": "nonpayable",
      "type": "function"
    },
    {
      "constant": false,
      "inputs": [
        {
          "internalType": "address",
          "name": "newOwner",
          "type": "address"
        }
      ],
      "name": "transferOwnership",
      "outputs": [],
      "payable": false,
      "stateMutability": "nonpayable",
      "type": "function"
    },
    {
      "constant": true,
      "inputs": [
        {
          "internalType": "address",
          "name": "_member",
          "type": "address"
        }
      ],
      "name": "getChallengeID",
      "outputs": [
        {
          "internalType": "uint256",
          "name": "",
          "type": "uint256"
        }
      ],
      "payable": false,
      "stateMutability": "view",
      "type": "function"
    },
    {
      "constant": true,
      "inputs": [
        {
          "internalType": "address",
          "name": "_member",
          "type": "address"
        }
      ],
      "name": "getMembershipStartTime",
      "outputs": [
        {
          "internalType": "uint256",
          "name": "",
          "type": "uint256"
        }
      ],
      "payable": false,
      "stateMutability": "view",
      "type": "function"
    },
    {
      "constant": false,
      "inputs": [
        {
          "internalType": "bytes32",
          "name": "_newCharter",
          "type": "bytes32"
        }
      ],
      "name": "updateCharter",
      "outputs": [],
      "payable": false,
      "stateMutability": "nonpayable",
      "type": "function"
    },
    {
      "constant": false,
      "inputs": [
        {
          "internalType": "address",
          "name": "_member",
          "type": "address"
        },
        {
          "internalType": "uint256",
          "name": "_membershipStartTime",
          "type": "uint256"
        }
      ],
      "name": "setMember",
      "outputs": [],
      "payable": false,
      "stateMutability": "nonpayable",
      "type": "function"
    },
    {
      "constant": false,
      "inputs": [
        {
          "internalType": "address",
          "name": "_member",
          "type": "address"
        },
        {
          "internalType": "uint256",
          "name": "_newChallengeID",
          "type": "uint256"
        }
      ],
      "name": "editChallengeID",
      "outputs": [],
      "payable": false,
      "stateMutability": "nonpayable",
      "type": "function"
    },
    {
      "constant": false,
      "inputs": [
        {
          "internalType": "address",
          "name": "_member",
          "type": "address"
        },
        {
          "internalType": "uint256",
          "name": "_newTime",
          "type": "uint256"
        }
      ],
      "name": "editMembershipStartTime",
      "outputs": [],
      "payable": false,
      "stateMutability": "nonpayable",
      "type": "function"
    },
    {
      "constant": false,
      "inputs": [
        {
          "internalType": "address",
          "name": "_member",
          "type": "address"
        }
      ],
      "name": "deleteMember",
      "outputs": [],
      "payable": false,
      "stateMutability": "nonpayable",
      "type": "function"
    }
  ],
  "bytecode": "0x608060405234801561001057600080fd5b506040516108533803806108538339818101604052604081101561003357600080fd5b50805160209091015161004d6001600160e01b0361009e16565b600080546001600160a01b0319166001600160a01b03928316178082556040519216917f8be0079c531659141344cd1fd0a4f28419497f9722a3daafe3b4186f6b6457e0908290a3600255506100a2565b3390565b6107a2806100b16000396000f3fe608060405234801561001057600080fd5b50600436106100ce5760003560e01c8063422d17a91161008c5780638f32d59b116100665780638f32d59b1461023f578063b770464c1461025b578063c1aadb4d14610281578063f2fde38b14610289576100ce565b8063422d17a9146101e7578063715018a6146102135780638da5cb5b1461021b576100ce565b8062d264cc146100d35780630240a7cd1461010157806308ae4b0c1461011e57806311ffb1d41461015d5780632b94ea971461018357806333e6a54b146101bb575b600080fd5b6100ff600480360360408110156100e957600080fd5b506001600160a01b0381351690602001356102af565b005b6100ff6004803603602081101561011757600080fd5b5035610312565b6101446004803603602081101561013457600080fd5b50356001600160a01b031661035e565b6040805192835260208301919091528051918290030190f35b6100ff6004803603602081101561017357600080fd5b50356001600160a01b0316610377565b6101a96004803603602081101561019957600080fd5b50356001600160a01b03166103de565b60408051918252519081900360200190f35b6100ff600480360360408110156101d157600080fd5b506001600160a01b03813516906020013561041e565b6100ff600480360360408110156101fd57600080fd5b506001600160a01b0381351690602001356104a6565b6100ff61050d565b61022361059e565b604080516001600160a01b039092168252519081900360200190f35b6102476105ad565b604080519115158252519081900360200190f35b6101a96004803603602081101561027157600080fd5b50356001600160a01b03166105d1565b6101a9610610565b6100ff6004803603602081101561029f57600080fd5b50356001600160a01b0316610616565b6102b76105ad565b6102f6576040805162461bcd60e51b8152602060048201819052602482015260008051602061074e833981519152604482015290519081900360640190fd5b6001600160a01b03909116600090815260016020526040902055565b61031a6105ad565b610359576040805162461bcd60e51b8152602060048201819052602482015260008051602061074e833981519152604482015290519081900360640190fd5b600255565b6001602081905260009182526040909120805491015482565b61037f6105ad565b6103be576040805162461bcd60e51b8152602060048201819052602482015260008051602061074e833981519152604482015290519081900360640190fd5b6001600160a01b0316600090815260016020819052604082208281550155565b60006103e861070d565b50506001600160a01b03166000908152600160208181526040928390208351808501909452805480855292015492019190915290565b6104266105ad565b610465576040805162461bcd60e51b8152602060048201819052602482015260008051602061074e833981519152604482015290519081900360640190fd5b61046d61070d565b50604080518082018252600080825260208083019485526001600160a01b03909516815260019485905291909120905181559051910155565b6104ae6105ad565b6104ed576040805162461bcd60e51b8152602060048201819052602482015260008051602061074e833981519152604482015290519081900360640190fd5b6001600160a01b0390911660009081526001602081905260409091200155565b6105156105ad565b610554576040805162461bcd60e51b8152602060048201819052602482015260008051602061074e833981519152604482015290519081900360640190fd5b600080546040516001600160a01b03909116907f8be0079c531659141344cd1fd0a4f28419497f9722a3daafe3b4186f6b6457e0908390a3600080546001600160a01b0319169055565b6000546001600160a01b031690565b600080546001600160a01b03166105c2610669565b6001600160a01b031614905090565b60006105db61070d565b50506001600160a01b031660009081526001602081815260409283902083518085019094528054845290910154910181905290565b60025481565b61061e6105ad565b61065d576040805162461bcd60e51b8152602060048201819052602482015260008051602061074e833981519152604482015290519081900360640190fd5b6106668161066d565b50565b3390565b6001600160a01b0381166106b25760405162461bcd60e51b81526004018080602001828103825260268152602001806107286026913960400191505060405180910390fd5b600080546040516001600160a01b03808516939216917f8be0079c531659141344cd1fd0a4f28419497f9722a3daafe3b4186f6b6457e091a3600080546001600160a01b0319166001600160a01b0392909216919091179055565b60405180604001604052806000815260200160008152509056fe4f776e61626c653a206e6577206f776e657220697320746865207a65726f20616464726573734f776e61626c653a2063616c6c6572206973206e6f7420746865206f776e6572a265627a7a7231582094c8329a639bfb31444407c7ed7d2b56f6318dc68a3ff33f978df1662367a87664736f6c634300050c0032",
  "source": "// Inspired by  https://fravoll.github.io/solidity-patterns/eternal_storage.html\npragma solidity 0.5.12;\n\nimport \"../node_modules/@openzeppelin/contracts/ownership/Ownable.sol\";\nimport \"./MemberStruct.sol\";\n\ncontract Registry is Ownable, MemberStruct {\n    // ------\n    // STATE\n    // ------\n\n    // Maps member address to Member data\n    // Note, this address is used to map to the owner and delegates in the ERC-1056 registry\n    mapping(address => Member) public members;\n    bytes32 public charter;\n\n    // ------------\n    // CONSTRUCTOR:\n    // ------------\n\n    /**\n    @dev Contructor     Sets the addresses for token, voting, and parameterizer\n    @param _owner       Everest is the owner of the Registry\n    */\n    constructor (\n        address _owner,\n        bytes32 _charter\n    ) public {\n        _owner = _owner;\n        charter = _charter;\n    }\n\n    // --------------------\n    // GETTER FUNCTIONS\n    // --------------------\n\n    function getChallengeID(address _member) external view returns (uint256) {\n        Member memory member = members[_member];\n        return member.challengeID;\n    }\n\n    function getMembershipStartTime(address _member) external view returns (uint256) {\n        Member memory member = members[_member];\n        return member.membershipStartTime;\n    }\n\n    // --------------------\n    // SETTER FUNCTIONS\n    // --------------------\n\n    function updateCharter(bytes32 _newCharter) external onlyOwner {\n        charter = _newCharter;\n    }\n\n    function setMember(\n        address _member,\n        uint256 _membershipStartTime\n    ) external onlyOwner {\n        // Create the member struct\n        Member memory member = Member({\n            challengeID: 0,\n            membershipStartTime: _membershipStartTime\n        });\n        // Store the member\n        members[_member] = member;\n    }\n\n    function editChallengeID(address _member, uint256 _newChallengeID) external onlyOwner {\n        Member storage member = members[_member];\n        member.challengeID = _newChallengeID;\n    }\n\n    function editMembershipStartTime(address _member, uint256 _newTime) external onlyOwner {\n        Member storage member = members[_member];\n        member.membershipStartTime = _newTime;\n    }\n\n    function deleteMember(address _member) external onlyOwner {\n        delete members[_member];\n    }\n}",
  "sourcePath": "/Users/davidkajpust/coding-no-icloud-backup/thegraph/dave/everest/contracts/contracts/Registry.sol",
  "compiler": {
    "name": "solc",
    "version": "0.5.12+commit.7709ece9.Emscripten.clang"
  },
  "schemaVersion": "3.0.20",
  "updatedAt": "2020-01-16T17:22:23.088Z",
  "devdoc": {
    "methods": {
      "constructor": {
        "details": "Contructor     Sets the addresses for token, voting, and parameterizer",
        "params": {
          "_owner": "Everest is the owner of the Registry"
        }
      },
      "isOwner()": {
        "details": "Returns true if the caller is the current owner."
      },
      "owner()": {
        "details": "Returns the address of the current owner."
      },
      "renounceOwnership()": {
        "details": "Leaves the contract without owner. It will not be possible to call `onlyOwner` functions anymore. Can only be called by the current owner.     * NOTE: Renouncing ownership will leave the contract without an owner, thereby removing any functionality that is only available to the owner."
      },
      "transferOwnership(address)": {
        "details": "Transfers ownership of the contract to a new account (`newOwner`). Can only be called by the current owner."
      }
    }
  },
  "userdoc": {
    "methods": {}
  }
}