{
  "contractName": "Registry",
  "abi": [
    {
      "constant": true,
      "inputs": [
        {
          "name": "",
          "type": "address"
        }
      ],
      "name": "members",
      "outputs": [
        {
          "name": "challengeID",
          "type": "uint256"
        },
        {
          "name": "membershipStartTime",
          "type": "uint256"
        }
      ],
      "payable": false,
      "stateMutability": "view",
      "type": "function"
    },
    {
      "constant": false,
      "inputs": [],
      "name": "renounceOwnership",
      "outputs": [],
      "payable": false,
      "stateMutability": "nonpayable",
      "type": "function"
    },
    {
      "constant": true,
      "inputs": [],
      "name": "owner",
      "outputs": [
        {
          "name": "",
          "type": "address"
        }
      ],
      "payable": false,
      "stateMutability": "view",
      "type": "function"
    },
    {
      "constant": true,
      "inputs": [],
      "name": "isOwner",
      "outputs": [
        {
          "name": "",
          "type": "bool"
        }
      ],
      "payable": false,
      "stateMutability": "view",
      "type": "function"
    },
    {
      "constant": true,
      "inputs": [],
      "name": "charter",
      "outputs": [
        {
          "name": "",
          "type": "bytes32"
        }
      ],
      "payable": false,
      "stateMutability": "view",
      "type": "function"
    },
    {
      "constant": false,
      "inputs": [
        {
          "name": "newOwner",
          "type": "address"
        }
      ],
      "name": "transferOwnership",
      "outputs": [],
      "payable": false,
      "stateMutability": "nonpayable",
      "type": "function"
    },
    {
      "inputs": [
        {
          "name": "_owner",
          "type": "address"
        },
        {
          "name": "_charter",
          "type": "bytes32"
        }
      ],
      "payable": false,
      "stateMutability": "nonpayable",
      "type": "constructor"
    },
    {
      "anonymous": false,
      "inputs": [
        {
          "indexed": true,
          "name": "previousOwner",
          "type": "address"
        },
        {
          "indexed": true,
          "name": "newOwner",
          "type": "address"
        }
      ],
      "name": "OwnershipTransferred",
      "type": "event"
    },
    {
      "constant": true,
      "inputs": [
        {
          "name": "_member",
          "type": "address"
        }
      ],
      "name": "getChallengeID",
      "outputs": [
        {
          "name": "",
          "type": "uint256"
        }
      ],
      "payable": false,
      "stateMutability": "view",
      "type": "function"
    },
    {
      "constant": true,
      "inputs": [
        {
          "name": "_member",
          "type": "address"
        }
      ],
      "name": "getMembershipStartTime",
      "outputs": [
        {
          "name": "",
          "type": "uint256"
        }
      ],
      "payable": false,
      "stateMutability": "view",
      "type": "function"
    },
    {
      "constant": false,
      "inputs": [
        {
          "name": "_newCharter",
          "type": "bytes32"
        }
      ],
      "name": "updateCharter",
      "outputs": [],
      "payable": false,
      "stateMutability": "nonpayable",
      "type": "function"
    },
    {
      "constant": false,
      "inputs": [
        {
          "name": "_member",
          "type": "address"
        },
        {
          "name": "_membershipStartTime",
          "type": "uint256"
        }
      ],
      "name": "setMember",
      "outputs": [],
      "payable": false,
      "stateMutability": "nonpayable",
      "type": "function"
    },
    {
      "constant": false,
      "inputs": [
        {
          "name": "_member",
          "type": "address"
        },
        {
          "name": "_newChallengeID",
          "type": "uint256"
        }
      ],
      "name": "editChallengeID",
      "outputs": [],
      "payable": false,
      "stateMutability": "nonpayable",
      "type": "function"
    },
    {
      "constant": false,
      "inputs": [
        {
          "name": "_member",
          "type": "address"
        },
        {
          "name": "_newTime",
          "type": "uint256"
        }
      ],
      "name": "editMembershipStartTime",
      "outputs": [],
      "payable": false,
      "stateMutability": "nonpayable",
      "type": "function"
    },
    {
      "constant": false,
      "inputs": [
        {
          "name": "_member",
          "type": "address"
        }
      ],
      "name": "deleteMember",
      "outputs": [],
      "payable": false,
      "stateMutability": "nonpayable",
      "type": "function"
    }
  ],
  "bytecode": "0x608060405234801561001057600080fd5b5060405160408061085d8339810180604052604081101561003057600080fd5b508051602091820151909161004890610099811b901c565b600080546001600160a01b0319166001600160a01b03928316178082556040519216917f8be0079c531659141344cd1fd0a4f28419497f9722a3daafe3b4186f6b6457e0908290a36002555061009d565b3390565b6107b1806100ac6000396000f3fe608060405234801561001057600080fd5b50600436106100ce5760003560e01c8063422d17a91161008c5780638f32d59b116100665780638f32d59b1461023f578063b770464c1461025b578063c1aadb4d14610281578063f2fde38b14610289576100ce565b8063422d17a9146101e7578063715018a6146102135780638da5cb5b1461021b576100ce565b8062d264cc146100d35780630240a7cd1461010157806308ae4b0c1461011e57806311ffb1d41461015d5780632b94ea971461018357806333e6a54b146101bb575b600080fd5b6100ff600480360360408110156100e957600080fd5b506001600160a01b0381351690602001356102af565b005b6100ff6004803603602081101561011757600080fd5b5035610315565b6101446004803603602081101561013457600080fd5b50356001600160a01b0316610364565b6040805192835260208301919091528051918290030190f35b6100ff6004803603602081101561017357600080fd5b50356001600160a01b031661037d565b6101a96004803603602081101561019957600080fd5b50356001600160a01b03166103e7565b60408051918252519081900360200190f35b6100ff600480360360408110156101d157600080fd5b506001600160a01b038135169060200135610427565b6100ff600480360360408110156101fd57600080fd5b506001600160a01b0381351690602001356104b2565b6100ff61051c565b6102236105b0565b604080516001600160a01b039092168252519081900360200190f35b6102476105bf565b604080519115158252519081900360200190f35b6101a96004803603602081101561027157600080fd5b50356001600160a01b03166105e3565b6101a9610622565b6100ff6004803603602081101561029f57600080fd5b50356001600160a01b0316610628565b6102b76105bf565b6102f95760408051600160e51b62461bcd0281526020600482018190526024820152600080516020610766833981519152604482015290519081900360640190fd5b6001600160a01b03909116600090815260016020526040902055565b61031d6105bf565b61035f5760408051600160e51b62461bcd0281526020600482018190526024820152600080516020610766833981519152604482015290519081900360640190fd5b600255565b6001602081905260009182526040909120805491015482565b6103856105bf565b6103c75760408051600160e51b62461bcd0281526020600482018190526024820152600080516020610766833981519152604482015290519081900360640190fd5b6001600160a01b0316600090815260016020819052604082208281550155565b60006103f1610725565b50506001600160a01b03166000908152600160208181526040928390208351808501909452805480855292015492019190915290565b61042f6105bf565b6104715760408051600160e51b62461bcd0281526020600482018190526024820152600080516020610766833981519152604482015290519081900360640190fd5b610479610725565b50604080518082018252600080825260208083019485526001600160a01b03909516815260019485905291909120905181559051910155565b6104ba6105bf565b6104fc5760408051600160e51b62461bcd0281526020600482018190526024820152600080516020610766833981519152604482015290519081900360640190fd5b6001600160a01b0390911660009081526001602081905260409091200155565b6105246105bf565b6105665760408051600160e51b62461bcd0281526020600482018190526024820152600080516020610766833981519152604482015290519081900360640190fd5b600080546040516001600160a01b03909116907f8be0079c531659141344cd1fd0a4f28419497f9722a3daafe3b4186f6b6457e0908390a3600080546001600160a01b0319169055565b6000546001600160a01b031690565b600080546001600160a01b03166105d461067e565b6001600160a01b031614905090565b60006105ed610725565b50506001600160a01b031660009081526001602081815260409283902083518085019094528054845290910154910181905290565b60025481565b6106306105bf565b6106725760408051600160e51b62461bcd0281526020600482018190526024820152600080516020610766833981519152604482015290519081900360640190fd5b61067b81610682565b50565b3390565b6001600160a01b0381166106ca57604051600160e51b62461bcd0281526004018080602001828103825260268152602001806107406026913960400191505060405180910390fd5b600080546040516001600160a01b03808516939216917f8be0079c531659141344cd1fd0a4f28419497f9722a3daafe3b4186f6b6457e091a3600080546001600160a01b0319166001600160a01b0392909216919091179055565b60405180604001604052806000815260200160008152509056fe4f776e61626c653a206e6577206f776e657220697320746865207a65726f20616464726573734f776e61626c653a2063616c6c6572206973206e6f7420746865206f776e6572a165627a7a72305820abe7477b6beec5911b4140f706e5f8c2965fa464ac8d480be37b740318c7826d0029",
  "source": "// Inspired by  https://fravoll.github.io/solidity-patterns/eternal_storage.html\npragma solidity ^0.5.8;\n\nimport \"../node_modules/@openzeppelin/contracts/ownership/Ownable.sol\";\nimport \"./MemberStruct.sol\";\n\ncontract Registry is Ownable, MemberStruct {\n    // ------\n    // STATE\n    // ------\n\n    // Maps member address to Member data\n    // Note, this address is used to map to the owner and delegates in the ERC-1056 registry\n    mapping(address => Member) public members;\n    bytes32 public charter;\n\n    // ------------\n    // CONSTRUCTOR:\n    // ------------\n\n    /**\n    @dev Contructor     Sets the addresses for token, voting, and parameterizer\n    @param _owner       Everest is the owner of the Registry\n    */\n    constructor (\n        address _owner,\n        bytes32 _charter\n    ) public {\n        _owner = _owner;\n        charter = _charter;\n    }\n\n    // --------------------\n    // GETTER FUNCTIONS\n    // --------------------\n\n    function getChallengeID(address _member) external view returns (uint256) {\n        Member memory member = members[_member];\n        return member.challengeID;\n    }\n\n    function getMembershipStartTime(address _member) external view returns (uint256) {\n        Member memory member = members[_member];\n        return member.membershipStartTime;\n    }\n\n    // --------------------\n    // SETTER FUNCTIONS\n    // --------------------\n\n    function updateCharter(bytes32 _newCharter) external onlyOwner {\n        charter = _newCharter;\n    }\n\n    function setMember(\n        address _member,\n        uint256 _membershipStartTime\n    ) external onlyOwner {\n        // Create the member struct\n        Member memory member = Member({\n            challengeID: 0,\n            membershipStartTime: _membershipStartTime\n        });\n        // Store the member\n        members[_member] = member;\n    }\n\n    function editChallengeID(address _member, uint256 _newChallengeID) external onlyOwner {\n        Member storage member = members[_member];\n        member.challengeID = _newChallengeID;\n    }\n\n    function editMembershipStartTime(address _member, uint256 _newTime) external onlyOwner {\n        Member storage member = members[_member];\n        member.membershipStartTime = _newTime;\n    }\n\n    function deleteMember(address _member) external onlyOwner {\n        delete members[_member];\n    }\n}",
  "sourcePath": "/Users/davidkajpust/coding-no-icloud-backup/thegraph/dave/everest/contracts/contracts/Registry.sol",
  "compiler": {
    "name": "solc",
    "version": "0.5.8+commit.23d335f2.Emscripten.clang"
  },
  "schemaVersion": "3.0.17",
  "updatedAt": "2020-01-06T18:35:53.078Z",
  "devdoc": {
    "methods": {
      "constructor": {
        "details": "Contructor     Sets the addresses for token, voting, and parameterizer",
        "params": {
          "_owner": "Everest is the owner of the Registry"
        }
      },
      "isOwner()": {
        "details": "Returns true if the caller is the current owner."
      },
      "owner()": {
        "details": "Returns the address of the current owner."
      },
      "renounceOwnership()": {
        "details": "Leaves the contract without owner. It will not be possible to call `onlyOwner` functions anymore. Can only be called by the current owner.     * NOTE: Renouncing ownership will leave the contract without an owner, thereby removing any functionality that is only available to the owner."
      },
      "transferOwnership(address)": {
        "details": "Transfers ownership of the contract to a new account (`newOwner`). Can only be called by the current owner."
      }
    }
  },
  "userdoc": {
    "methods": {}
  }
}